{"abi":[{"type":"constructor","inputs":[{"name":"_stablecoin","type":"address","internalType":"address"},{"name":"_factory","type":"address","internalType":"address"},{"name":"_epochDuration","type":"uint256","internalType":"uint256"}],"stateMutability":"nonpayable"},{"type":"function","name":"activeCreatures","inputs":[{"name":"","type":"uint256","internalType":"uint256"}],"outputs":[{"name":"","type":"address","internalType":"address"}],"stateMutability":"view"},{"type":"function","name":"advanceEpoch","inputs":[],"outputs":[],"stateMutability":"nonpayable"},{"type":"function","name":"currentEpoch","inputs":[],"outputs":[{"name":"","type":"uint256","internalType":"uint256"}],"stateMutability":"view"},{"type":"function","name":"deposit","inputs":[{"name":"amount","type":"uint256","internalType":"uint256"}],"outputs":[],"stateMutability":"nonpayable"},{"type":"function","name":"epochDuration","inputs":[],"outputs":[{"name":"","type":"uint256","internalType":"uint256"}],"stateMutability":"view"},{"type":"function","name":"factory","inputs":[],"outputs":[{"name":"","type":"address","internalType":"contract CreatureFactory"}],"stateMutability":"view"},{"type":"function","name":"genePool","inputs":[],"outputs":[{"name":"","type":"address","internalType":"contract GenePool"}],"stateMutability":"view"},{"type":"function","name":"getActiveCreatures","inputs":[],"outputs":[{"name":"","type":"address[]","internalType":"address[]"}],"stateMutability":"view"},{"type":"function","name":"getCreatureCount","inputs":[],"outputs":[{"name":"","type":"uint256","internalType":"uint256"}],"stateMutability":"view"},{"type":"function","name":"getEcosystemState","inputs":[],"outputs":[{"name":"deposits","type":"uint256","internalType":"uint256"},{"name":"epoch","type":"uint256","internalType":"uint256"},{"name":"creatureCount","type":"uint256","internalType":"uint256"},{"name":"yieldGenerated","type":"int256","internalType":"int256"},{"name":"currentPhase","type":"uint8","internalType":"enum Ecosystem.Phase"}],"stateMutability":"view"},{"type":"function","name":"lastEpochBlock","inputs":[],"outputs":[{"name":"","type":"uint256","internalType":"uint256"}],"stateMutability":"view"},{"type":"function","name":"latestFitness","inputs":[{"name":"","type":"address","internalType":"address"}],"outputs":[{"name":"","type":"uint256","internalType":"uint256"}],"stateMutability":"view"},{"type":"function","name":"owner","inputs":[],"outputs":[{"name":"","type":"address","internalType":"address"}],"stateMutability":"view"},{"type":"function","name":"phase","inputs":[],"outputs":[{"name":"","type":"uint8","internalType":"enum Ecosystem.Phase"}],"stateMutability":"view"},{"type":"function","name":"setGenePool","inputs":[{"name":"_genePool","type":"address","internalType":"address"}],"outputs":[],"stateMutability":"nonpayable"},{"type":"function","name":"shareValue","inputs":[{"name":"user","type":"address","internalType":"address"}],"outputs":[{"name":"","type":"uint256","internalType":"uint256"}],"stateMutability":"view"},{"type":"function","name":"shares","inputs":[{"name":"","type":"address","internalType":"address"}],"outputs":[{"name":"","type":"uint256","internalType":"uint256"}],"stateMutability":"view"},{"type":"function","name":"spawnInitialCreatures","inputs":[{"name":"dnaList","type":"tuple[]","internalType":"struct ICreature.DNA[]","components":[{"name":"targetChainId","type":"uint8","internalType":"uint8"},{"name":"poolType","type":"uint8","internalType":"uint8"},{"name":"allocationRatio","type":"uint16","internalType":"uint16"},{"name":"rebalanceThreshold","type":"uint16","internalType":"uint16"},{"name":"maxSlippage","type":"uint16","internalType":"uint16"},{"name":"yieldFloor","type":"uint16","internalType":"uint16"},{"name":"riskCeiling","type":"uint8","internalType":"uint8"},{"name":"entryTiming","type":"uint8","internalType":"uint8"},{"name":"exitTiming","type":"uint8","internalType":"uint8"},{"name":"hedgeRatio","type":"uint16","internalType":"uint16"}]}],"outputs":[],"stateMutability":"nonpayable"},{"type":"function","name":"stablecoin","inputs":[],"outputs":[{"name":"","type":"address","internalType":"contract IERC20"}],"stateMutability":"view"},{"type":"function","name":"totalCapital","inputs":[],"outputs":[{"name":"","type":"uint256","internalType":"uint256"}],"stateMutability":"view"},{"type":"function","name":"totalFitness","inputs":[],"outputs":[{"name":"","type":"uint256","internalType":"uint256"}],"stateMutability":"view"},{"type":"function","name":"totalShares","inputs":[],"outputs":[{"name":"","type":"uint256","internalType":"uint256"}],"stateMutability":"view"},{"type":"function","name":"totalYieldGenerated","inputs":[],"outputs":[{"name":"","type":"int256","internalType":"int256"}],"stateMutability":"view"},{"type":"function","name":"withdraw","inputs":[{"name":"shareAmount","type":"uint256","internalType":"uint256"}],"outputs":[],"stateMutability":"nonpayable"},{"type":"event","name":"CapitalAllocated","inputs":[{"name":"totalAllocated","type":"uint256","indexed":false,"internalType":"uint256"},{"name":"creatureCount","type":"uint256","indexed":false,"internalType":"uint256"}],"anonymous":false},{"type":"event","name":"Deposited","inputs":[{"name":"user","type":"address","indexed":true,"internalType":"address"},{"name":"amount","type":"uint256","indexed":false,"internalType":"uint256"},{"name":"sharesIssued","type":"uint256","indexed":false,"internalType":"uint256"}],"anonymous":false},{"type":"event","name":"EpochAdvanced","inputs":[{"name":"epoch","type":"uint256","indexed":true,"internalType":"uint256"},{"name":"phase","type":"uint8","indexed":false,"internalType":"enum Ecosystem.Phase"}],"anonymous":false},{"type":"event","name":"InitialCreaturesSpawned","inputs":[{"name":"count","type":"uint256","indexed":false,"internalType":"uint256"}],"anonymous":false},{"type":"event","name":"Withdrawn","inputs":[{"name":"user","type":"address","indexed":true,"internalType":"address"},{"name":"amount","type":"uint256","indexed":false,"internalType":"uint256"},{"name":"sharesBurned","type":"uint256","indexed":false,"internalType":"uint256"}],"anonymous":false},{"type":"error","name":"SafeERC20FailedOperation","inputs":[{"name":"token","type":"address","internalType":"address"}]}],"bytecode":{"object":"0x608034620000c157601f62001ef838819003918201601f19168301916001600160401b03831184841017620000c557808492606094604052833981010312620000c1576200004d81620000d9565b60406200005d60208401620000d9565b920151600b80546001600160a01b03199081166001600160a01b0394851617909155600a8054909116929093169190911790915560045543600555600c80546001600160a81b0319163360ff60a01b1916179055604051611e099081620000ef8239f35b5f80fd5b634e487b7160e01b5f52604160045260245ffd5b51906001600160a01b0382168203620000c15756fe604060808152600480361015610013575f80fd5b5f3560e01c908163234b1ed514610f805781632e1a7d4d14610de2578163383032ea14610dc45781633a98ef3914610da65781633cf80e6c146108bb5781634ff0876a1461089f57816356448a191461088157816371a4853214610859578163766718081461083b5781637ffba4951461081d5781638c825056146107ff5781638da5cb5b146107d7578163b1c9fe6e146107ae578163b48a6a1c14610761578163b6b55f251461059b578163bec9a55c14610564578163c2362dd514610546578163c45a01551461051e578163c50e8bab14610279578163ce7c2ac21461023f578163d16ff17b14610204578163dd03893a146101c457508063e845beae146101505763e9cbd82214610125575f80fd5b3461014c575f36600319011261014c57600b5490516001600160a01b039091168152602090f35b5f80fd5b503461014c575f36600319011261014c578051906101788261017181611224565b038361118f565b8051918291602090602080850191818652845180935285019301915f5b8281106101a457505050500390f35b83516001600160a01b031685528695509381019392810192600101610195565b90503461014c57602036600319011261014c57359060065482101561014c576101ee602092611039565b905491519160018060a01b039160031b1c168152f35b90503461014c57602036600319011261014c57356001600160a01b038116919082900361014c576020915f5260078252805f20549051908152f35b90503461014c57602036600319011261014c57356001600160a01b038116919082900361014c576020915f525f8252805f20549051908152f35b90503461014c576020908160031936011261014c57803567ffffffffffffffff9182821161014c573660238301121561014c578181013592831161014c5761014090602436858402850182011161014c57600c546001600160a01b0394906102e49086163314611082565b6006546104db578515610498575f5b868110610325577f604ba8570f53eadef5f7483db73d33dbb87aaeccf42620ac7d1655da21ee91c988888b51908152a1005b61035d9088856101c4865f8e8c600a541690828d89028b0160035492519a8b988997635abb48f360e01b895260ff92839185016111c5565b169088015260448e826103718584016111c5565b169089015260646103838185016111d3565b9161ffff809316908a01526084908261039d8387016111d3565b16908a015260a490826103b18387016111d3565b16908a015260c490826103c58387016111d3565b16908a015260e490836103d98387016111c5565b16908a015261010490836103ee8387016111c5565b16908a0152610124926104028486016111c5565b16908901526104156101448094016111d3565b169087015285015282610164850152826101848501526101a48401525af191821561048e575f92610453575b5061044d6001926111e2565b016102f3565b91508882813d8311610487575b61046a818361118f565b8101031261014c5761044d6104806001936111b1565b9250610441565b503d610460565b8a513d5f823e3d90fd5b875162461bcd60e51b8152808401889052601960248201527f45636f73797374656d3a20656d70747920646e61206c697374000000000000006044820152606490fd5b875162461bcd60e51b8152808401889052601a60248201527f45636f73797374656d3a20616c726561647920737061776e65640000000000006044820152606490fd5b823461014c575f36600319011261014c57600a5490516001600160a01b039091168152602090f35b823461014c575f36600319011261014c576020906005549051908152f35b90503461014c57602036600319011261014c5735906001600160a01b038216820361014c5761059460209261112d565b9051908152f35b90503461014c576020918260031936011261014c57813591821561072057600b5482516323b872dd60e01b5f90815233845230602452604486905290916001600160a01b031690869060648180855af160015f5114811615610701575b8285525f606052156106ef575050600154801580156106e5575b156106c9575082905b811561068657507f73a19dd210f1a7f902193214c0ee91dd35ee5b4d920cba8d519eca65a7b488ca9293335f525f8152825f20610659838254611120565b905561066782600154611120565b60015561067685600254611120565b60025582519485528401523392a2005b825162461bcd60e51b8152908101859052601c60248201527f45636f73797374656d3a206465706f73697420746f6f20736d616c6c000000006044820152606490fd5b6106d66106df91856110ce565b600254906110f5565b9061061b565b5060025415610612565b602492635274afe760e01b8352820152fd5b600181151661071757813b15153d1516166105f8565b823d5f823e3d90fd5b83606492519162461bcd60e51b8352820152601760248201527f45636f73797374656d3a207a65726f206465706f7369740000000000000000006044820152fd5b823461014c575f36600319011261014c5760a0906107ac6002549160035490600654600d5491600c549381519687526020870152850152606084015260ff6080840191851c16611018565bf35b823461014c575f36600319011261014c576020906107ac60ff600c5460a01c1691518092611018565b823461014c575f36600319011261014c57600c5490516001600160a01b039091168152602090f35b823461014c575f36600319011261014c57602090600d549051908152f35b823461014c575f36600319011261014c576020906008549051908152f35b823461014c575f36600319011261014c576020906003549051908152f35b823461014c575f36600319011261014c5760095490516001600160a01b039091168152602090f35b823461014c575f36600319011261014c576020906006549051908152f35b823461014c575f36600319011261014c57602091549051908152f35b90503461014c575f36600319011261014c57600c805460ff60a09160a01c166005811015610d935780610ab05750506108f8600554835490611120565b4310610a6d57805460ff60a01b19908116600160a01b1782556003805490935f198214610a5a57600191828391019586600355875190600182525f80516020611d94833981519152978860208094a25f925b61096e575b5050505050600160a11b908254161790556020600354925160028152a2005b600654831015610a555782826109848695611039565b90548c51634136aa3560e01b8152976001600160a01b03939289928391881b1c85165afa8015610a4b5787965f91610a1e575b506109c7575b508401929361094a565b9094506109d385611039565b905490831b1c1693843b1561014c575f8095858c51809881936306f4f6fb60e31b83525af190811561048e5786958692610a0f575b50906109bd565b610a1890611167565b5f610a08565b610a3e9150853d8711610a44575b610a36818361118f565b810190611288565b5f6109b7565b503d610a2c565b8b513d5f823e3d90fd5b61094f565b601190634e487b7160e01b5f525260245ffd5b506020606492519162461bcd60e51b8352820152601c60248201527f45636f73797374656d3a2065706f6368206e6f7420656c6170736564000000006044820152fd5b9192909160028103610cd357505f915f5b600654811015610c1857610ad481611039565b90548751634136aa3560e01b81526001600160a01b039260039260209291839183918a918391881b1c88165afa91821561048e575f92610bfb575b5050610b20575b5050600101610ac1565b81610b2c849794611039565b905490831b1c1691823b1561014c575f8093878b5180968193634641257d60e01b83525af1918215610bf15786938693610be2575b50610b6b88611039565b9054911b1c168851928380926310b793a760e21b82525afa8015610bd857600192610b9d925f92610ba5575b50611c4f565b93905f610b16565b610bc6919250853d8711610bd1575b610bbe818361118f565b8101906112b8565b50505050905f610b97565b503d610bb4565b87513d5f823e3d90fd5b610beb90611167565b5f610b61565b89513d5f823e3d90fd5b610c119250803d10610a4457610a36818361118f565b5f80610b0f565b505090610c2790600d54611c4f565b600d55600b5483516370a0823160e01b81523092810192909252602090829060249082906001600160a01b03165afa908115610cc9575f91610c97575b50600255805460ff60a01b1916600360a01b1790556003805491519081525f80516020611d9483398151915290602090a2005b90506020813d602011610cc1575b81610cb26020938361118f565b8101031261014c57515f610c64565b3d9150610ca5565b83513d5f823e3d90fd5b90915060038103610d1557506020905f80516020611d9483398151915292610cf9611a2e565b805460ff60a01b1916600160a21b1790556003549351908152a2005b8103610d505750610d246112f3565b805460ff60a01b191690554360055560035490515f81525f80516020611d9483398151915290602090a2005b606490602084519162461bcd60e51b8352820152601860248201527f45636f73797374656d3a20696e76616c696420706861736500000000000000006044820152fd5b602184634e487b7160e01b5f525260245ffd5b823461014c575f36600319011261014c576020906001549051908152f35b823461014c575f36600319011261014c576020906002549051908152f35b823461014c576020908160031936011261014c5782358015610f3d57335f525f835280825f205410610efa57610e26610e1d600254836110ce565b600154906110f5565b92335f525f8152825f20610e3b838254611113565b9055610e4982600154611113565b600155610e5884600254611113565b600255600b54835163a9059cbb60e01b5f908152338852602487905290916001600160a01b031690839060448180855af160015f5114811615610ee4575b82865215610ed057505082519384528301523392507f92ccf450a286a957af52509bc1c9939d1a6a481783e142e41e2499f0bb66ebc691a2005b635274afe760e01b82528187015260249150fd5b600181151661071757813b15153d151616610e96565b815162461bcd60e51b8152808501849052601e60248201527f45636f73797374656d3a20696e73756666696369656e742073686172657300006044820152606490fd5b815162461bcd60e51b8152808501849052601860248201527f45636f73797374656d3a207a65726f20776974686472617700000000000000006044820152606490fd5b823461014c57602036600319011261014c576001600160a01b0382358181169391929084900361014c57610fb983600c54163314611082565b600954928316610fd55750506001600160a01b03191617600955005b906020606492519162461bcd60e51b8352820152601f60248201527f45636f73797374656d3a2067656e65506f6f6c20616c726561647920736574006044820152fd5b9060058210156110255752565b634e487b7160e01b5f52602160045260245ffd5b60065481101561106e5760065f527ff652222313e28459528d920b65115c16c04f3efc82aaedc97be59f3f377c0d3f01905f90565b634e487b7160e01b5f52603260045260245ffd5b1561108957565b60405162461bcd60e51b815260206004820152601b60248201527f45636f73797374656d3a2063616c6c6572206e6f74206f776e657200000000006044820152606490fd5b818102929181159184041417156110e157565b634e487b7160e01b5f52601160045260245ffd5b81156110ff570490565b634e487b7160e01b5f52601260045260245ffd5b919082039182116110e157565b919082018092116110e157565b60015480156111615761115e9160018060a01b03165f525f60205261115960405f2054600254906110ce565b6110f5565b90565b50505f90565b67ffffffffffffffff811161117b57604052565b634e487b7160e01b5f52604160045260245ffd5b90601f8019910116810190811067ffffffffffffffff82111761117b57604052565b51906001600160a01b038216820361014c57565b359060ff8216820361014c57565b359061ffff8216820361014c57565b6006546801000000000000000081101561117b578060016112069201600655611039565b60018060a09493941b038084549260031b9316831b921b1916179055565b6006549081815260208091019160065f527ff652222313e28459528d920b65115c16c04f3efc82aaedc97be59f3f377c0d3f915f905b828210611268575050505090565b83546001600160a01b03168552938401936001938401939091019061125a565b9081602091031261014c5751801515810361014c5790565b67ffffffffffffffff811161117b5760051b60200190565b908160a091031261014c578051916020820151916040810151916080606083015192015190565b805182101561106e5760209160051b010190565b600654908115801590816119a2575b61199d575f600855600192600390848254111561185157611322816112a0565b916040936113328551948561118f565b82845261133e836112a0565b60209490601f190136868301375f905f5b86868210611723575050816114a55750505061136d826002546110f5565b801515915f5b84811061139f57505050505f80516020611db48339815191529394505b600254918351928352820152a1565b8890848061143e575b6113b3575b01611373565b905060018060a01b036113dc8482600b5416836113cf86611039565b905490881b1c1690611c6a565b6113e582611039565b905490841b1c16803b1561014c575f809160248a5180948193632b0142a760e01b83528960048401525af1801561143457908a9291611425575b506113ad565b61142e90611167565b5f61141f565b88513d5f823e3d90fd5b50905060048661144d83611039565b90548a51634136aa3560e01b815293849290918391881b1c6001600160a01b03165afa90811561143457908a92915f91611488575b506113a8565b61149f9150883d8a11610a4457610a36818361118f565b5f611482565b5f989398915f5b8681106115eb575050506114c290600254611113565b9081151590816115e3575b506114eb575b50505f80516020611db4833981519152939450611390565b5f5b8381106114fb575b506114d3565b8461150582611039565b9060018060a01b0391829154908c1b1c16885192838092634136aa3560e01b825260049586915afa908115610bf1575f916115c6575b5061154957505082016114ed565b92989161156a9194506115658a85600b5416866113cf85611039565b611039565b9054911b1c1695863b1561014c5760245f92838751998a948593632b0142a760e01b85528401525af1948515610cc9575f80516020611db483398151915294956115b7575b8594816114f5565b6115c090611167565b5f6115af565b6115dd9150883d8a11610a4457610a36818361118f565b5f61153b565b90505f6114cd565b876115f582611039565b908d60018060a01b0392839254911b1c168b5192838092634136aa3560e01b825260049586915afa9081156117195791899493918f935f916116fc575b50156116f4576116538661115960025461164c888c6112df565b51906110ce565b9283611665575b505050505b016114ac565b839550928192938261168e93600b9b979b5416916116828c611039565b9054911b1c1690611c6a565b8d61169888611039565b9054911b1c1690813b1561014c578360245f92838f519586948593632b0142a760e01b85528401525af18015610a4b57918893916116db936116e5575b50611120565b935f80808e61165a565b6116ee90611167565b5f6116d5565b50505061165f565b61171391508d803d10610a4457610a36818361118f565b5f611632565b8c513d5f823e3d90fd5b909261172e84611039565b90548a51634136aa3560e01b81526004946001600160a01b039391929091839187918391908d1b1c86165afa908115610a4b57908d915f91611834575b501561182b575061177b85611039565b905490881b1c1689519283916310b793a760e21b8352828260a09687935afa918215610a4b575f945f93611802575b50508c8201809211610a5a5750916117db91838d94925f81136117e3575b5050816117d587876112df565b52611120565b925b0161134f565b6117fa929350670de0b6b3a7640000900490611120565b905f806117c8565b809192955061181d9350903d10610bd157610bbe818361118f565b505093915092905f806117aa565b925050926117dd565b61184b91508b3d8d11610a4457610a36818361118f565b5f61176b565b92939150611861836002546110f5565b801515915f5b85811061189557505050505060405f80516020611db4833981519152916002549082519182526020820152a1565b8490848061192b575b6118a9575b01611867565b905060018060a01b036118c58482600b5416836113cf86611039565b6118ce82611039565b905490841b1c16803b1561014c575f90816040916024835180958193632b0142a760e01b83528a60048401525af1908115611922575090869291611913575b506118a3565b61191c90611167565b5f61190d565b513d5f823e3d90fd5b50905061193781611039565b905460408051634136aa3560e01b8152909290916020918291849160049183918a1b1c6001600160a01b03165afa928315611922575090879392915f92611980575b505061189e565b6119969250803d10610a4457610a36818361118f565b5f80611979565b509050565b5060025415611302565b602090818184031261014c5780519067ffffffffffffffff821161014c57019180601f8401121561014c5782516119e2816112a0565b936119f0604051958661118f565b818552838086019260051b82010192831161014c578301905b828210611a17575050505090565b838091611a23846111b1565b815201910190611a09565b600260065410611c4d5760018060a01b0390816009541691600354906040935f855180926228932960e41b82528183816004988b6004830152611a7360448301611224565b90602483015203925af18015611c43576004915f91611c29575b505f83600954168751938480926393a58ccb60e01b82525afa918215611c1f575f92611bfb575b505f5b8251811015611b105783611acb82856112df565b511690813b1561014c575f8092878a51809581936341c0e1b560e01b83525af191821561143457600192611b01575b5001611ab7565b611b0a90611167565b5f611afa565b509493919250506006545f60065580611bb9575b505f5b8451811015611b4e5780611b4884611b41600194896112df565b51166111e2565b01611b27565b5092506020602491600b54168351928380926370a0823160e01b82523060048301525afa91821561192257505f91611b87575b50600255565b90506020813d602011611bb1575b81611ba26020938361118f565b8101031261014c57515f611b81565b3d9150611b95565b60065f527ff652222313e28459528d920b65115c16c04f3efc82aaedc97be59f3f377c0d3f908101905b818110611bf05750611b24565b5f8155600101611be3565b611c189192503d805f833e611c10818361118f565b8101906119ac565b905f611ab4565b86513d5f823e3d90fd5b611c3d91503d805f833e611c10818361118f565b5f611a8d565b85513d5f823e3d90fd5b565b9190915f83820193841291129080158216911516176110e157565b60405163095ea7b360e01b5f8181526001600160a01b03948516600481905260248790529195929060209060448180885af160015f5114811615611d86575b8160405215611cbb575b505050505050565b855f52816004525f60245260205f60448180885af160015f5114811615611d67575b8160405215611d505750604051945f5260045260245260205f60448180855af160015f5114811615611d31575b8360405215611d1b57808080611cb3565b635274afe760e01b835216600482015260249150fd5b6001811516611d4757813b15153d151616611d0a565b833d5f823e3d90fd5b635274afe760e01b81528385166004820152602490fd5b6001811516611d7d57843b15153d151616611cdd565b503d5f823e3d90fd5b843b15153d151616611ca956fef901ef2975d773074e96476e770b4f22b35403eb89cb79e7d73aa792e46e03e20ac4c1d8dbcaec55a371b5f0ff7f190d20869740216fa5ca0602a510790c00a0a2646970667358221220e6aa6844a7b93cd03dc57150f562558ceedbb4b007eb4375847af718d29ef97c64736f6c63430008180033","linkReferences":{}},"methodIdentifiers":{"activeCreatures(uint256)":"dd03893a","advanceEpoch()":"3cf80e6c","currentEpoch()":"76671808","deposit(uint256)":"b6b55f25","epochDuration()":"4ff0876a","factory()":"c45a0155","genePool()":"71a48532","getActiveCreatures()":"e845beae","getCreatureCount()":"56448a19","getEcosystemState()":"b48a6a1c","lastEpochBlock()":"c2362dd5","latestFitness(address)":"d16ff17b","owner()":"8da5cb5b","phase()":"b1c9fe6e","setGenePool(address)":"234b1ed5","shareValue(address)":"bec9a55c","shares(address)":"ce7c2ac2","spawnInitialCreatures((uint8,uint8,uint16,uint16,uint16,uint16,uint8,uint8,uint8,uint16)[])":"c50e8bab","stablecoin()":"e9cbd822","totalCapital()":"383032ea","totalFitness()":"7ffba495","totalShares()":"3a98ef39","totalYieldGenerated()":"8c825056","withdraw(uint256)":"2e1a7d4d"},"id":31}