{"abi":[{"type":"constructor","inputs":[{"name":"_stablecoin","type":"address","internalType":"address"},{"name":"_factory","type":"address","internalType":"address"},{"name":"_epochDuration","type":"uint256","internalType":"uint256"}],"stateMutability":"nonpayable"},{"type":"function","name":"activeCreatures","inputs":[{"name":"","type":"uint256","internalType":"uint256"}],"outputs":[{"name":"","type":"address","internalType":"address"}],"stateMutability":"view"},{"type":"function","name":"advanceEpoch","inputs":[],"outputs":[],"stateMutability":"nonpayable"},{"type":"function","name":"currentEpoch","inputs":[],"outputs":[{"name":"","type":"uint256","internalType":"uint256"}],"stateMutability":"view"},{"type":"function","name":"deposit","inputs":[{"name":"amount","type":"uint256","internalType":"uint256"}],"outputs":[],"stateMutability":"nonpayable"},{"type":"function","name":"epochDuration","inputs":[],"outputs":[{"name":"","type":"uint256","internalType":"uint256"}],"stateMutability":"view"},{"type":"function","name":"factory","inputs":[],"outputs":[{"name":"","type":"address","internalType":"contract CreatureFactory"}],"stateMutability":"view"},{"type":"function","name":"genePool","inputs":[],"outputs":[{"name":"","type":"address","internalType":"contract GenePool"}],"stateMutability":"view"},{"type":"function","name":"getActiveCreatures","inputs":[],"outputs":[{"name":"","type":"address[]","internalType":"address[]"}],"stateMutability":"view"},{"type":"function","name":"getCreatureCount","inputs":[],"outputs":[{"name":"","type":"uint256","internalType":"uint256"}],"stateMutability":"view"},{"type":"function","name":"getEcosystemState","inputs":[],"outputs":[{"name":"deposits","type":"uint256","internalType":"uint256"},{"name":"epoch","type":"uint256","internalType":"uint256"},{"name":"creatureCount","type":"uint256","internalType":"uint256"},{"name":"yieldGenerated","type":"int256","internalType":"int256"},{"name":"currentPhase","type":"uint8","internalType":"enum Ecosystem.Phase"}],"stateMutability":"view"},{"type":"function","name":"lastEpochBlock","inputs":[],"outputs":[{"name":"","type":"uint256","internalType":"uint256"}],"stateMutability":"view"},{"type":"function","name":"latestFitness","inputs":[{"name":"","type":"address","internalType":"address"}],"outputs":[{"name":"","type":"uint256","internalType":"uint256"}],"stateMutability":"view"},{"type":"function","name":"owner","inputs":[],"outputs":[{"name":"","type":"address","internalType":"address"}],"stateMutability":"view"},{"type":"function","name":"phase","inputs":[],"outputs":[{"name":"","type":"uint8","internalType":"enum Ecosystem.Phase"}],"stateMutability":"view"},{"type":"function","name":"registerCreature","inputs":[{"name":"creature","type":"address","internalType":"address"}],"outputs":[],"stateMutability":"nonpayable"},{"type":"function","name":"setGenePool","inputs":[{"name":"_genePool","type":"address","internalType":"address"}],"outputs":[],"stateMutability":"nonpayable"},{"type":"function","name":"setXCMRouter","inputs":[{"name":"_xcmRouter","type":"address","internalType":"address"}],"outputs":[],"stateMutability":"nonpayable"},{"type":"function","name":"shareValue","inputs":[{"name":"user","type":"address","internalType":"address"}],"outputs":[{"name":"","type":"uint256","internalType":"uint256"}],"stateMutability":"view"},{"type":"function","name":"shares","inputs":[{"name":"","type":"address","internalType":"address"}],"outputs":[{"name":"","type":"uint256","internalType":"uint256"}],"stateMutability":"view"},{"type":"function","name":"spawnInitialCreatures","inputs":[{"name":"dnaList","type":"tuple[]","internalType":"struct ICreature.DNA[]","components":[{"name":"targetChainId","type":"uint8","internalType":"uint8"},{"name":"poolType","type":"uint8","internalType":"uint8"},{"name":"allocationRatio","type":"uint16","internalType":"uint16"},{"name":"rebalanceThreshold","type":"uint16","internalType":"uint16"},{"name":"maxSlippage","type":"uint16","internalType":"uint16"},{"name":"yieldFloor","type":"uint16","internalType":"uint16"},{"name":"riskCeiling","type":"uint8","internalType":"uint8"},{"name":"entryTiming","type":"uint8","internalType":"uint8"},{"name":"exitTiming","type":"uint8","internalType":"uint8"},{"name":"hedgeRatio","type":"uint16","internalType":"uint16"}]}],"outputs":[],"stateMutability":"nonpayable"},{"type":"function","name":"stablecoin","inputs":[],"outputs":[{"name":"","type":"address","internalType":"contract IERC20"}],"stateMutability":"view"},{"type":"function","name":"totalCapital","inputs":[],"outputs":[{"name":"","type":"uint256","internalType":"uint256"}],"stateMutability":"view"},{"type":"function","name":"totalFitness","inputs":[],"outputs":[{"name":"","type":"uint256","internalType":"uint256"}],"stateMutability":"view"},{"type":"function","name":"totalShares","inputs":[],"outputs":[{"name":"","type":"uint256","internalType":"uint256"}],"stateMutability":"view"},{"type":"function","name":"totalSystemValue","inputs":[],"outputs":[{"name":"","type":"uint256","internalType":"uint256"}],"stateMutability":"view"},{"type":"function","name":"totalYieldGenerated","inputs":[],"outputs":[{"name":"","type":"int256","internalType":"int256"}],"stateMutability":"view"},{"type":"function","name":"withdraw","inputs":[{"name":"shareAmount","type":"uint256","internalType":"uint256"}],"outputs":[],"stateMutability":"nonpayable"},{"type":"function","name":"xcmRouter","inputs":[],"outputs":[{"name":"","type":"address","internalType":"contract IYieldSimulator"}],"stateMutability":"view"},{"type":"event","name":"CapitalAllocated","inputs":[{"name":"totalAllocated","type":"uint256","indexed":false,"internalType":"uint256"},{"name":"creatureCount","type":"uint256","indexed":false,"internalType":"uint256"}],"anonymous":false},{"type":"event","name":"CreatureRegistered","inputs":[{"name":"creature","type":"address","indexed":true,"internalType":"address"}],"anonymous":false},{"type":"event","name":"Deposited","inputs":[{"name":"user","type":"address","indexed":true,"internalType":"address"},{"name":"amount","type":"uint256","indexed":false,"internalType":"uint256"},{"name":"sharesIssued","type":"uint256","indexed":false,"internalType":"uint256"}],"anonymous":false},{"type":"event","name":"EpochAdvanced","inputs":[{"name":"epoch","type":"uint256","indexed":true,"internalType":"uint256"},{"name":"phase","type":"uint8","indexed":false,"internalType":"enum Ecosystem.Phase"}],"anonymous":false},{"type":"event","name":"InitialCreaturesSpawned","inputs":[{"name":"count","type":"uint256","indexed":false,"internalType":"uint256"}],"anonymous":false},{"type":"event","name":"Withdrawn","inputs":[{"name":"user","type":"address","indexed":true,"internalType":"address"},{"name":"amount","type":"uint256","indexed":false,"internalType":"uint256"},{"name":"sharesBurned","type":"uint256","indexed":false,"internalType":"uint256"}],"anonymous":false},{"type":"error","name":"SafeERC20FailedOperation","inputs":[{"name":"token","type":"address","internalType":"address"}]}],"bytecode":{"object":"0x608034620000c157601f62002c9038819003918201601f19168301916001600160401b03831184841017620000c657808492606094604052833981010312620000c1576200004d81620000dc565b60406200005d60208401620000dc565b920151600b80546001600160a01b03199081166001600160a01b0394851617909155600a8054909116929093169190911790915560045543600555600d80546001600160a81b0319163360ff60a01b1916179055604051612b9e9081620000f28239f35b600080fd5b634e487b7160e01b600052604160045260246000fd5b51906001600160a01b0382168203620000c15756fe6040608081526004908136101561001557600080fd5b600091823560e01c90816304ac9b13146111f3578163234b1ed5146111585781632e1a7d4d14610f23578163383032ea14610f045781633a98ef3914610ee55781633cf80e6c14610a385781634ff0876a14610a1a57816356448a19146109fb57816371a48532146109d257816376671808146109b35781637ffba495146109945781638c825056146109755781638da5cb5b1461094c578163aa75e165146108fb578163b1c9fe6e146108d1578163b48a6a1c1461087e578163b4ab303b146107d0578163b6b55f251461060b578163bec9a55c146105d3578163c2362dd5146105b4578163c45a01551461058b578163c50e8bab146102d5578163ce7c2ac21461029c578163d16ff17b14610262578163dd03893a1461021a57508063e1d20600146101f2578063e845beae146101825763e9cbd8221461015757600080fd5b3461017e578160031936011261017e57600b5490516001600160a01b039091168152602090f35b5080fd5b503461017e578160031936011261017e5780516101a9816101a281611436565b038261133f565b815192839260208080860192818752855180945286019401925b8281106101d257505050500390f35b83516001600160a01b0316855286955093810193928101926001016101c3565b503461017e578160031936011261017e57600c5490516001600160a01b039091168152602090f35b90503461025e57602036600319011261025e57359160065483101561025b5750610245602092611233565b905491519160018060a01b039160031b1c168152f35b80fd5b8280fd5b90503461025e57602036600319011261025e57356001600160a01b0381169081900361025e57828291602094526007845220549051908152f35b90503461025e57602036600319011261025e57356001600160a01b0381169081900361025e578282916020945280845220549051908152f35b8391503461017e576020908160031936011261025e57803567ffffffffffffffff91828211610587573660238301121561058757818101359283116105875761014090602436858402850182011161058357600d546001600160a01b0394906103419086163314611280565b6006546105405785156104fd57875b86811061038457887f604ba8570f53eadef5f7483db73d33dbb87aaeccf42620ac7d1655da21ee91c989898d51908152a180f35b6103bb88856101c4868d8f8c600a541690828d8a028b016003549251998a988997635abb48f360e01b895260ff9283918501611419565b169088015260448e826103cf858401611419565b169089015260646103e1818501611427565b9161ffff809316908a0152608490826103fb838701611427565b16908a015260a4908261040f838701611427565b16908a015260c49082610423838701611427565b16908a015260e49083610437838701611419565b16908a0152610104908361044c838701611419565b16908a015261012492610460848601611419565b1690890152610473610144809401611427565b169087015285015282610164850152826101848501526101a48401525af19081156104f3578a916104b2575b50906104ac60019261137b565b01610350565b90508881813d83116104ec575b6104c9818361133f565b810103126104e857906104ac6104e0600193611400565b91925061049f565b8980fd5b503d6104bf565b8b513d8c823e3d90fd5b885162461bcd60e51b8152808401889052601960248201527f45636f73797374656d3a20656d70747920646e61206c697374000000000000006044820152606490fd5b885162461bcd60e51b8152808401889052601a60248201527f45636f73797374656d3a20616c726561647920737061776e65640000000000006044820152606490fd5b8680fd5b8480fd5b50503461017e578160031936011261017e57600a5490516001600160a01b039091168152602090f35b50503461017e578160031936011261017e576020906005549051908152f35b90503461025e57602036600319011261025e5735916001600160a01b038316830361025b57506106046020926113bd565b9051908152f35b8391503461017e576020928360031936011261025e57813591821561078f57600b5482516323b872dd60e01b8652338352306024526044859052906001600160a01b0316868660648180855af16001875114811615610770575b828552866060521561075e57505060015480158015610754575b15610738575082905b81156106f557507f73a19dd210f1a7f902193214c0ee91dd35ee5b4d920cba8d519eca65a7b488ca9293943386528581528286206106c783825461136e565b90556106d58260015461136e565b6001556106e48560025461136e565b60025582519485528401523392a280f35b825162461bcd60e51b8152908101869052601c60248201527f45636f73797374656d3a206465706f73697420746f6f20736d616c6c000000006044820152606490fd5b61074561074e91856112cc565b600254906112f5565b90610688565b506002541561067f565b602492635274afe760e01b8352820152fd5b600181151661078657813b15153d151616610665565b823d88823e3d90fd5b84606492519162461bcd60e51b8352820152601760248201527f45636f73797374656d3a207a65726f206465706f7369740000000000000000006044820152fd5b90503461025e57602036600319011261025e576001600160a01b0381358181169390929184840361087a576009541633036108375750506108109061137b565b7f30a4ff863e8fc43467f3e15ff91b2a16b1b1ded29edee5b3087a2cddb274d8cd8280a280f35b906020606492519162461bcd60e51b8352820152601e60248201527f45636f73797374656d3a2063616c6c6572206e6f742067656e65506f6f6c00006044820152fd5b8580fd5b50503461017e578160031936011261017e5760a0906108cf61089e61149c565b9160035490600654600e5491600d549381519687526020870152850152606084015260ff6080840191851c16611210565bf35b50503461017e578160031936011261017e576020906108cf60ff600d5460a01c1691518092611210565b83903461017e57602036600319011261017e57356001600160a01b038181169182900361025e5761093190600d54163314611280565b6bffffffffffffffffffffffff60a01b600c541617600c5580f35b50503461017e578160031936011261017e57600d5490516001600160a01b039091168152602090f35b50503461017e578160031936011261017e57602090600e549051908152f35b50503461017e578160031936011261017e576020906008549051908152f35b50503461017e578160031936011261017e576020906003549051908152f35b50503461017e578160031936011261017e5760095490516001600160a01b039091168152602090f35b50503461017e578160031936011261017e576020906006549051908152f35b90503461025e578260031936011261025e5760209250549051908152f35b90503461025e578260031936011261025e57600d805460ff60a09160a01c166005811015610ed25780610c3c575050610a7560055483549061136e565b4310610bf957805460ff60a01b19908116600160a01b1782556003805490936000198214610be65760019182839101958660035587519060018252600080516020612b29833981519152978860208094a289925b610aee575b5050505050600160a11b908254161790556020600354925160028152a280f35b600654831015610be157828a83610b058796611233565b90548d51634136aa3560e01b8152986001600160a01b0393928a928391891b1c85165afa8015610bd75788978391610baa575b50610b49575b505084019293610ac9565b909550610b5582611233565b905490841b1c16803b1561087a578590858c51809881936306f4f6fb60e31b83525af1908115610ba05786958692610b91575b8c919250610b3e565b610b9a90611315565b38610b88565b8a513d8d823e3d90fd5b610bca9150863d8811610bd0575b610bc2818361133f565b81019061193b565b38610b38565b503d610bb8565b8c513d84823e3d90fd5b610ace565b634e487b7160e01b875260119052602486fd5b506020606492519162461bcd60e51b8352820152601c60248201527f45636f73797374656d3a2065706f6368206e6f7420656c6170736564000000006044820152fd5b9094919392919060028103610e0b5750610c5461269e565b8094815b600654811015610db957610c6b81611233565b90548651634136aa3560e01b81526001600160a01b039260039260209291839183918b918391881b1c88165afa918215610daf578792610d92575b5050610cb7575b5050600101610c58565b81610cc3849a94611233565b905490831b1c16803b1561087a57858091888a5180948193634641257d60e01b83525af18015610d8857918793918693610d79575b50610d028b611233565b9054911b1c168751928380926310b793a760e21b82525afa908115610d6f578491610d3d575b50610d3590600192612530565b969038610cad565b90508281813d8311610d68575b610d54818361133f565b81010312610d6457516001610d28565b8380fd5b503d610d4a565b86513d86823e3d90fd5b610d8290611315565b38610cf8565b88513d88823e3d90fd5b610da89250803d10610bd057610bc2818361133f565b3880610ca6565b89513d89823e3d90fd5b505093610dcc9150929192600e54612530565b600e55610dd761149c565b600255805460ff60a01b1916600360a01b179055600380549151908152600080516020612b2983398151915290602090a280f35b90945091929160038103610e525750602090600080516020612b2983398151915292610e35612239565b805460ff60a01b1916600160a21b1790556003549351908152a280f35b8103610e8f5750610e6161197f565b805460ff60a01b19169055436005556003549051828152600080516020612b2983398151915290602090a280f35b606490602084519162461bcd60e51b8352820152601860248201527f45636f73797374656d3a20696e76616c696420706861736500000000000000006044820152fd5b634e487b7160e01b865260218452602486fd5b50503461017e578160031936011261017e576020906001549051908152f35b50503461017e578160031936011261017e576020906002549051908152f35b83833461017e576020908160031936011261025e5783358015611115573384528383528082852054106110d257610f6d610f64610f5e61149c565b836112cc565b600154906112f5565b600b5483516370a0823160e01b815230888201529194916001600160a01b039183908290602490829086165afa9081156110c857879161109b575b50808611611083575b50338652858252838620610fc6848254611361565b9055610fd483600154611361565b600155610fe885610fe361149c565b611361565b600255600b54845163a9059cbb60e01b885233895260248790529116828760448180855af16001885114811615611064575b82865215611050575050907f92ccf450a286a957af52509bc1c9939d1a6a481783e142e41e2499f0bb66ebc692916106e461149c565b635274afe760e01b82528188015260249150fd5b600181151661107a57813b15153d15161661101a565b823d89823e3d90fd5b6110906110959187611361565b6115ca565b87610fb1565b90508281813d83116110c1575b6110b2818361133f565b81010312610583575188610fa8565b503d6110a8565b85513d89823e3d90fd5b815162461bcd60e51b8152808601849052601e60248201527f45636f73797374656d3a20696e73756666696369656e742073686172657300006044820152606490fd5b815162461bcd60e51b8152808601849052601860248201527f45636f73797374656d3a207a65726f20776974686472617700000000000000006044820152606490fd5b9190503461025e57602036600319011261025e576001600160a01b038235818116939192908490036105875761119383600d54163314611280565b6009549283166111b05750506001600160a01b0319161760095580f35b906020606492519162461bcd60e51b8352820152601f60248201527f45636f73797374656d3a2067656e65506f6f6c20616c726561647920736574006044820152fd5b50503461017e578160031936011261017e5760209061060461149c565b90600582101561121d5752565b634e487b7160e01b600052602160045260246000fd5b60065481101561126a5760066000527ff652222313e28459528d920b65115c16c04f3efc82aaedc97be59f3f377c0d3f0190600090565b634e487b7160e01b600052603260045260246000fd5b1561128757565b60405162461bcd60e51b815260206004820152601b60248201527f45636f73797374656d3a2063616c6c6572206e6f74206f776e657200000000006044820152606490fd5b818102929181159184041417156112df57565b634e487b7160e01b600052601160045260246000fd5b81156112ff570490565b634e487b7160e01b600052601260045260246000fd5b67ffffffffffffffff811161132957604052565b634e487b7160e01b600052604160045260246000fd5b90601f8019910116810190811067ffffffffffffffff82111761132957604052565b919082039182116112df57565b919082018092116112df57565b600654680100000000000000008110156113295780600161139f9201600655611233565b60018060a09493941b038084549260031b9316831b921b1916179055565b60015480156113f9576113f16113f6926113d561149c565b9060018060a01b031660005260006020526040600020546112cc565b6112f5565b90565b5050600090565b51906001600160a01b038216820361141457565b600080fd5b359060ff8216820361141457565b359061ffff8216820361141457565b6006549081815260208091019160066000527ff652222313e28459528d920b65115c16c04f3efc82aaedc97be59f3f377c0d3f916000905b82821061147c575050505090565b83546001600160a01b03168552938401936001938401939091019061146e565b60018060a01b0380600b541660408051926370a0823160e01b93848152600430600483015260209160249083816024818a5afa9081156115be57600091611591575b5096959493929190600096600654965b8789106115015750505050505050505090565b909192939495969798866115148b611233565b9190548a519286845260031b1c168682015286818681865afa90811561158657600091611558575b506115499060019261136e565b990197969594939291906114ee565b908782813d831161157f575b61156e818361133f565b8101031261025b575051600161153c565b503d611564565b89513d6000823e3d90fd5b90508381813d83116115b7575b6115a8818361133f565b810103126114145751386114de565b503d61159e565b6040513d6000823e3d90fd5b600091600060069260065460018060a01b0392600b9184600b54165b8183106118af5750505085156118a757600093825b865486101561174e57848354169061161287611233565b9054876003604092835196879384926370a0823160e01b8452600497851b1c1686830152602097889160249586915afa96871561174357600097611712575b505085156116fc576116678d6113f1888c6112cc565b9580871161170a575b5085156116fc5789906116828c611233565b9054911b1c1692833b156114145760009186918385519687948593630962af4960e11b85528401525af19081156116f257506116e3575b50818111156116d7576001916116ce91611361565b955b01946115fb565b505060016000956116d0565b6116ec90611315565b386116b9565b513d6000823e3d90fd5b5050505095600191506116d0565b955038611670565b8181989293983d831161173c575b61172a818361133f565b8101031261025b575051943880611651565b503d611720565b84513d6000823e3d90fd5b939594509550905081611762575b50505050565b909192936000925b845484101561189c57801561188c57858354169061178785611233565b905460039389604092835192839283926370a0823160e01b84526004978a1b1c1686830152602092839160249586915afa91821561174357908c929160009261185b575b5050801561184c578086111561184457955b6117e68a611233565b9054911b1c1692833b156114145760009186918385519687948593630962af4960e11b85528401525af19081156116f25750916001939161182c93611835575b50611361565b935b019261176a565b61183e90611315565b38611826565b5084956117dd565b5050505050936001915061182e565b90809350813d8311611885575b611872818361133f565b8101031261025b57508a905138806117cb565b503d611868565b5093505050505b3880808061175c565b509350505050611893565b505050915050565b9091976118bb89611233565b905490876040928351926370a0823160e01b845260031b1c16600482015260208082602481885afa9283156116f2575060009261190a575b50506119019060019261136e565b980191906115e6565b81819392933d8311611934575b611921818361133f565b8101031261025b575051816119016118f3565b503d611917565b90816020910312611414575180151581036114145790565b67ffffffffffffffff81116113295760051b60200190565b805182101561126a5760209160051b010190565b60065480156121b45760005b8181106120315750600b546040516370a0823160e01b815230600482015290602090829060249082906001600160a01b03165afa9081156115be57600091611fff575b508015611ffb57600060085560016003541115611ebc576119ee82611953565b6119fb604051918261133f565b828152601f19611a0a84611953565b0136602083013760009060005b848110611df8575081611b8357505090611a3181836112f5565b80151560005b838110611a6d57505050600080516020612b49833981519152916040915b82519182526020820152a1611a6861149c565b600255565b8180611b1c575b611a81575b600101611a37565b600b54611ab49084906001600160a01b0316611a9c84611233565b905460039190911b1c6001600160a01b03169061254c565b611abd81611233565b905460039190911b1c6001600160a01b031690813b156114145760008092602460405180958193632b0142a760e01b83528960048401525af19182156115be57600192611b0d575b509050611a79565b611b1690611315565b38611b05565b5060046020611b2a83611233565b9054604051634136aa3560e01b81529384929091839160031b1c6001600160a01b03165afa9081156115be57600091611b64575b50611a74565b611b7d915060203d602011610bd057610bc2818361133f565b38611b5e565b60009160005b858110611cd657505050818110611bb4575b50604090600080516020612b4983398151915292611a55565b611bbe9082611361565b9160005b818110611bd1575b5091611b9b565b60046020611bde83611233565b9054604051634136aa3560e01b81529384929091839160031b1c6001600160a01b03165afa9081156115be57600091611cb7575b50611c1f57600101611bc2565b600b54919291611c479190611c429086906001600160a01b0316611a9c84611233565b611233565b905460039190911b1c6001600160a01b031692833b1561141457600093602485926040519687938492632b0142a760e01b845260048401525af19182156115be57600080516020612b4983398151915293604093611ca8575b509091611bca565b611cb190611315565b38611ca0565b611cd0915060203d602011610bd057610bc2818361133f565b38611c12565b60046020611ce383611233565b9054604051634136aa3560e01b81529384929091839160031b1c6001600160a01b03165afa9081156115be57600091611dd9575b5015611dd157611d35826113f1611d2e848761196b565b51886112cc565b80611d46575b506001905b01611b89565b9093611d608260018060a01b03600b5416611a9c88611233565b611d6985611233565b905460039190911b1c6001600160a01b031691823b156114145760008093602460405180968193632b0142a760e01b83528660048401525af19182156115be57600193611dbb93611dc2575b5061136e565b9390611d3b565b611dcb90611315565b38611db5565b600190611d40565b611df2915060203d602011610bd057610bc2818361133f565b38611d17565b9160046020611e0685611233565b9054604051634136aa3560e01b81529384929091839160031b1c6001600160a01b03165afa9081156115be57600091611e9d575b5015611e9457611e84600191611e4f85611233565b848060a01b0391549060031b1c166000526007602052604060002054908115611e8c575b81611e7e878761196b565b5261136e565b925b01611a17565b839150611e73565b91600190611e86565b611eb6915060203d602011610bd057610bc2818361133f565b38611e3a565b90611ec781836112f5565b80151560005b838110611efd57505050600080516020612b498339815191529160409182519182526020820152a1611a6861149c565b8180611f94575b611f11575b600101611ecd565b600b54611f2c9084906001600160a01b0316611a9c84611233565b611f3581611233565b905460039190911b1c6001600160a01b031690813b156114145760008092602460405180958193632b0142a760e01b83528960048401525af19182156115be57600192611f85575b509050611f09565b611f8e90611315565b38611f7d565b5060046020611fa283611233565b9054604051634136aa3560e01b81529384929091839160031b1c6001600160a01b03165afa9081156115be57600091611fdc575b50611f04565b611ff5915060203d602011610bd057610bc2818361133f565b38611fd6565b5050565b906020823d602011612029575b816120196020938361133f565b8101031261025b575051386119ce565b3d915061200c565b600b546001600160a01b0393929190841661204b82611233565b905495806003604098895195869485926370a0823160e01b8452600497851b1c1686830152602091829160249889915afa9384156121a95760009461217a575b508315159081612114575b506120ad575b50505050506001919293500161198b565b6120b686611233565b9054911b1c1692833b15611414576000928389519586948593630962af4960e11b85528401525af18015612109576001939495506120fa575b84939281808061209c565b61210390611315565b386120ef565b85513d6000823e3d90fd5b90508481846121228a611233565b905490861b1c168c5192838092634136aa3560e01b82525afa91821561216f57600092612152575b505038612096565b6121689250803d10610bd057610bc2818361133f565b388061214a565b8b513d6000823e3d90fd5b90938482813d83116121a2575b612191818361133f565b8101031261025b575051923861208b565b503d612187565b8a513d6000823e3d90fd5b50565b60209081818403126114145780519067ffffffffffffffff821161141457019180601f840112156114145782516121ed81611953565b936121fb604051958661133f565b818552838086019260051b820101928311611414578301905b828210612222575050505090565b83809161222e84611400565b815201910190612214565b60066002600654106121b4576009805460038054604080516228932960e41b815260048082018390526001600160a01b039896939592949193909284908a168161228560448201611436565b9160249960248301528160008099819503925af190811561252657908a9291869161250c575b5090915060089785600855855b8a54811015612389578b8454168c6122cf83611233565b905490881b1c16895191829163bbcf535160e01b835289830152818c60209384935afa91821561237f57908e9695949392918a92612340575b5082916007612333928961231d600197611233565b9054908d1b1c168d5252808c8c20558d5461136e565b8c550190919293506122b8565b81809495969798508193503d8311612378575b61235d818361133f565b8101031261237457518d9594939291612333612308565b8880fd5b503d612353565b8a513d8b823e3d90fd5b509250969397505060049394508688600954168651958680926393a58ccb60e01b82525afa9384156110c85787946124e8575b50865b845181101561245d57886123d3828761196b565b5116803b1561237457888091858951809481936341c0e1b560e01b83525af18015612453579060019291612444575b508961240e828861196b565b5116895260076020818152612427898c20548854611361565b87558b612434848a61196b565b51168b52528887812055016123bf565b61244d90611315565b38612402565b87513d8b823e3d90fd5b5095935050505060065481600655806124a6575b505b815181101561249a57806124948561248d6001948661196b565b511661137b565b01612473565b50509050611a6861149c565b600682527ff652222313e28459528d920b65115c16c04f3efc82aaedc97be59f3f377c0d3f908101905b8181106124dd5750612471565b8281556001016124d0565b6125059194503d8089833e6124fd818361133f565b8101906121b7565b92386123bc565b61252091503d8088833e6124fd818361133f565b386122ab565b86513d87823e3d90fd5b919091600083820193841291129080158216911516176112df57565b60405163095ea7b360e01b60008181526001600160a01b0394851660048190526024879052919591929060209060448180885af1600160005114811615612674575b81604052156125a0575b505050505050565b60206000878152846004528060245260448180885af1600160005114811615612654575b816040521561263d57509060209160009160405196835260045260245260448180855af160016000511481161561261d575b836040521561260757808080612598565b635274afe760e01b835216600482015260249150fd5b600181151661263357813b15153d1516166125f6565b833d6000823e3d90fd5b635274afe760e01b81528385166004820152602490fd5b600181151661266a57843b15153d1516166125c4565b503d6000823e3d90fd5b843b15153d15161661258e565b519060ff8216820361141457565b519061ffff8216820361141457565b600c80546001600160a01b03929190831615612b0a5760005b600654811015612b04576126ca81611233565b905460408051634136aa3560e01b81526020939192600392831b1c8881169160049086818381875afa908115612af957600091612adc575b5015612ace578988541693855192636388065f60e11b8452848385015260249780858a818a5afa948515612ac357600095612a94575b508415612a83578751637d2f2c4f60e01b815291610140808487818b5afa9384156121a957600094612984575b505060ff90818385015116801560001461292b57506078925b6080600561ffff82880151160496548c51928301934485526bffffffffffffffffffffffff199060601b168d840152605490818401528252810181811067ffffffffffffffff821117612917578b5251902060c09390930151609691168181029291811591840414171561290357600193848301918284116128ef5782156128db579161281461281e9492612823979694612b0f565b9206931c90612b0f565b612530565b6101f3198082126128d3575b508281029260008112600160ff1b8314166128bf578305036128ab5789600b541691843b1561141457600094612710869260649589519a8b9889976314d8f0d760e01b89528801528601520560448401525af19081156116f25750906001929161289c575b505b016126b7565b6128a590611315565b38612894565b60118691634e487b7160e01b600052526000fd5b87601184634e487b7160e01b600052526000fd5b90503861282f565b8b601288634e487b7160e01b600052526000fd5b8b601188634e487b7160e01b600052526000fd5b89601186634e487b7160e01b600052526000fd5b8c604189634e487b7160e01b600052526000fd5b6001810361293c575060509261277e565b6002810361294d575060b49261277e565b80860361295d575060969261277e565b80870361296d575060329261277e565b60050361297c5760fa9261277e565b60649261277e565b9091938282813d8311612a7c575b61299c818361133f565b8101031261025b578a519283019083821067ffffffffffffffff831117612a6a57508a526129c981612681565b82526129d6838201612681565b838301526129e58a820161268f565b8a83015260606129f681830161268f565b908301526080612a0781830161268f565b9083015260a0612a1881830161268f565b9083015260c0612a29818301612681565b9083015260e0612a3a818301612681565b90830152610100612a4c818301612681565b90830152612a5e61012080920161268f565b90820152913880612765565b634e487b7160e01b8152604188528c90fd5b503d612992565b505050505050505050600190612896565b90948582813d8311612abc575b612aab818361133f565b8101031261025b5750519338612738565b503d612aa1565b88513d6000823e3d90fd5b505050505050600190612896565b612af39150873d8911610bd057610bc2818361133f565b38612702565b86513d6000823e3d90fd5b50509050565b509050565b818103929160001380158285131691841216176112df5756fef901ef2975d773074e96476e770b4f22b35403eb89cb79e7d73aa792e46e03e20ac4c1d8dbcaec55a371b5f0ff7f190d20869740216fa5ca0602a510790c00a0a2646970667358221220d8d736f04eea4a532fe8149a92a331fbdf55691bcb183a5894cd998e4bb4ab7264736f6c63430008180033","linkReferences":{}},"methodIdentifiers":{"activeCreatures(uint256)":"dd03893a","advanceEpoch()":"3cf80e6c","currentEpoch()":"76671808","deposit(uint256)":"b6b55f25","epochDuration()":"4ff0876a","factory()":"c45a0155","genePool()":"71a48532","getActiveCreatures()":"e845beae","getCreatureCount()":"56448a19","getEcosystemState()":"b48a6a1c","lastEpochBlock()":"c2362dd5","latestFitness(address)":"d16ff17b","owner()":"8da5cb5b","phase()":"b1c9fe6e","registerCreature(address)":"b4ab303b","setGenePool(address)":"234b1ed5","setXCMRouter(address)":"aa75e165","shareValue(address)":"bec9a55c","shares(address)":"ce7c2ac2","spawnInitialCreatures((uint8,uint8,uint16,uint16,uint16,uint16,uint8,uint8,uint8,uint16)[])":"c50e8bab","stablecoin()":"e9cbd822","totalCapital()":"383032ea","totalFitness()":"7ffba495","totalShares()":"3a98ef39","totalSystemValue()":"04ac9b13","totalYieldGenerated()":"8c825056","withdraw(uint256)":"2e1a7d4d","xcmRouter()":"e1d20600"},"id":31}