{"abi":[{"type":"constructor","inputs":[{"name":"_stablecoin","type":"address","internalType":"address"},{"name":"_factory","type":"address","internalType":"address"},{"name":"_epochDuration","type":"uint256","internalType":"uint256"}],"stateMutability":"nonpayable"},{"type":"function","name":"activeCreatures","inputs":[{"name":"","type":"uint256","internalType":"uint256"}],"outputs":[{"name":"","type":"address","internalType":"address"}],"stateMutability":"view"},{"type":"function","name":"advanceEpoch","inputs":[],"outputs":[],"stateMutability":"nonpayable"},{"type":"function","name":"currentEpoch","inputs":[],"outputs":[{"name":"","type":"uint256","internalType":"uint256"}],"stateMutability":"view"},{"type":"function","name":"deposit","inputs":[{"name":"amount","type":"uint256","internalType":"uint256"}],"outputs":[],"stateMutability":"nonpayable"},{"type":"function","name":"epochDuration","inputs":[],"outputs":[{"name":"","type":"uint256","internalType":"uint256"}],"stateMutability":"view"},{"type":"function","name":"factory","inputs":[],"outputs":[{"name":"","type":"address","internalType":"contract CreatureFactory"}],"stateMutability":"view"},{"type":"function","name":"genePool","inputs":[],"outputs":[{"name":"","type":"address","internalType":"contract GenePool"}],"stateMutability":"view"},{"type":"function","name":"getActiveCreatures","inputs":[],"outputs":[{"name":"","type":"address[]","internalType":"address[]"}],"stateMutability":"view"},{"type":"function","name":"getCreatureCount","inputs":[],"outputs":[{"name":"","type":"uint256","internalType":"uint256"}],"stateMutability":"view"},{"type":"function","name":"getEcosystemState","inputs":[],"outputs":[{"name":"deposits","type":"uint256","internalType":"uint256"},{"name":"epoch","type":"uint256","internalType":"uint256"},{"name":"creatureCount","type":"uint256","internalType":"uint256"},{"name":"yieldGenerated","type":"int256","internalType":"int256"},{"name":"currentPhase","type":"uint8","internalType":"enum Ecosystem.Phase"}],"stateMutability":"view"},{"type":"function","name":"lastEpochBlock","inputs":[],"outputs":[{"name":"","type":"uint256","internalType":"uint256"}],"stateMutability":"view"},{"type":"function","name":"latestFitness","inputs":[{"name":"","type":"address","internalType":"address"}],"outputs":[{"name":"","type":"uint256","internalType":"uint256"}],"stateMutability":"view"},{"type":"function","name":"owner","inputs":[],"outputs":[{"name":"","type":"address","internalType":"address"}],"stateMutability":"view"},{"type":"function","name":"phase","inputs":[],"outputs":[{"name":"","type":"uint8","internalType":"enum Ecosystem.Phase"}],"stateMutability":"view"},{"type":"function","name":"registerCreature","inputs":[{"name":"creature","type":"address","internalType":"address"}],"outputs":[],"stateMutability":"nonpayable"},{"type":"function","name":"setGenePool","inputs":[{"name":"_genePool","type":"address","internalType":"address"}],"outputs":[],"stateMutability":"nonpayable"},{"type":"function","name":"setXCMRouter","inputs":[{"name":"_xcmRouter","type":"address","internalType":"address"}],"outputs":[],"stateMutability":"nonpayable"},{"type":"function","name":"shareValue","inputs":[{"name":"user","type":"address","internalType":"address"}],"outputs":[{"name":"","type":"uint256","internalType":"uint256"}],"stateMutability":"view"},{"type":"function","name":"shares","inputs":[{"name":"","type":"address","internalType":"address"}],"outputs":[{"name":"","type":"uint256","internalType":"uint256"}],"stateMutability":"view"},{"type":"function","name":"spawnInitialCreatures","inputs":[{"name":"dnaList","type":"tuple[]","internalType":"struct ICreature.DNA[]","components":[{"name":"targetChainId","type":"uint8","internalType":"uint8"},{"name":"poolType","type":"uint8","internalType":"uint8"},{"name":"allocationRatio","type":"uint16","internalType":"uint16"},{"name":"rebalanceThreshold","type":"uint16","internalType":"uint16"},{"name":"maxSlippage","type":"uint16","internalType":"uint16"},{"name":"yieldFloor","type":"uint16","internalType":"uint16"},{"name":"riskCeiling","type":"uint8","internalType":"uint8"},{"name":"entryTiming","type":"uint8","internalType":"uint8"},{"name":"exitTiming","type":"uint8","internalType":"uint8"},{"name":"hedgeRatio","type":"uint16","internalType":"uint16"}]}],"outputs":[],"stateMutability":"nonpayable"},{"type":"function","name":"stablecoin","inputs":[],"outputs":[{"name":"","type":"address","internalType":"contract IERC20"}],"stateMutability":"view"},{"type":"function","name":"totalCapital","inputs":[],"outputs":[{"name":"","type":"uint256","internalType":"uint256"}],"stateMutability":"view"},{"type":"function","name":"totalFitness","inputs":[],"outputs":[{"name":"","type":"uint256","internalType":"uint256"}],"stateMutability":"view"},{"type":"function","name":"totalShares","inputs":[],"outputs":[{"name":"","type":"uint256","internalType":"uint256"}],"stateMutability":"view"},{"type":"function","name":"totalSystemValue","inputs":[],"outputs":[{"name":"","type":"uint256","internalType":"uint256"}],"stateMutability":"view"},{"type":"function","name":"totalYieldGenerated","inputs":[],"outputs":[{"name":"","type":"int256","internalType":"int256"}],"stateMutability":"view"},{"type":"function","name":"withdraw","inputs":[{"name":"shareAmount","type":"uint256","internalType":"uint256"}],"outputs":[],"stateMutability":"nonpayable"},{"type":"function","name":"xcmRouter","inputs":[],"outputs":[{"name":"","type":"address","internalType":"contract IYieldSimulator"}],"stateMutability":"view"},{"type":"event","name":"CapitalAllocated","inputs":[{"name":"totalAllocated","type":"uint256","indexed":false,"internalType":"uint256"},{"name":"creatureCount","type":"uint256","indexed":false,"internalType":"uint256"}],"anonymous":false},{"type":"event","name":"CreatureRegistered","inputs":[{"name":"creature","type":"address","indexed":true,"internalType":"address"}],"anonymous":false},{"type":"event","name":"Deposited","inputs":[{"name":"user","type":"address","indexed":true,"internalType":"address"},{"name":"amount","type":"uint256","indexed":false,"internalType":"uint256"},{"name":"sharesIssued","type":"uint256","indexed":false,"internalType":"uint256"}],"anonymous":false},{"type":"event","name":"EpochAdvanced","inputs":[{"name":"epoch","type":"uint256","indexed":true,"internalType":"uint256"},{"name":"phase","type":"uint8","indexed":false,"internalType":"enum Ecosystem.Phase"}],"anonymous":false},{"type":"event","name":"InitialCreaturesSpawned","inputs":[{"name":"count","type":"uint256","indexed":false,"internalType":"uint256"}],"anonymous":false},{"type":"event","name":"Withdrawn","inputs":[{"name":"user","type":"address","indexed":true,"internalType":"address"},{"name":"amount","type":"uint256","indexed":false,"internalType":"uint256"},{"name":"sharesBurned","type":"uint256","indexed":false,"internalType":"uint256"}],"anonymous":false},{"type":"error","name":"SafeERC20FailedOperation","inputs":[{"name":"token","type":"address","internalType":"address"}]}],"bytecode":{"object":"0x608034620000c157601f62002b4938819003918201601f19168301916001600160401b03831184841017620000c557808492606094604052833981010312620000c1576200004d81620000d9565b60406200005d60208401620000d9565b920151600b80546001600160a01b03199081166001600160a01b0394851617909155600a8054909116929093169190911790915560045543600555600d80546001600160a81b0319163360ff60a01b1916179055604051612a5a9081620000ef8239f35b5f80fd5b634e487b7160e01b5f52604160045260245ffd5b51906001600160a01b0382168203620000c15756fe604060808152600480361015610013575f80fd5b5f3560e01c90816304ac9b131461118d578163234b1ed5146110f55781632e1a7d4d14610ed5578163383032ea14610eb75781633a98ef3914610e995781633cf80e6c14610a0c5781634ff0876a146109f057816356448a19146109d257816371a48532146109aa578163766718081461098c5781637ffba4951461096e5781638c825056146109505781638da5cb5b14610928578163aa75e165146108d8578163b1c9fe6e146108af578163b48a6a1c1461085d578163b4ab303b146107b5578163b6b55f25146105ef578163bec9a55c146105b8578163c2362dd51461059a578163c45a015514610572578163c50e8bab146102cd578163ce7c2ac214610293578163d16ff17b14610258578163dd03893a1461021857508063e1d20600146101f0578063e845beae1461017c5763e9cbd82214610151575f80fd5b34610178575f36600319011261017857600b5490516001600160a01b039091168152602090f35b5f80fd5b5034610178575f366003190112610178578051906101a48261019d816113ba565b03836112cc565b8051918291602090602080850191818652845180935285019301915f5b8281106101d057505050500390f35b83516001600160a01b0316855286955093810193928101926001016101c1565b5034610178575f36600319011261017857600c5490516001600160a01b039091168152602090f35b905034610178576020366003190112610178573590600654821015610178576102426020926111ca565b905491519160018060a01b039160031b1c168152f35b90503461017857602036600319011261017857356001600160a01b0381169190829003610178576020915f5260078252805f20549051908152f35b90503461017857602036600319011261017857356001600160a01b0381169190829003610178576020915f525f8252805f20549051908152f35b905034610178576020908160031936011261017857803567ffffffffffffffff91828211610178573660238301121561017857818101359283116101785761014090602436858402850182011161017857600d546001600160a01b0394906103389086163314611213565b60065461052f5785156104ec575f5b868110610379577f604ba8570f53eadef5f7483db73d33dbb87aaeccf42620ac7d1655da21ee91c988888b51908152a1005b6103b19088856101c4865f8e8c600a541690828d89028b0160035492519a8b988997635abb48f360e01b895260ff928391850161139d565b169088015260448e826103c585840161139d565b169089015260646103d78185016113ab565b9161ffff809316908a0152608490826103f18387016113ab565b16908a015260a490826104058387016113ab565b16908a015260c490826104198387016113ab565b16908a015260e4908361042d83870161139d565b16908a0152610104908361044283870161139d565b16908a01526101249261045684860161139d565b16908901526104696101448094016113ab565b169087015285015282610164850152826101848501526101a48401525af19182156104e2575f926104a7575b506104a1600192611308565b01610347565b91508882813d83116104db575b6104be81836112cc565b81010312610178576104a16104d4600193611389565b9250610495565b503d6104b4565b8a513d5f823e3d90fd5b875162461bcd60e51b8152808401889052601960248201527f45636f73797374656d3a20656d70747920646e61206c697374000000000000006044820152606490fd5b875162461bcd60e51b8152808401889052601a60248201527f45636f73797374656d3a20616c726561647920737061776e65640000000000006044820152606490fd5b8234610178575f36600319011261017857600a5490516001600160a01b039091168152602090f35b8234610178575f366003190112610178576020906005549051908152f35b9050346101785760203660031901126101785735906001600160a01b0382168203610178576105e860209261134a565b9051908152f35b905034610178576020918260031936011261017857813591821561077457600b5482516323b872dd60e01b5f90815233845230602452604486905290916001600160a01b031690869060648180855af160015f5114811615610755575b8285525f6060521561074357505060015480158015610739575b1561071d575082905b81156106da57507f73a19dd210f1a7f902193214c0ee91dd35ee5b4d920cba8d519eca65a7b488ca9293335f525f8152825f206106ad8382546112fb565b90556106bb826001546112fb565b6001556106ca856002546112fb565b60025582519485528401523392a2005b825162461bcd60e51b8152908101859052601c60248201527f45636f73797374656d3a206465706f73697420746f6f20736d616c6c000000006044820152606490fd5b61072a610733918561125f565b60025490611286565b9061066f565b5060025415610666565b602492635274afe760e01b8352820152fd5b600181151661076b57813b15153d15161661064c565b823d5f823e3d90fd5b83606492519162461bcd60e51b8352820152601760248201527f45636f73797374656d3a207a65726f206465706f7369740000000000000000006044820152fd5b905034610178576020366003190112610178576001600160a01b038135818116939092918484036101785760095416330361081a57836107f484611308565b7f30a4ff863e8fc43467f3e15ff91b2a16b1b1ded29edee5b3087a2cddb274d8cd5f80a2005b906020606492519162461bcd60e51b8352820152601e60248201527f45636f73797374656d3a2063616c6c6572206e6f742067656e65506f6f6c00006044820152fd5b8234610178575f3660031901126101785760a0906108ad61087c61141e565b9160035490600654600e5491600d549381519687526020870152850152606084015260ff6080840191851c166111a9565bf35b8234610178575f366003190112610178576020906108ad60ff600d5460a01c16915180926111a9565b3461017857602036600319011261017857356001600160a01b03818116918290036101785761090c90600d54163314611213565b6bffffffffffffffffffffffff60a01b600c541617600c555f80f35b8234610178575f36600319011261017857600d5490516001600160a01b039091168152602090f35b8234610178575f36600319011261017857602090600e549051908152f35b8234610178575f366003190112610178576020906008549051908152f35b8234610178575f366003190112610178576020906003549051908152f35b8234610178575f3660031901126101785760095490516001600160a01b039091168152602090f35b8234610178575f366003190112610178576020906006549051908152f35b8234610178575f36600319011261017857602091549051908152f35b905034610178575f36600319011261017857600d805460ff60a09160a01c166005811015610e865780610c01575050610a496005548354906112fb565b4310610bbe57805460ff60a01b19908116600160a01b1782556003805490935f198214610bab57600191828391019586600355875190600182525f805160206129e5833981519152978860208094a25f925b610abf575b5050505050600160a11b908254161790556020600354925160028152a2005b600654831015610ba6578282610ad586956111ca565b90548c51634136aa3560e01b8152976001600160a01b03939289928391881b1c85165afa8015610b9c5787965f91610b6f575b50610b18575b5084019293610a9b565b909450610b24856111ca565b905490831b1c1693843b15610178575f8095858c51809881936306f4f6fb60e31b83525af19081156104e25786958692610b60575b5090610b0e565b610b69906112a4565b5f610b59565b610b8f9150853d8711610b95575b610b8781836112cc565b8101906118aa565b5f610b08565b503d610b7d565b8b513d5f823e3d90fd5b610aa0565b601190634e487b7160e01b5f525260245ffd5b506020606492519162461bcd60e51b8352820152601c60248201527f45636f73797374656d3a2065706f6368206e6f7420656c6170736564000000006044820152fd5b909391929060028103610dc55750610c17612585565b5f935f5b600654811015610d7857610c2e816111ca565b90548551634136aa3560e01b81526001600160a01b039260039260209291839183918a918391881b1c88165afa918215610d6e575f92610d51575b5050610c7a575b5050600101610c1b565b81610c868499946111ca565b905490831b1c16803b15610178575f809187895180948193634641257d60e01b83525af18015610d4757918693918693610d38575b50610cc58a6111ca565b9054911b1c168651928380926310b793a760e21b82525afa908115610d2e575f91610d00575b50610cf890600192612424565b95905f610c70565b90508281813d8311610d27575b610d1781836112cc565b8101031261017857516001610ceb565b503d610d0d565b85513d5f823e3d90fd5b610d41906112a4565b5f610cbb565b87513d5f823e3d90fd5b610d679250803d10610b9557610b8781836112cc565b5f80610c69565b88513d5f823e3d90fd5b50505091610d8890600e54612424565b600e55610d9361141e565b600255805460ff60a01b1916600360a01b1790556003805491519081525f805160206129e583398151915290602090a2005b9193509060038103610e0857506020905f805160206129e583398151915292610dec61216b565b805460ff60a01b1916600160a21b1790556003549351908152a2005b8103610e435750610e176118ee565b805460ff60a01b191690554360055560035490515f81525f805160206129e583398151915290602090a2005b606490602084519162461bcd60e51b8352820152601860248201527f45636f73797374656d3a20696e76616c696420706861736500000000000000006044820152fd5b602184634e487b7160e01b5f525260245ffd5b8234610178575f366003190112610178576020906001549051908152f35b8234610178575f366003190112610178576020906002549051908152f35b8234610178576020908160031936011261017857823580156110b257335f525f835280825f20541061106f57610f1e610f15610f0f61141e565b8361125f565b60015490611286565b600b5483516370a0823160e01b815230878201529194916001600160a01b039183908290602490829086165afa908115610d2e575f91611042575b5080861161102a575b50335f525f8252835f20610f778482546112ee565b9055610f85836001546112ee565b600155610f9985610f9461141e565b6112ee565b600255600b541683519063a9059cbb60e01b5f5233875285602452825f60448180855af160015f5114811615611014575b828652156110005750507f92ccf450a286a957af52509bc1c9939d1a6a481783e142e41e2499f0bb66ebc69394506106ca61141e565b635274afe760e01b82528187015260249150fd5b600181151661076b57813b15153d151616610fca565b61103761103c91876112ee565b611547565b86610f62565b90508281813d8311611068575b61105981836112cc565b81010312610178575187610f59565b503d61104f565b815162461bcd60e51b8152808501849052601e60248201527f45636f73797374656d3a20696e73756666696369656e742073686172657300006044820152606490fd5b815162461bcd60e51b8152808501849052601860248201527f45636f73797374656d3a207a65726f20776974686472617700000000000000006044820152606490fd5b8234610178576020366003190112610178576001600160a01b038235818116939192908490036101785761112e83600d54163314611213565b60095492831661114a5750506001600160a01b03191617600955005b906020606492519162461bcd60e51b8352820152601f60248201527f45636f73797374656d3a2067656e65506f6f6c20616c726561647920736574006044820152fd5b8234610178575f366003190112610178576020906105e861141e565b9060058210156111b65752565b634e487b7160e01b5f52602160045260245ffd5b6006548110156111ff5760065f527ff652222313e28459528d920b65115c16c04f3efc82aaedc97be59f3f377c0d3f01905f90565b634e487b7160e01b5f52603260045260245ffd5b1561121a57565b60405162461bcd60e51b815260206004820152601b60248201527f45636f73797374656d3a2063616c6c6572206e6f74206f776e657200000000006044820152606490fd5b8181029291811591840414171561127257565b634e487b7160e01b5f52601160045260245ffd5b8115611290570490565b634e487b7160e01b5f52601260045260245ffd5b67ffffffffffffffff81116112b857604052565b634e487b7160e01b5f52604160045260245ffd5b90601f8019910116810190811067ffffffffffffffff8211176112b857604052565b9190820391821161127257565b9190820180921161127257565b600654680100000000000000008110156112b85780600161132c92016006556111ca565b60018060a09493941b038084549260031b9316831b921b1916179055565b60015480156113835761137b6113809261136261141e565b9060018060a01b03165f525f60205260405f205461125f565b611286565b90565b50505f90565b51906001600160a01b038216820361017857565b359060ff8216820361017857565b359061ffff8216820361017857565b6006549081815260208091019160065f527ff652222313e28459528d920b65115c16c04f3efc82aaedc97be59f3f377c0d3f915f905b8282106113fe575050505090565b83546001600160a01b0316855293840193600193840193909101906113f0565b60018060a01b0380600b541660408051926370a0823160e01b93848152600430600483015260209160249083816024818a5afa90811561153c575f9161150f575b50969594939291905f96600654965b8789106114815750505050505050505090565b909192939495969798866114948b6111ca565b9190548a519286845260031b1c168682015286818681865afa908115611505575f916114d7575b506114c8906001926112fb565b9901979695949392919061146e565b90508681813d83116114fe575b6114ee81836112cc565b81010312610178575160016114bb565b503d6114e4565b89513d5f823e3d90fd5b90508381813d8311611535575b61152681836112cc565b8101031261017857515f61145f565b503d61151c565b6040513d5f823e3d90fd5b5f915f60069260065460018060a01b0392600b9184600b54165b818310611820575050508515611818575f93825b86548610156116c257848354169061158c876111ca565b9054876003604092835196879384926370a0823160e01b8452600497851b1c1686830152602097889160249586915afa9687156116b8575f97611688575b50508515611672576115e08d61137b888c61125f565b95808711611680575b5085156116725789906115fb8c6111ca565b9054911b1c1692833b15610178575f9186918385519687948593630962af4960e11b85528401525af1908115611669575061165a575b508181111561164f57600191611646916112ee565b955b0194611575565b505060015f95611648565b611663906112a4565b5f611631565b513d5f823e3d90fd5b505050509560019150611648565b95505f6115e9565b9080929750813d83116116b1575b6116a081836112cc565b810103126101785751945f806115ca565b503d611696565b84513d5f823e3d90fd5b9395945095509050816116d6575b50505050565b909192935f925b845484101561180d5780156117fd5785835416906116fa856111ca565b905460039389604092835192839283926370a0823160e01b84526004978a1b1c1686830152602092839160249586915afa9182156116b857908c92915f926117cc575b505080156117bd57808611156117b557955b6117588a6111ca565b9054911b1c1692833b15610178575f9186918385519687948593630962af4960e11b85528401525af19081156116695750916001939161179d936117a6575b506112ee565b935b01926116dd565b6117af906112a4565b5f611797565b50849561174f565b5050505050936001915061179f565b8193508092503d83116117f6575b6117e481836112cc565b81010312610178578a90515f8061173d565b503d6117da565b5093505050505b5f8080806116d0565b509350505050611804565b505050915050565b90919761182c896111ca565b905490876040928351926370a0823160e01b845260031b1c16600482015260208082602481885afa92831561166957505f9261187a575b5050611871906001926112fb565b98019190611561565b90809250813d83116118a3575b61189181836112cc565b81010312610178575181611871611863565b503d611887565b90816020910312610178575180151581036101785790565b67ffffffffffffffff81116112b85760051b60200190565b80518210156111ff5760209160051b010190565b60065480156120e6575f5b818110611f875750600b546040516370a0823160e01b815230600482015290602090829060249082906001600160a01b03165afa90811561153c575f91611f55575b508015611f51575f60085560016003541115611e165761195a826118c2565b61196760405191826112cc565b828152601f19611976846118c2565b013660208301375f905f5b848110611d55575081611ae95750509061199b8183611286565b8015155f5b8381106119d5575050505f80516020612a05833981519152916040915b82519182526020820152a16119d061141e565b600255565b8180611a83575b6119e9575b6001016119a0565b600b54611a1c9084906001600160a01b0316611a04846111ca565b905460039190911b1c6001600160a01b03169061243f565b611a25816111ca565b905460039190911b1c6001600160a01b031690813b15610178575f8092602460405180958193632b0142a760e01b83528960048401525af191821561153c57600192611a74575b5090506119e1565b611a7d906112a4565b5f611a6c565b5060046020611a91836111ca565b9054604051634136aa3560e01b81529384929091839160031b1c6001600160a01b03165afa90811561153c575f91611aca575b506119dc565b611ae3915060203d602011610b9557610b8781836112cc565b5f611ac4565b5f915f5b858110611c3557505050818110611b17575b506040905f80516020612a05833981519152926119bd565b611b2190826112ee565b915f5b818110611b33575b5091611aff565b60046020611b40836111ca565b9054604051634136aa3560e01b81529384929091839160031b1c6001600160a01b03165afa90811561153c575f91611c16575b50611b8057600101611b24565b600b54919291611ba89190611ba39086906001600160a01b0316611a04846111ca565b6111ca565b905460039190911b1c6001600160a01b031692833b15610178575f93602485926040519687938492632b0142a760e01b845260048401525af191821561153c575f80516020612a0583398151915293604093611c07575b509091611b2c565b611c10906112a4565b5f611bff565b611c2f915060203d602011610b9557610b8781836112cc565b5f611b73565b60046020611c42836111ca565b9054604051634136aa3560e01b81529384929091839160031b1c6001600160a01b03165afa90811561153c575f91611d36575b5015611d2e57611c938261137b611c8c84876118da565b518861125f565b80611ca4575b506001905b01611aed565b9093611cbe8260018060a01b03600b5416611a04886111ca565b611cc7856111ca565b905460039190911b1c6001600160a01b031691823b15610178575f8093602460405180968193632b0142a760e01b83528660048401525af191821561153c57600193611d1893611d1f575b506112fb565b9390611c99565b611d28906112a4565b5f611d12565b600190611c9e565b611d4f915060203d602011610b9557610b8781836112cc565b5f611c75565b9160046020611d63856111ca565b9054604051634136aa3560e01b81529384929091839160031b1c6001600160a01b03165afa90811561153c575f91611df7575b5015611dee57611dde600191611dab856111ca565b848060a01b0391549060031b1c165f52600760205260405f2054908115611de6575b81611dd887876118da565b526112fb565b925b01611981565b839150611dcd565b91600190611de0565b611e10915060203d602011610b9557610b8781836112cc565b5f611d96565b90611e218183611286565b8015155f5b838110611e55575050505f80516020612a058339815191529160409182519182526020820152a16119d061141e565b8180611eeb575b611e69575b600101611e26565b600b54611e849084906001600160a01b0316611a04846111ca565b611e8d816111ca565b905460039190911b1c6001600160a01b031690813b15610178575f8092602460405180958193632b0142a760e01b83528960048401525af191821561153c57600192611edc575b509050611e61565b611ee5906112a4565b5f611ed4565b5060046020611ef9836111ca565b9054604051634136aa3560e01b81529384929091839160031b1c6001600160a01b03165afa90811561153c575f91611f32575b50611e5c565b611f4b915060203d602011610b9557610b8781836112cc565b5f611f2c565b5050565b90506020813d602011611f7f575b81611f70602093836112cc565b8101031261017857515f61193b565b3d9150611f63565b600b546001600160a01b03939291908416611fa1826111ca565b905495806003604098895195869485926370a0823160e01b8452600497851b1c1686830152602091829160249889915afa9384156104e2575f946120b7575b50831515908161205d575b50612002575b5050505050600191929350016118f9565b61200b866111ca565b9054911b1c1692833b15610178575f928389519586948593630962af4960e11b85528401525af18015610d2e5760019394955061204e575b849392818080611ff1565b612057906112a4565b5f612043565b905084818461206b8a6111ca565b905490861b1c168c5192838092634136aa3560e01b82525afa918215610b9c575f9261209a575b50505f611feb565b6120b09250803d10610b9557610b8781836112cc565b5f80612092565b9080945081813d83116120df575b6120cf81836112cc565b810103126101785751925f611fe0565b503d6120c5565b50565b60209081818403126101785780519067ffffffffffffffff821161017857019180601f8401121561017857825161211f816118c2565b9361212d60405195866112cc565b818552838086019260051b820101928311610178578301905b828210612154575050505090565b83809161216084611389565b815201910190612146565b60066002600654106120e65760018060a01b0391600983600954166003946003549560409384516228932960e41b81525f816004968860048301528183816121b5604482016113ba565b60249f602483015203925af190811561241a575f91612400575b506008965f6008555f5b8954811015612283578a9086855416876121f2836111ca565b905490891b1c16908a518094819363bbcf535160e01b83528c83015260209586935afa9081156104e2575f91612255575b5061224d9060076001948a612237866111ca565b9054908c1b1c165f5252808b5f20558b546112fb565b8a55016121d9565b90508281813d831161227c575b61226c81836112cc565b8101031261017857516001612223565b503d612262565b5092509650506004949396509190915f83600954168851968780926393a58ccb60e01b82525afa948515610d47575f956123dc575b505f5b855181101561234f57836122cf82886118da565b511690813b15610178575f8092858b51809581936341c0e1b560e01b83525af191821561150557600192612340575b508461230a82896118da565b51165f52600760208181526123238b5f205489546112ee565b885586612330848b6118da565b51165f52525f89812055016122bb565b612349906112a4565b5f6122fe565b50949350509350506006545f6006558061239a575b505f5b815181101561238e578061238885612381600194866118da565b5116611308565b01612367565b505090506119d061141e565b60065f527ff652222313e28459528d920b65115c16c04f3efc82aaedc97be59f3f377c0d3f908101905b8181106123d15750612364565b5f81556001016123c4565b6123f99195503d805f833e6123f181836112cc565b8101906120e9565b935f6122b8565b61241491503d805f833e6123f181836112cc565b5f6121cf565b86513d5f823e3d90fd5b9190915f838201938412911290801582169115161761127257565b60405163095ea7b360e01b5f8181526001600160a01b03948516600481905260248790529195929060209060448180885af160015f511481161561255b575b8160405215612490575b505050505050565b855f52816004525f60245260205f60448180885af160015f511481161561253c575b81604052156125255750604051945f5260045260245260205f60448180855af160015f5114811615612506575b83604052156124f057808080612488565b635274afe760e01b835216600482015260249150fd5b600181151661251c57813b15153d1516166124df565b833d5f823e3d90fd5b635274afe760e01b81528385166004820152602490fd5b600181151661255257843b15153d1516166124b2565b503d5f823e3d90fd5b843b15153d15161661247e565b519060ff8216820361017857565b519061ffff8216820361017857565b600c80546001600160a01b039291908316156129c7575f5b6006548110156129c1576125b0816111ca565b905460408051634136aa3560e01b81526020939192600392831b1c8881169160049086818381875afa90811561241a575f916129a4575b5015612996578988541693855192636388065f60e11b8452848385015260249780858a818a5afa948515610d6e575f95612967575b508415612956578751637d2f2c4f60e01b815291610140808487818b5afa9384156104e2575f94612858575b505060ff9081838501511680155f146127ff57506078925b6080600561ffff82880151160496548c51928301934485526bffffffffffffffffffffffff199060601b168d840152605490818401528252810181811067ffffffffffffffff8211176127ed578b5251902060c0939093015160969116818102929181159184041417156127db57600193848301918284116127c95782156127b757916126f661270094926127059796946129cc565b9206931c906129cc565b612424565b6101f3198082126127af575b50828102925f8112600160ff1b83141661279d5783050361278b5789600b541691843b15610178575f94612710869260649589519a8b9889976314d8f0d760e01b89528801528601520560448401525af19081156116695750906001929161277c575b505b0161259d565b612785906112a4565b5f612774565b60118691634e487b7160e01b5f52525ffd5b87601184634e487b7160e01b5f52525ffd5b90505f612711565b8b601288634e487b7160e01b5f52525ffd5b8b601188634e487b7160e01b5f52525ffd5b89601186634e487b7160e01b5f52525ffd5b8c604189634e487b7160e01b5f52525ffd5b600181036128105750605092612660565b60028103612821575060b492612660565b8086036128315750609692612660565b8087036128415750603292612660565b6005036128505760fa92612660565b606492612660565b908092945081813d831161294f575b61287181836112cc565b8101031261017857895191820182811067ffffffffffffffff82111761293d578a5261289c81612568565b82526128a9838201612568565b838301526128b88a8201612576565b8a83015260606128c9818301612576565b9083015260806128da818301612576565b9083015260a06128eb818301612576565b9083015260c06128fc818301612568565b9083015260e061290d818301612568565b9083015261010061291f818301612568565b90830152612931610120809201612576565b90820152915f80612648565b8b604188634e487b7160e01b5f52525ffd5b503d612867565b505050505050505050600190612776565b9080955081813d831161298f575b61297f81836112cc565b810103126101785751935f61261c565b503d612975565b505050505050600190612776565b6129bb9150873d8911610b9557610b8781836112cc565b5f6125e7565b50509050565b509050565b81810392915f1380158285131691841216176112725756fef901ef2975d773074e96476e770b4f22b35403eb89cb79e7d73aa792e46e03e20ac4c1d8dbcaec55a371b5f0ff7f190d20869740216fa5ca0602a510790c00a0a2646970667358221220d63eb0d587fb54c91f3c88a3913817ba4c5c6648b11b089260101dae783ed47164736f6c63430008180033","linkReferences":{}},"methodIdentifiers":{"activeCreatures(uint256)":"dd03893a","advanceEpoch()":"3cf80e6c","currentEpoch()":"76671808","deposit(uint256)":"b6b55f25","epochDuration()":"4ff0876a","factory()":"c45a0155","genePool()":"71a48532","getActiveCreatures()":"e845beae","getCreatureCount()":"56448a19","getEcosystemState()":"b48a6a1c","lastEpochBlock()":"c2362dd5","latestFitness(address)":"d16ff17b","owner()":"8da5cb5b","phase()":"b1c9fe6e","registerCreature(address)":"b4ab303b","setGenePool(address)":"234b1ed5","setXCMRouter(address)":"aa75e165","shareValue(address)":"bec9a55c","shares(address)":"ce7c2ac2","spawnInitialCreatures((uint8,uint8,uint16,uint16,uint16,uint16,uint8,uint8,uint8,uint16)[])":"c50e8bab","stablecoin()":"e9cbd822","totalCapital()":"383032ea","totalFitness()":"7ffba495","totalShares()":"3a98ef39","totalSystemValue()":"04ac9b13","totalYieldGenerated()":"8c825056","withdraw(uint256)":"2e1a7d4d","xcmRouter()":"e1d20600"},"id":35}