{"abi":[{"type":"constructor","inputs":[{"name":"_stablecoin","type":"address","internalType":"address"},{"name":"_factory","type":"address","internalType":"address"},{"name":"_epochDuration","type":"uint256","internalType":"uint256"}],"stateMutability":"nonpayable"},{"type":"function","name":"activeCreatures","inputs":[{"name":"","type":"uint256","internalType":"uint256"}],"outputs":[{"name":"","type":"address","internalType":"address"}],"stateMutability":"view"},{"type":"function","name":"advanceEpoch","inputs":[],"outputs":[],"stateMutability":"nonpayable"},{"type":"function","name":"currentEpoch","inputs":[],"outputs":[{"name":"","type":"uint256","internalType":"uint256"}],"stateMutability":"view"},{"type":"function","name":"deposit","inputs":[{"name":"amount","type":"uint256","internalType":"uint256"}],"outputs":[],"stateMutability":"nonpayable"},{"type":"function","name":"epochDuration","inputs":[],"outputs":[{"name":"","type":"uint256","internalType":"uint256"}],"stateMutability":"view"},{"type":"function","name":"factory","inputs":[],"outputs":[{"name":"","type":"address","internalType":"contract CreatureFactory"}],"stateMutability":"view"},{"type":"function","name":"genePool","inputs":[],"outputs":[{"name":"","type":"address","internalType":"contract GenePool"}],"stateMutability":"view"},{"type":"function","name":"getActiveCreatures","inputs":[],"outputs":[{"name":"","type":"address[]","internalType":"address[]"}],"stateMutability":"view"},{"type":"function","name":"getCreatureCount","inputs":[],"outputs":[{"name":"","type":"uint256","internalType":"uint256"}],"stateMutability":"view"},{"type":"function","name":"getEcosystemState","inputs":[],"outputs":[{"name":"deposits","type":"uint256","internalType":"uint256"},{"name":"epoch","type":"uint256","internalType":"uint256"},{"name":"creatureCount","type":"uint256","internalType":"uint256"},{"name":"yieldGenerated","type":"int256","internalType":"int256"},{"name":"currentPhase","type":"uint8","internalType":"enum Ecosystem.Phase"}],"stateMutability":"view"},{"type":"function","name":"lastEpochBlock","inputs":[],"outputs":[{"name":"","type":"uint256","internalType":"uint256"}],"stateMutability":"view"},{"type":"function","name":"latestFitness","inputs":[{"name":"","type":"address","internalType":"address"}],"outputs":[{"name":"","type":"uint256","internalType":"uint256"}],"stateMutability":"view"},{"type":"function","name":"owner","inputs":[],"outputs":[{"name":"","type":"address","internalType":"address"}],"stateMutability":"view"},{"type":"function","name":"phase","inputs":[],"outputs":[{"name":"","type":"uint8","internalType":"enum Ecosystem.Phase"}],"stateMutability":"view"},{"type":"function","name":"registerCreature","inputs":[{"name":"creature","type":"address","internalType":"address"}],"outputs":[],"stateMutability":"nonpayable"},{"type":"function","name":"setGenePool","inputs":[{"name":"_genePool","type":"address","internalType":"address"}],"outputs":[],"stateMutability":"nonpayable"},{"type":"function","name":"shareValue","inputs":[{"name":"user","type":"address","internalType":"address"}],"outputs":[{"name":"","type":"uint256","internalType":"uint256"}],"stateMutability":"view"},{"type":"function","name":"shares","inputs":[{"name":"","type":"address","internalType":"address"}],"outputs":[{"name":"","type":"uint256","internalType":"uint256"}],"stateMutability":"view"},{"type":"function","name":"spawnInitialCreatures","inputs":[{"name":"dnaList","type":"tuple[]","internalType":"struct ICreature.DNA[]","components":[{"name":"targetChainId","type":"uint8","internalType":"uint8"},{"name":"poolType","type":"uint8","internalType":"uint8"},{"name":"allocationRatio","type":"uint16","internalType":"uint16"},{"name":"rebalanceThreshold","type":"uint16","internalType":"uint16"},{"name":"maxSlippage","type":"uint16","internalType":"uint16"},{"name":"yieldFloor","type":"uint16","internalType":"uint16"},{"name":"riskCeiling","type":"uint8","internalType":"uint8"},{"name":"entryTiming","type":"uint8","internalType":"uint8"},{"name":"exitTiming","type":"uint8","internalType":"uint8"},{"name":"hedgeRatio","type":"uint16","internalType":"uint16"}]}],"outputs":[],"stateMutability":"nonpayable"},{"type":"function","name":"stablecoin","inputs":[],"outputs":[{"name":"","type":"address","internalType":"contract IERC20"}],"stateMutability":"view"},{"type":"function","name":"totalCapital","inputs":[],"outputs":[{"name":"","type":"uint256","internalType":"uint256"}],"stateMutability":"view"},{"type":"function","name":"totalFitness","inputs":[],"outputs":[{"name":"","type":"uint256","internalType":"uint256"}],"stateMutability":"view"},{"type":"function","name":"totalShares","inputs":[],"outputs":[{"name":"","type":"uint256","internalType":"uint256"}],"stateMutability":"view"},{"type":"function","name":"totalSystemValue","inputs":[],"outputs":[{"name":"","type":"uint256","internalType":"uint256"}],"stateMutability":"view"},{"type":"function","name":"totalYieldGenerated","inputs":[],"outputs":[{"name":"","type":"int256","internalType":"int256"}],"stateMutability":"view"},{"type":"function","name":"withdraw","inputs":[{"name":"shareAmount","type":"uint256","internalType":"uint256"}],"outputs":[],"stateMutability":"nonpayable"},{"type":"event","name":"CapitalAllocated","inputs":[{"name":"totalAllocated","type":"uint256","indexed":false,"internalType":"uint256"},{"name":"creatureCount","type":"uint256","indexed":false,"internalType":"uint256"}],"anonymous":false},{"type":"event","name":"CreatureRegistered","inputs":[{"name":"creature","type":"address","indexed":true,"internalType":"address"}],"anonymous":false},{"type":"event","name":"Deposited","inputs":[{"name":"user","type":"address","indexed":true,"internalType":"address"},{"name":"amount","type":"uint256","indexed":false,"internalType":"uint256"},{"name":"sharesIssued","type":"uint256","indexed":false,"internalType":"uint256"}],"anonymous":false},{"type":"event","name":"EpochAdvanced","inputs":[{"name":"epoch","type":"uint256","indexed":true,"internalType":"uint256"},{"name":"phase","type":"uint8","indexed":false,"internalType":"enum Ecosystem.Phase"}],"anonymous":false},{"type":"event","name":"InitialCreaturesSpawned","inputs":[{"name":"count","type":"uint256","indexed":false,"internalType":"uint256"}],"anonymous":false},{"type":"event","name":"Withdrawn","inputs":[{"name":"user","type":"address","indexed":true,"internalType":"address"},{"name":"amount","type":"uint256","indexed":false,"internalType":"uint256"},{"name":"sharesBurned","type":"uint256","indexed":false,"internalType":"uint256"}],"anonymous":false},{"type":"error","name":"SafeERC20FailedOperation","inputs":[{"name":"token","type":"address","internalType":"address"}]}],"bytecode":{"object":"0x608034620000c157601f6200263738819003918201601f19168301916001600160401b03831184841017620000c557808492606094604052833981010312620000c1576200004d81620000d9565b60406200005d60208401620000d9565b920151600b80546001600160a01b03199081166001600160a01b0394851617909155600a8054909116929093169190911790915560045543600555600c80546001600160a81b0319163360ff60a01b19161790556040516125489081620000ef8239f35b5f80fd5b634e487b7160e01b5f52604160045260245ffd5b51906001600160a01b0382168203620000c15756fe604060808152600480361015610013575f80fd5b5f3560e01c90816304ac9b13146110f7578163234b1ed51461105f5781632e1a7d4d14610e3f578163383032ea14610e215781633a98ef3914610e035781633cf80e6c1461097e5781634ff0876a1461096257816356448a191461094457816371a485321461091c57816376671808146108fe5781637ffba495146108e05781638c825056146108c25781638da5cb5b1461089a578163b1c9fe6e14610871578163b48a6a1c1461081f578163b4ab303b14610777578163b6b55f25146105b1578163bec9a55c1461057a578163c2362dd51461055c578163c45a015514610534578163c50e8bab1461028f578163ce7c2ac214610255578163d16ff17b1461021a578163dd03893a146101da57508063e845beae146101665763e9cbd8221461013b575f80fd5b34610162575f36600319011261016257600b5490516001600160a01b039091168152602090f35b5f80fd5b5034610162575f3660031901126101625780519061018e8261018781611324565b0383611236565b8051918291602090602080850191818652845180935285019301915f5b8281106101ba57505050500390f35b83516001600160a01b0316855286955093810193928101926001016101ab565b90503461016257602036600319011261016257359060065482101561016257610204602092611134565b905491519160018060a01b039160031b1c168152f35b90503461016257602036600319011261016257356001600160a01b0381169190829003610162576020915f5260078252805f20549051908152f35b90503461016257602036600319011261016257356001600160a01b0381169190829003610162576020915f525f8252805f20549051908152f35b905034610162576020908160031936011261016257803567ffffffffffffffff91828211610162573660238301121561016257818101359283116101625761014090602436858402850182011161016257600c546001600160a01b0394906102fa908616331461117d565b6006546104f15785156104ae575f5b86811061033b577f604ba8570f53eadef5f7483db73d33dbb87aaeccf42620ac7d1655da21ee91c988888b51908152a1005b6103739088856101c4865f8e8c600a541690828d89028b0160035492519a8b988997635abb48f360e01b895260ff9283918501611307565b169088015260448e82610387858401611307565b16908901526064610399818501611315565b9161ffff809316908a0152608490826103b3838701611315565b16908a015260a490826103c7838701611315565b16908a015260c490826103db838701611315565b16908a015260e490836103ef838701611307565b16908a01526101049083610404838701611307565b16908a015261012492610418848601611307565b169089015261042b610144809401611315565b169087015285015282610164850152826101848501526101a48401525af19182156104a4575f92610469575b50610463600192611272565b01610309565b91508882813d831161049d575b6104808183611236565b81010312610162576104636104966001936112f3565b9250610457565b503d610476565b8a513d5f823e3d90fd5b875162461bcd60e51b8152808401889052601960248201527f45636f73797374656d3a20656d70747920646e61206c697374000000000000006044820152606490fd5b875162461bcd60e51b8152808401889052601a60248201527f45636f73797374656d3a20616c726561647920737061776e65640000000000006044820152606490fd5b8234610162575f36600319011261016257600a5490516001600160a01b039091168152602090f35b8234610162575f366003190112610162576020906005549051908152f35b9050346101625760203660031901126101625735906001600160a01b0382168203610162576105aa6020926112b4565b9051908152f35b905034610162576020918260031936011261016257813591821561073657600b5482516323b872dd60e01b5f90815233845230602452604486905290916001600160a01b031690869060648180855af160015f5114811615610717575b8285525f60605215610705575050600154801580156106fb575b156106df575082905b811561069c57507f73a19dd210f1a7f902193214c0ee91dd35ee5b4d920cba8d519eca65a7b488ca9293335f525f8152825f2061066f838254611265565b905561067d82600154611265565b60015561068c85600254611265565b60025582519485528401523392a2005b825162461bcd60e51b8152908101859052601c60248201527f45636f73797374656d3a206465706f73697420746f6f20736d616c6c000000006044820152606490fd5b6106ec6106f591856111c9565b600254906111f0565b90610631565b5060025415610628565b602492635274afe760e01b8352820152fd5b600181151661072d57813b15153d15161661060e565b823d5f823e3d90fd5b83606492519162461bcd60e51b8352820152601760248201527f45636f73797374656d3a207a65726f206465706f7369740000000000000000006044820152fd5b905034610162576020366003190112610162576001600160a01b03813581811693909291848403610162576009541633036107dc57836107b684611272565b7f30a4ff863e8fc43467f3e15ff91b2a16b1b1ded29edee5b3087a2cddb274d8cd5f80a2005b906020606492519162461bcd60e51b8352820152601e60248201527f45636f73797374656d3a2063616c6c6572206e6f742067656e65506f6f6c00006044820152fd5b8234610162575f3660031901126101625760a09061086f61083e611388565b9160035490600654600d5491600c549381519687526020870152850152606084015260ff6080840191851c16611113565bf35b8234610162575f3660031901126101625760209061086f60ff600c5460a01c1691518092611113565b8234610162575f36600319011261016257600c5490516001600160a01b039091168152602090f35b8234610162575f36600319011261016257602090600d549051908152f35b8234610162575f366003190112610162576020906008549051908152f35b8234610162575f366003190112610162576020906003549051908152f35b8234610162575f3660031901126101625760095490516001600160a01b039091168152602090f35b8234610162575f366003190112610162576020906006549051908152f35b8234610162575f36600319011261016257602091549051908152f35b905034610162575f36600319011261016257600c805460ff60a09160a01c166005811015610df05780610b735750506109bb600554835490611265565b4310610b3057805460ff60a01b19908116600160a01b1782556003805490935f198214610b1d57600191828391019586600355875190600182525f805160206124d3833981519152978860208094a25f925b610a31575b5050505050600160a11b908254161790556020600354925160028152a2005b600654831015610b18578282610a478695611134565b90548c51634136aa3560e01b8152976001600160a01b03939289928391881b1c85165afa8015610b0e5787965f91610ae1575b50610a8a575b5084019293610a0d565b909450610a9685611134565b905490831b1c1693843b15610162575f8095858c51809881936306f4f6fb60e31b83525af19081156104a45786958692610ad2575b5090610a80565b610adb9061120e565b5f610acb565b610b019150853d8711610b07575b610af98183611236565b810190611814565b5f610a7a565b503d610aef565b8b513d5f823e3d90fd5b610a12565b601190634e487b7160e01b5f525260245ffd5b506020606492519162461bcd60e51b8352820152601c60248201527f45636f73797374656d3a2065706f6368206e6f7420656c6170736564000000006044820152fd5b909391929060028103610d2f57505f935f5b600654811015610ce257610b9881611134565b90548551634136aa3560e01b81526001600160a01b039260039260209291839183918a918391881b1c88165afa918215610cd8575f92610cbb575b5050610be4575b5050600101610b85565b81610bf0849994611134565b905490831b1c16803b15610162575f809187895180948193634641257d60e01b83525af18015610cb157918693918693610ca2575b50610c2f8a611134565b9054911b1c168651928380926310b793a760e21b82525afa908115610c98575f91610c6a575b50610c629060019261238e565b95905f610bda565b90508281813d8311610c91575b610c818183611236565b8101031261016257516001610c55565b503d610c77565b85513d5f823e3d90fd5b610cab9061120e565b5f610c25565b87513d5f823e3d90fd5b610cd19250803d10610b0757610af98183611236565b5f80610bd3565b88513d5f823e3d90fd5b50505091610cf290600d5461238e565b600d55610cfd611388565b600255805460ff60a01b1916600360a01b1790556003805491519081525f805160206124d383398151915290602090a2005b9193509060038103610d7257506020905f805160206124d383398151915292610d566120d5565b805460ff60a01b1916600160a21b1790556003549351908152a2005b8103610dad5750610d81611858565b805460ff60a01b191690554360055560035490515f81525f805160206124d383398151915290602090a2005b606490602084519162461bcd60e51b8352820152601860248201527f45636f73797374656d3a20696e76616c696420706861736500000000000000006044820152fd5b602184634e487b7160e01b5f525260245ffd5b8234610162575f366003190112610162576020906001549051908152f35b8234610162575f366003190112610162576020906002549051908152f35b82346101625760209081600319360112610162578235801561101c57335f525f835280825f205410610fd957610e88610e7f610e79611388565b836111c9565b600154906111f0565b600b5483516370a0823160e01b815230878201529194916001600160a01b039183908290602490829086165afa908115610c98575f91610fac575b50808611610f94575b50335f525f8252835f20610ee1848254611258565b9055610eef83600154611258565b600155610f0385610efe611388565b611258565b600255600b541683519063a9059cbb60e01b5f5233875285602452825f60448180855af160015f5114811615610f7e575b82865215610f6a5750507f92ccf450a286a957af52509bc1c9939d1a6a481783e142e41e2499f0bb66ebc693945061068c611388565b635274afe760e01b82528187015260249150fd5b600181151661072d57813b15153d151616610f34565b610fa1610fa69187611258565b6114b1565b86610ecc565b90508281813d8311610fd2575b610fc38183611236565b81010312610162575187610ec3565b503d610fb9565b815162461bcd60e51b8152808501849052601e60248201527f45636f73797374656d3a20696e73756666696369656e742073686172657300006044820152606490fd5b815162461bcd60e51b8152808501849052601860248201527f45636f73797374656d3a207a65726f20776974686472617700000000000000006044820152606490fd5b8234610162576020366003190112610162576001600160a01b038235818116939192908490036101625761109883600c5416331461117d565b6009549283166110b45750506001600160a01b03191617600955005b906020606492519162461bcd60e51b8352820152601f60248201527f45636f73797374656d3a2067656e65506f6f6c20616c726561647920736574006044820152fd5b8234610162575f366003190112610162576020906105aa611388565b9060058210156111205752565b634e487b7160e01b5f52602160045260245ffd5b6006548110156111695760065f527ff652222313e28459528d920b65115c16c04f3efc82aaedc97be59f3f377c0d3f01905f90565b634e487b7160e01b5f52603260045260245ffd5b1561118457565b60405162461bcd60e51b815260206004820152601b60248201527f45636f73797374656d3a2063616c6c6572206e6f74206f776e657200000000006044820152606490fd5b818102929181159184041417156111dc57565b634e487b7160e01b5f52601160045260245ffd5b81156111fa570490565b634e487b7160e01b5f52601260045260245ffd5b67ffffffffffffffff811161122257604052565b634e487b7160e01b5f52604160045260245ffd5b90601f8019910116810190811067ffffffffffffffff82111761122257604052565b919082039182116111dc57565b919082018092116111dc57565b60065468010000000000000000811015611222578060016112969201600655611134565b60018060a09493941b038084549260031b9316831b921b1916179055565b60015480156112ed576112e56112ea926112cc611388565b9060018060a01b03165f525f60205260405f20546111c9565b6111f0565b90565b50505f90565b51906001600160a01b038216820361016257565b359060ff8216820361016257565b359061ffff8216820361016257565b6006549081815260208091019160065f527ff652222313e28459528d920b65115c16c04f3efc82aaedc97be59f3f377c0d3f915f905b828210611368575050505090565b83546001600160a01b03168552938401936001938401939091019061135a565b60018060a01b0380600b541660408051926370a0823160e01b93848152600430600483015260209160249083816024818a5afa9081156114a6575f91611479575b50969594939291905f96600654965b8789106113eb5750505050505050505090565b909192939495969798866113fe8b611134565b9190548a519286845260031b1c168682015286818681865afa90811561146f575f91611441575b5061143290600192611265565b990197969594939291906113d8565b90508681813d8311611468575b6114588183611236565b8101031261016257516001611425565b503d61144e565b89513d5f823e3d90fd5b90508381813d831161149f575b6114908183611236565b8101031261016257515f6113c9565b503d611486565b6040513d5f823e3d90fd5b5f915f60069260065460018060a01b0392600b9184600b54165b81831061178a575050508515611782575f93825b865486101561162c5784835416906114f687611134565b9054876003604092835196879384926370a0823160e01b8452600497851b1c1686830152602097889160249586915afa968715611622575f976115f2575b505085156115dc5761154a8d6112e5888c6111c9565b958087116115ea575b5085156115dc5789906115658c611134565b9054911b1c1692833b15610162575f9186918385519687948593630962af4960e11b85528401525af19081156115d357506115c4575b50818111156115b9576001916115b091611258565b955b01946114df565b505060015f956115b2565b6115cd9061120e565b5f61159b565b513d5f823e3d90fd5b5050505095600191506115b2565b95505f611553565b9080929750813d831161161b575b61160a8183611236565b810103126101625751945f80611534565b503d611600565b84513d5f823e3d90fd5b939594509550905081611640575b50505050565b909192935f925b845484101561177757801561176757858354169061166485611134565b905460039389604092835192839283926370a0823160e01b84526004978a1b1c1686830152602092839160249586915afa91821561162257908c92915f92611736575b50508015611727578086111561171f57955b6116c28a611134565b9054911b1c1692833b15610162575f9186918385519687948593630962af4960e11b85528401525af19081156115d35750916001939161170793611710575b50611258565b935b0192611647565b6117199061120e565b5f611701565b5084956116b9565b50505050509360019150611709565b8193508092503d8311611760575b61174e8183611236565b81010312610162578a90515f806116a7565b503d611744565b5093505050505b5f80808061163a565b50935050505061176e565b505050915050565b90919761179689611134565b905490876040928351926370a0823160e01b845260031b1c16600482015260208082602481885afa9283156115d357505f926117e4575b50506117db90600192611265565b980191906114cb565b90809250813d831161180d575b6117fb8183611236565b810103126101625751816117db6117cd565b503d6117f1565b90816020910312610162575180151581036101625790565b67ffffffffffffffff81116112225760051b60200190565b80518210156111695760209160051b010190565b6006548015612050575f5b818110611ef15750600b546040516370a0823160e01b815230600482015290602090829060249082906001600160a01b03165afa9081156114a6575f91611ebf575b508015611ebb575f60085560016003541115611d80576118c48261182c565b6118d16040519182611236565b828152601f196118e08461182c565b013660208301375f905f5b848110611cbf575081611a535750509061190581836111f0565b8015155f5b83811061193f575050505f805160206124f3833981519152916040915b82519182526020820152a161193a611388565b600255565b81806119ed575b611953575b60010161190a565b600b546119869084906001600160a01b031661196e84611134565b905460039190911b1c6001600160a01b0316906123a9565b61198f81611134565b905460039190911b1c6001600160a01b031690813b15610162575f8092602460405180958193632b0142a760e01b83528960048401525af19182156114a6576001926119de575b50905061194b565b6119e79061120e565b5f6119d6565b50600460206119fb83611134565b9054604051634136aa3560e01b81529384929091839160031b1c6001600160a01b03165afa9081156114a6575f91611a34575b50611946565b611a4d915060203d602011610b0757610af98183611236565b5f611a2e565b5f915f5b858110611b9f57505050818110611a81575b506040905f805160206124f383398151915292611927565b611a8b9082611258565b915f5b818110611a9d575b5091611a69565b60046020611aaa83611134565b9054604051634136aa3560e01b81529384929091839160031b1c6001600160a01b03165afa9081156114a6575f91611b80575b50611aea57600101611a8e565b600b54919291611b129190611b0d9086906001600160a01b031661196e84611134565b611134565b905460039190911b1c6001600160a01b031692833b15610162575f93602485926040519687938492632b0142a760e01b845260048401525af19182156114a6575f805160206124f383398151915293604093611b71575b509091611a96565b611b7a9061120e565b5f611b69565b611b99915060203d602011610b0757610af98183611236565b5f611add565b60046020611bac83611134565b9054604051634136aa3560e01b81529384929091839160031b1c6001600160a01b03165afa9081156114a6575f91611ca0575b5015611c9857611bfd826112e5611bf68487611844565b51886111c9565b80611c0e575b506001905b01611a57565b9093611c288260018060a01b03600b541661196e88611134565b611c3185611134565b905460039190911b1c6001600160a01b031691823b15610162575f8093602460405180968193632b0142a760e01b83528660048401525af19182156114a657600193611c8293611c89575b50611265565b9390611c03565b611c929061120e565b5f611c7c565b600190611c08565b611cb9915060203d602011610b0757610af98183611236565b5f611bdf565b9160046020611ccd85611134565b9054604051634136aa3560e01b81529384929091839160031b1c6001600160a01b03165afa9081156114a6575f91611d61575b5015611d5857611d48600191611d1585611134565b848060a01b0391549060031b1c165f52600760205260405f2054908115611d50575b81611d428787611844565b52611265565b925b016118eb565b839150611d37565b91600190611d4a565b611d7a915060203d602011610b0757610af98183611236565b5f611d00565b90611d8b81836111f0565b8015155f5b838110611dbf575050505f805160206124f38339815191529160409182519182526020820152a161193a611388565b8180611e55575b611dd3575b600101611d90565b600b54611dee9084906001600160a01b031661196e84611134565b611df781611134565b905460039190911b1c6001600160a01b031690813b15610162575f8092602460405180958193632b0142a760e01b83528960048401525af19182156114a657600192611e46575b509050611dcb565b611e4f9061120e565b5f611e3e565b5060046020611e6383611134565b9054604051634136aa3560e01b81529384929091839160031b1c6001600160a01b03165afa9081156114a6575f91611e9c575b50611dc6565b611eb5915060203d602011610b0757610af98183611236565b5f611e96565b5050565b90506020813d602011611ee9575b81611eda60209383611236565b8101031261016257515f6118a5565b3d9150611ecd565b600b546001600160a01b03939291908416611f0b82611134565b905495806003604098895195869485926370a0823160e01b8452600497851b1c1686830152602091829160249889915afa9384156104a4575f94612021575b508315159081611fc7575b50611f6c575b505050505060019192935001611863565b611f7586611134565b9054911b1c1692833b15610162575f928389519586948593630962af4960e11b85528401525af18015610c9857600193949550611fb8575b849392818080611f5b565b611fc19061120e565b5f611fad565b9050848184611fd58a611134565b905490861b1c168c5192838092634136aa3560e01b82525afa918215610b0e575f92612004575b50505f611f55565b61201a9250803d10610b0757610af98183611236565b5f80611ffc565b9080945081813d8311612049575b6120398183611236565b810103126101625751925f611f4a565b503d61202f565b50565b60209081818403126101625780519067ffffffffffffffff821161016257019180601f840112156101625782516120898161182c565b936120976040519586611236565b818552838086019260051b820101928311610162578301905b8282106120be575050505090565b8380916120ca846112f3565b8152019101906120b0565b60066002600654106120505760018060a01b0391600983600954166003946003549560409384516228932960e41b81525f8160049688600483015281838161211f60448201611324565b60249f602483015203925af1908115612384575f9161236a575b506008965f6008555f5b89548110156121ed578a90868554168761215c83611134565b905490891b1c16908a518094819363bbcf535160e01b83528c83015260209586935afa9081156104a4575f916121bf575b506121b79060076001948a6121a186611134565b9054908c1b1c165f5252808b5f20558b54611265565b8a5501612143565b90508281813d83116121e6575b6121d68183611236565b810103126101625751600161218d565b503d6121cc565b5092509650506004949396509190915f83600954168851968780926393a58ccb60e01b82525afa948515610cb1575f95612346575b505f5b85518110156122b957836122398288611844565b511690813b15610162575f8092858b51809581936341c0e1b560e01b83525af191821561146f576001926122aa575b50846122748289611844565b51165f526007602081815261228d8b5f20548954611258565b88558661229a848b611844565b51165f52525f8981205501612225565b6122b39061120e565b5f612268565b50949350509350506006545f60065580612304575b505f5b81518110156122f857806122f2856122eb60019486611844565b5116611272565b016122d1565b5050905061193a611388565b60065f527ff652222313e28459528d920b65115c16c04f3efc82aaedc97be59f3f377c0d3f908101905b81811061233b57506122ce565b5f815560010161232e565b6123639195503d805f833e61235b8183611236565b810190612053565b935f612222565b61237e91503d805f833e61235b8183611236565b5f612139565b86513d5f823e3d90fd5b9190915f83820193841291129080158216911516176111dc57565b60405163095ea7b360e01b5f8181526001600160a01b03948516600481905260248790529195929060209060448180885af160015f51148116156124c5575b81604052156123fa575b505050505050565b855f52816004525f60245260205f60448180885af160015f51148116156124a6575b816040521561248f5750604051945f5260045260245260205f60448180855af160015f5114811615612470575b836040521561245a578080806123f2565b635274afe760e01b835216600482015260249150fd5b600181151661248657813b15153d151616612449565b833d5f823e3d90fd5b635274afe760e01b81528385166004820152602490fd5b60018115166124bc57843b15153d15161661241c565b503d5f823e3d90fd5b843b15153d1516166123e856fef901ef2975d773074e96476e770b4f22b35403eb89cb79e7d73aa792e46e03e20ac4c1d8dbcaec55a371b5f0ff7f190d20869740216fa5ca0602a510790c00a0a264697066735822122072d07b2bce538828437f6919ad8aea40dd35b8a7bed5b66d5102ee8afed839c264736f6c63430008180033","linkReferences":{}},"methodIdentifiers":{"activeCreatures(uint256)":"dd03893a","advanceEpoch()":"3cf80e6c","currentEpoch()":"76671808","deposit(uint256)":"b6b55f25","epochDuration()":"4ff0876a","factory()":"c45a0155","genePool()":"71a48532","getActiveCreatures()":"e845beae","getCreatureCount()":"56448a19","getEcosystemState()":"b48a6a1c","lastEpochBlock()":"c2362dd5","latestFitness(address)":"d16ff17b","owner()":"8da5cb5b","phase()":"b1c9fe6e","registerCreature(address)":"b4ab303b","setGenePool(address)":"234b1ed5","shareValue(address)":"bec9a55c","shares(address)":"ce7c2ac2","spawnInitialCreatures((uint8,uint8,uint16,uint16,uint16,uint16,uint8,uint8,uint8,uint16)[])":"c50e8bab","stablecoin()":"e9cbd822","totalCapital()":"383032ea","totalFitness()":"7ffba495","totalShares()":"3a98ef39","totalSystemValue()":"04ac9b13","totalYieldGenerated()":"8c825056","withdraw(uint256)":"2e1a7d4d"},"id":33}