{"abi":[{"type":"constructor","inputs":[{"name":"_stablecoin","type":"address","internalType":"address"},{"name":"_factory","type":"address","internalType":"address"},{"name":"_epochDuration","type":"uint256","internalType":"uint256"}],"stateMutability":"nonpayable"},{"type":"function","name":"activeCreatures","inputs":[{"name":"","type":"uint256","internalType":"uint256"}],"outputs":[{"name":"","type":"address","internalType":"address"}],"stateMutability":"view"},{"type":"function","name":"advanceEpoch","inputs":[],"outputs":[],"stateMutability":"nonpayable"},{"type":"function","name":"currentEpoch","inputs":[],"outputs":[{"name":"","type":"uint256","internalType":"uint256"}],"stateMutability":"view"},{"type":"function","name":"deposit","inputs":[{"name":"amount","type":"uint256","internalType":"uint256"}],"outputs":[],"stateMutability":"nonpayable"},{"type":"function","name":"epochDuration","inputs":[],"outputs":[{"name":"","type":"uint256","internalType":"uint256"}],"stateMutability":"view"},{"type":"function","name":"factory","inputs":[],"outputs":[{"name":"","type":"address","internalType":"contract CreatureFactory"}],"stateMutability":"view"},{"type":"function","name":"genePool","inputs":[],"outputs":[{"name":"","type":"address","internalType":"contract GenePool"}],"stateMutability":"view"},{"type":"function","name":"getActiveCreatures","inputs":[],"outputs":[{"name":"","type":"address[]","internalType":"address[]"}],"stateMutability":"view"},{"type":"function","name":"getCreatureCount","inputs":[],"outputs":[{"name":"","type":"uint256","internalType":"uint256"}],"stateMutability":"view"},{"type":"function","name":"getEcosystemState","inputs":[],"outputs":[{"name":"deposits","type":"uint256","internalType":"uint256"},{"name":"epoch","type":"uint256","internalType":"uint256"},{"name":"creatureCount","type":"uint256","internalType":"uint256"},{"name":"yieldGenerated","type":"int256","internalType":"int256"},{"name":"currentPhase","type":"uint8","internalType":"enum Ecosystem.Phase"}],"stateMutability":"view"},{"type":"function","name":"lastEpochBlock","inputs":[],"outputs":[{"name":"","type":"uint256","internalType":"uint256"}],"stateMutability":"view"},{"type":"function","name":"latestFitness","inputs":[{"name":"","type":"address","internalType":"address"}],"outputs":[{"name":"","type":"uint256","internalType":"uint256"}],"stateMutability":"view"},{"type":"function","name":"owner","inputs":[],"outputs":[{"name":"","type":"address","internalType":"address"}],"stateMutability":"view"},{"type":"function","name":"phase","inputs":[],"outputs":[{"name":"","type":"uint8","internalType":"enum Ecosystem.Phase"}],"stateMutability":"view"},{"type":"function","name":"registerCreature","inputs":[{"name":"creature","type":"address","internalType":"address"}],"outputs":[],"stateMutability":"nonpayable"},{"type":"function","name":"setGenePool","inputs":[{"name":"_genePool","type":"address","internalType":"address"}],"outputs":[],"stateMutability":"nonpayable"},{"type":"function","name":"shareValue","inputs":[{"name":"user","type":"address","internalType":"address"}],"outputs":[{"name":"","type":"uint256","internalType":"uint256"}],"stateMutability":"view"},{"type":"function","name":"shares","inputs":[{"name":"","type":"address","internalType":"address"}],"outputs":[{"name":"","type":"uint256","internalType":"uint256"}],"stateMutability":"view"},{"type":"function","name":"spawnInitialCreatures","inputs":[{"name":"dnaList","type":"tuple[]","internalType":"struct ICreature.DNA[]","components":[{"name":"targetChainId","type":"uint8","internalType":"uint8"},{"name":"poolType","type":"uint8","internalType":"uint8"},{"name":"allocationRatio","type":"uint16","internalType":"uint16"},{"name":"rebalanceThreshold","type":"uint16","internalType":"uint16"},{"name":"maxSlippage","type":"uint16","internalType":"uint16"},{"name":"yieldFloor","type":"uint16","internalType":"uint16"},{"name":"riskCeiling","type":"uint8","internalType":"uint8"},{"name":"entryTiming","type":"uint8","internalType":"uint8"},{"name":"exitTiming","type":"uint8","internalType":"uint8"},{"name":"hedgeRatio","type":"uint16","internalType":"uint16"}]}],"outputs":[],"stateMutability":"nonpayable"},{"type":"function","name":"stablecoin","inputs":[],"outputs":[{"name":"","type":"address","internalType":"contract IERC20"}],"stateMutability":"view"},{"type":"function","name":"totalCapital","inputs":[],"outputs":[{"name":"","type":"uint256","internalType":"uint256"}],"stateMutability":"view"},{"type":"function","name":"totalFitness","inputs":[],"outputs":[{"name":"","type":"uint256","internalType":"uint256"}],"stateMutability":"view"},{"type":"function","name":"totalShares","inputs":[],"outputs":[{"name":"","type":"uint256","internalType":"uint256"}],"stateMutability":"view"},{"type":"function","name":"totalSystemValue","inputs":[],"outputs":[{"name":"","type":"uint256","internalType":"uint256"}],"stateMutability":"view"},{"type":"function","name":"totalYieldGenerated","inputs":[],"outputs":[{"name":"","type":"int256","internalType":"int256"}],"stateMutability":"view"},{"type":"function","name":"withdraw","inputs":[{"name":"shareAmount","type":"uint256","internalType":"uint256"}],"outputs":[],"stateMutability":"nonpayable"},{"type":"event","name":"CapitalAllocated","inputs":[{"name":"totalAllocated","type":"uint256","indexed":false,"internalType":"uint256"},{"name":"creatureCount","type":"uint256","indexed":false,"internalType":"uint256"}],"anonymous":false},{"type":"event","name":"CreatureRegistered","inputs":[{"name":"creature","type":"address","indexed":true,"internalType":"address"}],"anonymous":false},{"type":"event","name":"Deposited","inputs":[{"name":"user","type":"address","indexed":true,"internalType":"address"},{"name":"amount","type":"uint256","indexed":false,"internalType":"uint256"},{"name":"sharesIssued","type":"uint256","indexed":false,"internalType":"uint256"}],"anonymous":false},{"type":"event","name":"EpochAdvanced","inputs":[{"name":"epoch","type":"uint256","indexed":true,"internalType":"uint256"},{"name":"phase","type":"uint8","indexed":false,"internalType":"enum Ecosystem.Phase"}],"anonymous":false},{"type":"event","name":"InitialCreaturesSpawned","inputs":[{"name":"count","type":"uint256","indexed":false,"internalType":"uint256"}],"anonymous":false},{"type":"event","name":"Withdrawn","inputs":[{"name":"user","type":"address","indexed":true,"internalType":"address"},{"name":"amount","type":"uint256","indexed":false,"internalType":"uint256"},{"name":"sharesBurned","type":"uint256","indexed":false,"internalType":"uint256"}],"anonymous":false},{"type":"error","name":"SafeERC20FailedOperation","inputs":[{"name":"token","type":"address","internalType":"address"}]}],"bytecode":{"object":"0x608034620000c157601f6200246838819003918201601f19168301916001600160401b03831184841017620000c557808492606094604052833981010312620000c1576200004d81620000d9565b60406200005d60208401620000d9565b920151600b80546001600160a01b03199081166001600160a01b0394851617909155600a8054909116929093169190911790915560045543600555600c80546001600160a81b0319163360ff60a01b19161790556040516123799081620000ef8239f35b5f80fd5b634e487b7160e01b5f52604160045260245ffd5b51906001600160a01b0382168203620000c15756fe604060808152600480361015610013575f80fd5b5f3560e01c90816304ac9b13146110f8578163234b1ed5146110605781632e1a7d4d14610e36578163383032ea14610e185781633a98ef3914610dfa5781633cf80e6c1461097e5781634ff0876a1461096257816356448a191461094457816371a485321461091c57816376671808146108fe5781637ffba495146108e05781638c825056146108c25781638da5cb5b1461089a578163b1c9fe6e14610871578163b48a6a1c1461081f578163b4ab303b14610777578163b6b55f25146105b1578163bec9a55c1461057a578163c2362dd51461055c578163c45a015514610534578163c50e8bab1461028f578163ce7c2ac214610255578163d16ff17b1461021a578163dd03893a146101da57508063e845beae146101665763e9cbd8221461013b575f80fd5b34610162575f36600319011261016257600b5490516001600160a01b039091168152602090f35b5f80fd5b5034610162575f3660031901126101625780519061018e8261018781611325565b0383611237565b8051918291602090602080850191818652845180935285019301915f5b8281106101ba57505050500390f35b83516001600160a01b0316855286955093810193928101926001016101ab565b90503461016257602036600319011261016257359060065482101561016257610204602092611135565b905491519160018060a01b039160031b1c168152f35b90503461016257602036600319011261016257356001600160a01b0381169190829003610162576020915f5260078252805f20549051908152f35b90503461016257602036600319011261016257356001600160a01b0381169190829003610162576020915f525f8252805f20549051908152f35b905034610162576020908160031936011261016257803567ffffffffffffffff91828211610162573660238301121561016257818101359283116101625761014090602436858402850182011161016257600c546001600160a01b0394906102fa908616331461117e565b6006546104f15785156104ae575f5b86811061033b577f604ba8570f53eadef5f7483db73d33dbb87aaeccf42620ac7d1655da21ee91c988888b51908152a1005b6103739088856101c4865f8e8c600a541690828d89028b0160035492519a8b988997635abb48f360e01b895260ff9283918501611308565b169088015260448e82610387858401611308565b16908901526064610399818501611316565b9161ffff809316908a0152608490826103b3838701611316565b16908a015260a490826103c7838701611316565b16908a015260c490826103db838701611316565b16908a015260e490836103ef838701611308565b16908a01526101049083610404838701611308565b16908a015261012492610418848601611308565b169089015261042b610144809401611316565b169087015285015282610164850152826101848501526101a48401525af19182156104a4575f92610469575b50610463600192611273565b01610309565b91508882813d831161049d575b6104808183611237565b81010312610162576104636104966001936112f4565b9250610457565b503d610476565b8a513d5f823e3d90fd5b875162461bcd60e51b8152808401889052601960248201527f45636f73797374656d3a20656d70747920646e61206c697374000000000000006044820152606490fd5b875162461bcd60e51b8152808401889052601a60248201527f45636f73797374656d3a20616c726561647920737061776e65640000000000006044820152606490fd5b8234610162575f36600319011261016257600a5490516001600160a01b039091168152602090f35b8234610162575f366003190112610162576020906005549051908152f35b9050346101625760203660031901126101625735906001600160a01b0382168203610162576105aa6020926112b5565b9051908152f35b905034610162576020918260031936011261016257813591821561073657600b5482516323b872dd60e01b5f90815233845230602452604486905290916001600160a01b031690869060648180855af160015f5114811615610717575b8285525f60605215610705575050600154801580156106fb575b156106df575082905b811561069c57507f73a19dd210f1a7f902193214c0ee91dd35ee5b4d920cba8d519eca65a7b488ca9293335f525f8152825f2061066f838254611266565b905561067d82600154611266565b60015561068c85600254611266565b60025582519485528401523392a2005b825162461bcd60e51b8152908101859052601c60248201527f45636f73797374656d3a206465706f73697420746f6f20736d616c6c000000006044820152606490fd5b6106ec6106f591856111ca565b600254906111f1565b90610631565b5060025415610628565b602492635274afe760e01b8352820152fd5b600181151661072d57813b15153d15161661060e565b823d5f823e3d90fd5b83606492519162461bcd60e51b8352820152601760248201527f45636f73797374656d3a207a65726f206465706f7369740000000000000000006044820152fd5b905034610162576020366003190112610162576001600160a01b03813581811693909291848403610162576009541633036107dc57836107b684611273565b7f30a4ff863e8fc43467f3e15ff91b2a16b1b1ded29edee5b3087a2cddb274d8cd5f80a2005b906020606492519162461bcd60e51b8352820152601e60248201527f45636f73797374656d3a2063616c6c6572206e6f742067656e65506f6f6c00006044820152fd5b8234610162575f3660031901126101625760a09061086f61083e611389565b9160035490600654600d5491600c549381519687526020870152850152606084015260ff6080840191851c16611114565bf35b8234610162575f3660031901126101625760209061086f60ff600c5460a01c1691518092611114565b8234610162575f36600319011261016257600c5490516001600160a01b039091168152602090f35b8234610162575f36600319011261016257602090600d549051908152f35b8234610162575f366003190112610162576020906008549051908152f35b8234610162575f366003190112610162576020906003549051908152f35b8234610162575f3660031901126101625760095490516001600160a01b039091168152602090f35b8234610162575f366003190112610162576020906006549051908152f35b8234610162575f36600319011261016257602091549051908152f35b905034610162575f36600319011261016257600c805460ff60a09160a01c166005811015610de75780610b735750506109bb600554835490611266565b4310610b3057805460ff60a01b19908116600160a01b1782556003805490935f198214610b1d57600191828391019586600355875190600182525f80516020612304833981519152978860208094a25f925b610a31575b5050505050600160a11b908254161790556020600354925160028152a2005b600654831015610b18578282610a478695611135565b90548c51634136aa3560e01b8152976001600160a01b03939289928391881b1c85165afa8015610b0e5787965f91610ae1575b50610a8a575b5084019293610a0d565b909450610a9685611135565b905490831b1c1693843b15610162575f8095858c51809881936306f4f6fb60e31b83525af19081156104a45786958692610ad2575b5090610a80565b610adb9061120f565b5f610acb565b610b019150853d8711610b07575b610af98183611237565b81019061169e565b5f610a7a565b503d610aef565b8b513d5f823e3d90fd5b610a12565b601190634e487b7160e01b5f525260245ffd5b506020606492519162461bcd60e51b8352820152601c60248201527f45636f73797374656d3a2065706f6368206e6f7420656c6170736564000000006044820152fd5b9192909160028103610d2757505f915f5b600654811015610cdb57610b9781611135565b90548751634136aa3560e01b81526001600160a01b039260039260209291839183918a918391881b1c88165afa9182156104a4575f92610cbe575b5050610be3575b5050600101610b84565b81610bef849794611135565b905490831b1c1691823b15610162575f8093878b5180968193634641257d60e01b83525af1918215610cb45786938693610ca5575b50610c2e88611135565b9054911b1c168851928380926310b793a760e21b82525afa8015610c9b57600192610c60925f92610c68575b506121bf565b93905f610bd9565b610c89919250853d8711610c94575b610c818183611237565b8101906116ce565b50505050905f610c5a565b503d610c77565b87513d5f823e3d90fd5b610cae9061120f565b5f610c24565b89513d5f823e3d90fd5b610cd49250803d10610b0757610af98183611237565b5f80610bd2565b505050610cea90600d546121bf565b600d55610cf5611389565b600255805460ff60a01b1916600360a01b1790556003805491519081525f8051602061230483398151915290602090a2005b90915060038103610d6957506020905f8051602061230483398151915292610d4d611ff8565b805460ff60a01b1916600160a21b1790556003549351908152a2005b8103610da45750610d78611709565b805460ff60a01b191690554360055560035490515f81525f8051602061230483398151915290602090a2005b606490602084519162461bcd60e51b8352820152601860248201527f45636f73797374656d3a20696e76616c696420706861736500000000000000006044820152fd5b602184634e487b7160e01b5f525260245ffd5b8234610162575f366003190112610162576020906001549051908152f35b8234610162575f366003190112610162576020906002549051908152f35b82346101625760209081600319360112610162578235801561101d57335f525f835280825f205410610fda57610e7f610e76610e70611389565b836111ca565b600154906111f1565b600b5483516370a0823160e01b815230878201529194916001600160a01b039183908290602490829086165afa908115610fd0575f91610fa3575b50808611610f8b575b50335f525f8252835f20610ed8848254611259565b9055610ee683600154611259565b600155610efa85610ef5611389565b611259565b600255600b541683519063a9059cbb60e01b5f5233875285602452825f60448180855af160015f5114811615610f75575b82865215610f615750507f92ccf450a286a957af52509bc1c9939d1a6a481783e142e41e2499f0bb66ebc693945061068c611389565b635274afe760e01b82528187015260249150fd5b600181151661072d57813b15153d151616610f2b565b610f98610f9d9187611259565b6114a8565b86610ec3565b90508281813d8311610fc9575b610fba8183611237565b81010312610162575187610eba565b503d610fb0565b85513d5f823e3d90fd5b815162461bcd60e51b8152808501849052601e60248201527f45636f73797374656d3a20696e73756666696369656e742073686172657300006044820152606490fd5b815162461bcd60e51b8152808501849052601860248201527f45636f73797374656d3a207a65726f20776974686472617700000000000000006044820152606490fd5b8234610162576020366003190112610162576001600160a01b038235818116939192908490036101625761109983600c5416331461117e565b6009549283166110b55750506001600160a01b03191617600955005b906020606492519162461bcd60e51b8352820152601f60248201527f45636f73797374656d3a2067656e65506f6f6c20616c726561647920736574006044820152fd5b8234610162575f366003190112610162576020906105aa611389565b9060058210156111215752565b634e487b7160e01b5f52602160045260245ffd5b60065481101561116a5760065f527ff652222313e28459528d920b65115c16c04f3efc82aaedc97be59f3f377c0d3f01905f90565b634e487b7160e01b5f52603260045260245ffd5b1561118557565b60405162461bcd60e51b815260206004820152601b60248201527f45636f73797374656d3a2063616c6c6572206e6f74206f776e657200000000006044820152606490fd5b818102929181159184041417156111dd57565b634e487b7160e01b5f52601160045260245ffd5b81156111fb570490565b634e487b7160e01b5f52601260045260245ffd5b67ffffffffffffffff811161122357604052565b634e487b7160e01b5f52604160045260245ffd5b90601f8019910116810190811067ffffffffffffffff82111761122357604052565b919082039182116111dd57565b919082018092116111dd57565b60065468010000000000000000811015611223578060016112979201600655611135565b60018060a09493941b038084549260031b9316831b921b1916179055565b60015480156112ee576112e66112eb926112cd611389565b9060018060a01b03165f525f60205260405f20546111ca565b6111f1565b90565b50505f90565b51906001600160a01b038216820361016257565b359060ff8216820361016257565b359061ffff8216820361016257565b6006549081815260208091019160065f527ff652222313e28459528d920b65115c16c04f3efc82aaedc97be59f3f377c0d3f915f905b828210611369575050505090565b83546001600160a01b03168552938401936001938401939091019061135b565b60018060a01b0380600b541660408051926370a0823160e01b93848152600430600483015260209160249083816024818a5afa90811561149d575f91611470575b50969594939291905f96600654965b8789106113ec5750505050505050505090565b909192939495969798866113ff8b611135565b9190548a519286845260031b1c168682015286818681865afa908115610cb4575f91611442575b5061143390600192611266565b990197969594939291906113d9565b90508681813d8311611469575b6114598183611237565b8101031261016257516001611426565b503d61144f565b90508381813d8311611496575b6114878183611237565b8101031261016257515f6113ca565b503d61147d565b6040513d5f823e3d90fd5b60068054600b80545f9593946001600160a01b03949093909187919086165b81831061161457505050851561160c575f5b855481101561160357848354166114ef82611135565b905490876003604093845195869384926370a0823160e01b8452600496851b1c1685830152602093849160249889915afa928315610fd057908b92915f946115d0575b505082156115ba576115488d6112e6858d6111ca565b928084116115c8575b5082156115ba5761156187611135565b9054911b1c1693843b15610162575f928385519687948593630962af4960e11b85528401525af19081156115b1575090600192916115a2575b505b016114d9565b6115ab9061120f565b5f61159a565b513d5f823e3d90fd5b50505050505060019061159c565b92505f611551565b809294508193503d83116115fc575b6115e98183611237565b8101031261016257899051915f80611532565b503d6115df565b50945050505050565b945050505050565b90919761162089611135565b905490886040928351926370a0823160e01b845260031b1c16600482015260208082602481885afa9283156115b157505f9261166e575b505061166590600192611266565b980191906114c7565b90809250813d8311611697575b6116858183611237565b81010312610162575181611665611657565b503d61167b565b90816020910312610162575180151581036101625790565b67ffffffffffffffff81116112235760051b60200190565b908160a0910312610162578051916020820151916040810151916080606083015192015190565b805182101561116a5760209160051b010190565b6006548015611f73575f5b818110611e145750600b546040516370a0823160e01b815230600482015290602090829060249082906001600160a01b03165afa90811561149d575f91611de2575b508015611dde575f60085560016003541115611ca357611775826116b6565b6117826040519182611237565b828152601f19611791846116b6565b013660208301375f905f5b848110611b70575081611904575050906117b681836111f1565b8015155f5b8381106117f0575050505f80516020612324833981519152916040915b82519182526020820152a16117eb611389565b600255565b818061189e575b611804575b6001016117bb565b600b546118379084906001600160a01b031661181f84611135565b905460039190911b1c6001600160a01b0316906121da565b61184081611135565b905460039190911b1c6001600160a01b031690813b15610162575f8092602460405180958193632b0142a760e01b83528960048401525af191821561149d5760019261188f575b5090506117fc565b6118989061120f565b5f611887565b50600460206118ac83611135565b9054604051634136aa3560e01b81529384929091839160031b1c6001600160a01b03165afa90811561149d575f916118e5575b506117f7565b6118fe915060203d602011610b0757610af98183611237565b5f6118df565b5f915f5b858110611a5057505050818110611932575b506040905f80516020612324833981519152926117d8565b61193c9082611259565b915f5b81811061194e575b509161191a565b6004602061195b83611135565b9054604051634136aa3560e01b81529384929091839160031b1c6001600160a01b03165afa90811561149d575f91611a31575b5061199b5760010161193f565b600b549192916119c391906119be9086906001600160a01b031661181f84611135565b611135565b905460039190911b1c6001600160a01b031692833b15610162575f93602485926040519687938492632b0142a760e01b845260048401525af191821561149d575f8051602061232483398151915293604093611a22575b509091611947565b611a2b9061120f565b5f611a1a565b611a4a915060203d602011610b0757610af98183611237565b5f61198e565b60046020611a5d83611135565b9054604051634136aa3560e01b81529384929091839160031b1c6001600160a01b03165afa90811561149d575f91611b51575b5015611b4957611aae826112e6611aa784876116f5565b51886111ca565b80611abf575b506001905b01611908565b9093611ad98260018060a01b03600b541661181f88611135565b611ae285611135565b905460039190911b1c6001600160a01b031691823b15610162575f8093602460405180968193632b0142a760e01b83528660048401525af191821561149d57600193611b3393611b3a575b50611266565b9390611ab4565b611b439061120f565b5f611b2d565b600190611ab9565b611b6a915060203d602011610b0757610af98183611237565b5f611a90565b9160046020611b7e85611135565b9054604051634136aa3560e01b81529384929091839160031b1c6001600160a01b03165afa90811561149d575f91611c84575b5015611c7b57611bc083611135565b90546040516310b793a760e21b81529160a09182918491600491839160039190911b1c6001600160a01b03165afa91821561149d575f915f93611c56575b5050600182018092116111dd5760019282611c2f93925f8113611c37575b505081611c2987876116f5565b52611266565b925b0161179c565b611c4e929350670de0b6b3a7640000900490611266565b905f80611c1c565b611c70935080919250903d10610c9457610c818183611237565b505091505f80611bfe565b91600190611c31565b611c9d915060203d602011610b0757610af98183611237565b5f611bb1565b90611cae81836111f1565b8015155f5b838110611ce2575050505f805160206123248339815191529160409182519182526020820152a16117eb611389565b8180611d78575b611cf6575b600101611cb3565b600b54611d119084906001600160a01b031661181f84611135565b611d1a81611135565b905460039190911b1c6001600160a01b031690813b15610162575f8092602460405180958193632b0142a760e01b83528960048401525af191821561149d57600192611d69575b509050611cee565b611d729061120f565b5f611d61565b5060046020611d8683611135565b9054604051634136aa3560e01b81529384929091839160031b1c6001600160a01b03165afa90811561149d575f91611dbf575b50611ce9565b611dd8915060203d602011610b0757610af98183611237565b5f611db9565b5050565b90506020813d602011611e0c575b81611dfd60209383611237565b8101031261016257515f611756565b3d9150611df0565b600b546001600160a01b03939291908416611e2e82611135565b905495806003604098895195869485926370a0823160e01b8452600497851b1c1686830152602091829160249889915afa9384156104a4575f94611f44575b508315159081611eea575b50611e8f575b505050505060019192935001611714565b611e9886611135565b9054911b1c1692833b15610162575f928389519586948593630962af4960e11b85528401525af18015610fd057600193949550611edb575b849392818080611e7e565b611ee49061120f565b5f611ed0565b9050848184611ef88a611135565b905490861b1c168c5192838092634136aa3560e01b82525afa918215610b0e575f92611f27575b50505f611e78565b611f3d9250803d10610b0757610af98183611237565b5f80611f1f565b9080945081813d8311611f6c575b611f5c8183611237565b810103126101625751925f611e6d565b503d611f52565b50565b60209081818403126101625780519067ffffffffffffffff821161016257019180601f84011215610162578251611fac816116b6565b93611fba6040519586611237565b818552838086019260051b820101928311610162578301905b828210611fe1575050505090565b838091611fed846112f4565b815201910190611fd3565b6002600654106121bd5760018060a01b03806009541690600354906040935f855180956228932960e41b82528183816004988b600483015261203c60448301611325565b90602483015203925af1938415610fd0575f9461219e575b506004905f83600954168751938480926393a58ccb60e01b82525afa918215612194575f92612170575b505f5b82518110156120e4578361209582856116f5565b511690813b15610162575f8092878a51809581936341c0e1b560e01b83525af19182156120da576001926120cb575b5001612081565b6120d49061120f565b5f6120c4565b88513d5f823e3d90fd5b509392505092506006545f6006558061212e575b505f5b8151811015612122578061211c85612115600194866116f5565b5116611273565b016120fb565b505090506117eb611389565b60065f527ff652222313e28459528d920b65115c16c04f3efc82aaedc97be59f3f377c0d3f908101905b81811061216557506120f8565b5f8155600101612158565b61218d9192503d805f833e6121858183611237565b810190611f76565b905f61207e565b86513d5f823e3d90fd5b60049194506121b6903d805f833e6121858183611237565b9390612054565b565b9190915f83820193841291129080158216911516176111dd57565b60405163095ea7b360e01b5f8181526001600160a01b03948516600481905260248790529195929060209060448180885af160015f51148116156122f6575b816040521561222b575b505050505050565b855f52816004525f60245260205f60448180885af160015f51148116156122d7575b81604052156122c05750604051945f5260045260245260205f60448180855af160015f51148116156122a1575b836040521561228b57808080612223565b635274afe760e01b835216600482015260249150fd5b60018115166122b757813b15153d15161661227a565b833d5f823e3d90fd5b635274afe760e01b81528385166004820152602490fd5b60018115166122ed57843b15153d15161661224d565b503d5f823e3d90fd5b843b15153d15161661221956fef901ef2975d773074e96476e770b4f22b35403eb89cb79e7d73aa792e46e03e20ac4c1d8dbcaec55a371b5f0ff7f190d20869740216fa5ca0602a510790c00a0a2646970667358221220bd709c25e4ef400f140b74d893814cb42f4223ed1a84483b0ba2a8807abebc5364736f6c63430008180033","linkReferences":{}},"methodIdentifiers":{"activeCreatures(uint256)":"dd03893a","advanceEpoch()":"3cf80e6c","currentEpoch()":"76671808","deposit(uint256)":"b6b55f25","epochDuration()":"4ff0876a","factory()":"c45a0155","genePool()":"71a48532","getActiveCreatures()":"e845beae","getCreatureCount()":"56448a19","getEcosystemState()":"b48a6a1c","lastEpochBlock()":"c2362dd5","latestFitness(address)":"d16ff17b","owner()":"8da5cb5b","phase()":"b1c9fe6e","registerCreature(address)":"b4ab303b","setGenePool(address)":"234b1ed5","shareValue(address)":"bec9a55c","shares(address)":"ce7c2ac2","spawnInitialCreatures((uint8,uint8,uint16,uint16,uint16,uint16,uint8,uint8,uint8,uint16)[])":"c50e8bab","stablecoin()":"e9cbd822","totalCapital()":"383032ea","totalFitness()":"7ffba495","totalShares()":"3a98ef39","totalSystemValue()":"04ac9b13","totalYieldGenerated()":"8c825056","withdraw(uint256)":"2e1a7d4d"},"id":31}