{"abi":[{"type":"function","name":"crossover","inputs":[{"name":"parent1Dna","type":"bytes","internalType":"bytes"},{"name":"","type":"bytes","internalType":"bytes"},{"name":"","type":"uint256","internalType":"uint256"}],"outputs":[{"name":"","type":"bytes","internalType":"bytes"}],"stateMutability":"pure"},{"type":"function","name":"evaluateFitness","inputs":[{"name":"records","type":"tuple[]","internalType":"struct IEvolutionEngine.PerformanceRecord[]","components":[{"name":"creatureAddr","type":"address","internalType":"address"},{"name":"lastReturn","type":"int256","internalType":"int256"},{"name":"cumulativeReturn","type":"int256","internalType":"int256"},{"name":"epochsSurvived","type":"uint256","internalType":"uint256"},{"name":"maxDrawdown","type":"int256","internalType":"int256"},{"name":"balance","type":"uint256","internalType":"uint256"}]}],"outputs":[{"name":"results","type":"tuple[]","internalType":"struct IEvolutionEngine.FitnessResult[]","components":[{"name":"creatureAddr","type":"address","internalType":"address"},{"name":"fitnessScore","type":"uint256","internalType":"uint256"}]}],"stateMutability":"pure"},{"type":"function","name":"mutate","inputs":[{"name":"dna","type":"bytes","internalType":"bytes"},{"name":"","type":"uint256","internalType":"uint256"},{"name":"","type":"uint256","internalType":"uint256"}],"outputs":[{"name":"","type":"bytes","internalType":"bytes"}],"stateMutability":"pure"}],"bytecode":{"object":"0x6080806040523461001657610516908161001b8239f35b5f80fdfe60406080815260049081361015610014575f80fd5b5f3560e01c8063706857d7146100e3578063a3cf16fa146100a65763c39b583f1461003d575f80fd5b346100a25760603660031901126100a25767ffffffffffffffff9180358381116100a25761006e9036908301610380565b906024359485116100a25761008c6100939361009e96369101610380565b505061049f565b9051918291826103ae565b0390f35b5f80fd5b50346100a25760603660031901126100a25781359167ffffffffffffffff83116100a2576100dd6100939161009e94369101610380565b9061049f565b5090346100a257602091826003193601126100a25781359167ffffffffffffffff8084116100a257366023850112156100a257838201359081116100a2576024908185019482369160c084020101116100a25761014b610146829796959761044f565b610429565b938185526101588261044f565b601f19015f5b81811061035b5750505f5b82811061027d5750505f5b8181106101d457505050508251928284938401908085528351809252808386019401925f905b8382106101a75786860387f35b845180516001600160a01b031687528301518684015287965094850194938201936001919091019061019a565b60019694959680820180831161026b575b8381106101fa57505060010195949395610174565b808961020784938b61048b565b5101518a610215868c61048b565b51015110610224575b016101e5565b61022e848a61048b565b51610239828b61048b565b51610244868c61048b565b5261024f858b61048b565b5061025a828b61048b565b52610265818a61048b565b5061021e565b84601187634e487b7160e01b5f52525ffd5b959694955f8661028e838686610467565b0135131561033357856102a2828585610467565b013560606102b1838686610467565b013560649081810291818304149015171561032157810180911161026b57905b6102dc818585610467565b356001600160a01b038116908190036100a2576001926102fa6103f5565b9182528a82015261030b828a61048b565b52610316818961048b565b500196959496610169565b85601188634e487b7160e01b5f52525ffd5b6060610340828585610467565b0135600a9081810291818304149015171561026b57906102d1565b96809896976103686103f5565b5f81525f8382015282828b010152019796959761015e565b9181601f840112156100a25782359167ffffffffffffffff83116100a257602083818601950101116100a257565b602080825282518183018190529093925f5b8281106103e157505060409293505f838284010152601f8019910116010190565b8181018601518482016040015285016103c0565b604051906040820182811067ffffffffffffffff82111761041557604052565b634e487b7160e01b5f52604160045260245ffd5b6040519190601f01601f1916820167ffffffffffffffff81118382101761041557604052565b67ffffffffffffffff81116104155760051b60200190565b91908110156104775760c0020190565b634e487b7160e01b5f52603260045260245ffd5b80518210156104775760209160051b010190565b9067ffffffffffffffff8111610415576104c2601f8201601f1916602001610429565b9181835236828201116100a257815f9260209283860137830101529056fea2646970667358221220e01eb99f7eff692fde2531a223148494041b9182287ee38e1a6ce3703a1eb2d964736f6c63430008180033","linkReferences":{}},"methodIdentifiers":{"crossover(bytes,bytes,uint256)":"c39b583f","evaluateFitness((address,int256,int256,uint256,int256,uint256)[])":"706857d7","mutate(bytes,uint256,uint256)":"a3cf16fa"},"id":48}