{"abi":[{"type":"function","name":"crossover","inputs":[{"name":"parent1Dna","type":"bytes","internalType":"bytes"},{"name":"","type":"bytes","internalType":"bytes"},{"name":"","type":"uint256","internalType":"uint256"}],"outputs":[{"name":"","type":"bytes","internalType":"bytes"}],"stateMutability":"pure"},{"type":"function","name":"evaluateFitness","inputs":[{"name":"records","type":"tuple[]","internalType":"struct IEvolutionEngine.PerformanceRecord[]","components":[{"name":"creatureAddr","type":"address","internalType":"address"},{"name":"lastReturn","type":"int256","internalType":"int256"},{"name":"cumulativeReturn","type":"int256","internalType":"int256"},{"name":"epochsSurvived","type":"uint256","internalType":"uint256"},{"name":"maxDrawdown","type":"int256","internalType":"int256"},{"name":"balance","type":"uint256","internalType":"uint256"}]}],"outputs":[{"name":"results","type":"tuple[]","internalType":"struct IEvolutionEngine.FitnessResult[]","components":[{"name":"creatureAddr","type":"address","internalType":"address"},{"name":"fitnessScore","type":"uint256","internalType":"uint256"}]}],"stateMutability":"pure"},{"type":"function","name":"mutate","inputs":[{"name":"dna","type":"bytes","internalType":"bytes"},{"name":"","type":"uint256","internalType":"uint256"},{"name":"","type":"uint256","internalType":"uint256"}],"outputs":[{"name":"","type":"bytes","internalType":"bytes"}],"stateMutability":"pure"}],"bytecode":{"object":"0x6080806040523461001657610545908161001c8239f35b600080fdfe6040608081526004908136101561001557600080fd5b6000803560e01c8063706857d7146100f0578063a3cf16fa146100b25763c39b583f1461004157600080fd5b346100ab5760603660031901126100ab5767ffffffffffffffff9280358481116100ae5761007290369083016103a3565b9490926024359182116100ab5750916100956100a7959261009c943691016103a3565b50506104cd565b9051918291826103d6565b0390f35b80fd5b8280fd5b50346100ab5760603660031901126100ab5782359067ffffffffffffffff82116100ab57506100ea6100a79361009c923691016103a3565b906104cd565b509190346100ae5760208060031936011261039f5782359267ffffffffffffffff80851161039b573660238601121561039b578482013590811161039b576024918286019583369160c085020101116103975761015961015483989597969861047b565b610455565b948286526101668361047b565b601f1901855b818110610370575050845b83811061028c575050835b8281106101e15750505050835193838594850191818652845180935281818701950193905b8382106101b45786860387f35b845180516001600160a01b03168752830151868401528796509485019493820193600191909101906101a7565b6001979596949780820180831161027a575b8481106102095750506001019693959496610182565b808761021684938c6104b9565b51015188610224868d6104b9565b51015110610233575b016101f3565b61023d848b6104b9565b51610248828c6104b9565b51610253868d6104b9565b5261025e858c6104b9565b50610269828c6104b9565b52610274818b6104b9565b5061022d565b634e487b7160e01b8a5260118452858afd5b9497959694888761029e838786610493565b0135131561034857866102b2828685610493565b013560606102c1838786610493565b013560649081810291818304149015171561033657810180911161027a57905b6102ec818685610493565b356001600160a01b038116908190036103325760019261030a61041f565b9182528882015261031b828b6104b9565b52610326818a6104b9565b50019794969597610177565b8a80fd5b634e487b7160e01b8b5260118552868bfd5b6060610355828685610493565b0135600a9081810291818304149015171561027a57906102e1565b97809699979861037e61041f565b8b81528b8382015282828c01015201989597969861016c565b8680fd5b8580fd5b8380fd5b9181601f840112156103d15782359167ffffffffffffffff83116103d157602083818601950101116103d157565b600080fd5b6020808252825181830181905290939260005b82811061040b57505060409293506000838284010152601f8019910116010190565b8181018601518482016040015285016103e9565b604051906040820182811067ffffffffffffffff82111761043f57604052565b634e487b7160e01b600052604160045260246000fd5b6040519190601f01601f1916820167ffffffffffffffff81118382101761043f57604052565b67ffffffffffffffff811161043f5760051b60200190565b91908110156104a35760c0020190565b634e487b7160e01b600052603260045260246000fd5b80518210156104a35760209160051b010190565b9067ffffffffffffffff811161043f576104f0601f8201601f1916602001610455565b9181835236828201116103d1578160009260209283860137830101529056fea2646970667358221220616af0afd245b51b8392cdab652d39c263cc407bf990e09df4750359e2704be164736f6c63430008180033","linkReferences":{}},"methodIdentifiers":{"crossover(bytes,bytes,uint256)":"c39b583f","evaluateFitness((address,int256,int256,uint256,int256,uint256)[])":"706857d7","mutate(bytes,uint256,uint256)":"a3cf16fa"},"id":44}