{"abi":[{"type":"constructor","inputs":[{"name":"_stablecoin","type":"address","internalType":"address"},{"name":"_xcmPrecompile","type":"address","internalType":"address"}],"stateMutability":"nonpayable"},{"type":"function","name":"computeAddress","inputs":[{"name":"_nonce","type":"uint256","internalType":"uint256"}],"outputs":[{"name":"","type":"address","internalType":"address"}],"stateMutability":"view"},{"type":"function","name":"deploy","inputs":[{"name":"dna","type":"tuple","internalType":"struct ICreature.DNA","components":[{"name":"targetChainId","type":"uint8","internalType":"uint8"},{"name":"poolType","type":"uint8","internalType":"uint8"},{"name":"allocationRatio","type":"uint16","internalType":"uint16"},{"name":"rebalanceThreshold","type":"uint16","internalType":"uint16"},{"name":"maxSlippage","type":"uint16","internalType":"uint16"},{"name":"yieldFloor","type":"uint16","internalType":"uint16"},{"name":"riskCeiling","type":"uint8","internalType":"uint8"},{"name":"entryTiming","type":"uint8","internalType":"uint8"},{"name":"exitTiming","type":"uint8","internalType":"uint8"},{"name":"hedgeRatio","type":"uint16","internalType":"uint16"}]},{"name":"gen","type":"uint256","internalType":"uint256"},{"name":"p1","type":"address","internalType":"address"},{"name":"p2","type":"address","internalType":"address"},{"name":"epoch","type":"uint256","internalType":"uint256"}],"outputs":[{"name":"creature","type":"address","internalType":"address"}],"stateMutability":"nonpayable"},{"type":"function","name":"ecosystem","inputs":[],"outputs":[{"name":"","type":"address","internalType":"address"}],"stateMutability":"view"},{"type":"function","name":"genePool","inputs":[],"outputs":[{"name":"","type":"address","internalType":"address"}],"stateMutability":"view"},{"type":"function","name":"nonce","inputs":[],"outputs":[{"name":"","type":"uint256","internalType":"uint256"}],"stateMutability":"view"},{"type":"function","name":"setEcosystem","inputs":[{"name":"_ecosystem","type":"address","internalType":"address"}],"outputs":[],"stateMutability":"nonpayable"},{"type":"function","name":"setGenePool","inputs":[{"name":"_genePool","type":"address","internalType":"address"}],"outputs":[],"stateMutability":"nonpayable"},{"type":"function","name":"stablecoin","inputs":[],"outputs":[{"name":"","type":"address","internalType":"address"}],"stateMutability":"view"},{"type":"function","name":"xcmPrecompile","inputs":[],"outputs":[{"name":"","type":"address","internalType":"address"}],"stateMutability":"view"},{"type":"event","name":"CreatureDeployed","inputs":[{"name":"creature","type":"address","indexed":true,"internalType":"address"},{"name":"generation","type":"uint256","indexed":false,"internalType":"uint256"},{"name":"parent1","type":"address","indexed":false,"internalType":"address"},{"name":"parent2","type":"address","indexed":false,"internalType":"address"},{"name":"nonce","type":"uint256","indexed":false,"internalType":"uint256"}],"anonymous":false}],"bytecode":{"object":"0x60803461008d57601f611a1e38819003918201601f19168301916001600160401b0383118484101761009157808492604094855283398101031261008d57610052602061004b836100a5565b92016100a5565b600280546001600160a01b039384166001600160a01b0319918216179091556003805492909316911617905560405161196490816100ba8239f35b5f80fd5b634e487b7160e01b5f52604160045260245ffd5b51906001600160a01b038216820361008d5756fe6080806040526004361015610012575f80fd5b5f905f3560e01c9081631021764e1461070557508063234b1ed5146106715780635abb48f31461028c57806371a48532146102635780638a6d2cc81461018b5780639c74a57914610164578063affed0e014610146578063e895c514146100ac5763e9cbd82214610081575f80fd5b346100a957806003193601126100a9576002546040516001600160a01b039091168152602090f35b80fd5b50346100a95760203660031901126100a9576100c6610728565b8154906001600160a01b03908183166100f25716906bffffffffffffffffffffffff60a01b1617815580f35b60405162461bcd60e51b815260206004820152602660248201527f4372656174757265466163746f72793a2065636f73797374656d20616c726561604482015265191e481cd95d60d21b6064820152608490fd5b50346100a957806003193601126100a9576020600454604051908152f35b50346100a957806003193601126100a957546040516001600160a01b039091168152602090f35b50346100a957602090816003193601126100a95750604051818101906101d7816101c944426004358791606093918352602083015260408201520190565b03601f19810183528261073e565b5190206111ce6040516101ec8483018261073e565b818152838101916107618339519020604051908382019260ff60f81b84523060601b60218401526035830152605582015260558152608081019181831067ffffffffffffffff84111761024f576040839052905190206001600160a01b03168152f35b634e487b7160e01b5f52604160045260245ffd5b50346100a957806003193601126100a9576001546040516001600160a01b039091168152602090f35b50346106005736600319016101c08112610600576101408091126106005760405190810181811067ffffffffffffffff82111761024f5760405260043560ff8116810361060057815260243560ff8116810361060057602082015260443561ffff8116810361060057604082015260643561ffff8116810361060057606082015260843561ffff8116810361060057608082015260a43561ffff811681036106005760a082015260c43560ff811681036106005760c082015260e43560ff811681036106005760e08201526101043560ff81168103610600576101008201526101243561ffff8116810361060057610120820152610164356001600160a01b038116900361060057610184356001600160a01b0381169003610600575f546001600160a01b03163314801561065d575b1561061857600454604080516020810183815242928201929092524460608201526103ea81608081016101c9565b519020905f198114610604576001016004556040516111ce80820182811067ffffffffffffffff82111761024f578291610761833903905ff59081156105f5575f546002546003546001600160a01b03908116929181169181169085163b156106005761ffff6101206040519563064ffe1760e51b875260ff815116600488015260ff60208201511660248801528260408201511660448801528260608201511660648801528260808201511660848801528260a08201511660a488015260ff60c08201511660c488015260ff60e08201511660e488015260ff610100820151166101048801520151166101248501526101443561014485015260018060a01b03610164351661016485015260018060a01b0361018435166101848501526101a4356101a48501526101c48401526101e48301526102048201525f81610224818360018060a01b0387165af180156105f5576105d8575b506004545f1981019081116105c457602092506040519061014435825260018060a01b0361016435168483015260018060a01b036101843516604083015260608201527fc10c81eb3eaae5d62671cfc710e7559996e2f54a70ccd614b0fb74d489571417608060018060a01b03841692a26040516001600160a01b039091168152f35b634e487b7160e01b83526011600452602483fd5b90915067ffffffffffffffff811161024f576040525f905f610541565b6040513d5f823e3d90fd5b5f80fd5b634e487b7160e01b5f52601160045260245ffd5b60405162461bcd60e51b815260206004820152601d60248201527f4372656174757265466163746f72793a20756e617574686f72697a65640000006044820152606490fd5b506001546001600160a01b031633146103bc565b346106005760203660031901126106005761068a610728565b600154906001600160a01b03908183166106b2576001600160a01b0319909216911617600155005b60405162461bcd60e51b815260206004820152602560248201527f4372656174757265466163746f72793a2067656e65506f6f6c20616c726561646044820152641e481cd95d60da1b6064820152608490fd5b34610600575f366003190112610600576003546001600160a01b03168152602090f35b600435906001600160a01b038216820361060057565b90601f8019910116810190811067ffffffffffffffff82111761024f5760405256fe60808060405234610016576111b3908161001b8239f35b5f80fdfe60806040526004361015610011575f80fd5b5f3560e01c806312c55e9214610c4d5780631721952214610c3057806318369a2a14610c135780632b0142a714610b195780632c8a4da214610af157806337a7b7d814610ab55780633e9717a814610a985780634136aa3514610a7657806341c0e1b51461098357806342de4e9c146109445780634641257d146107fc5780634c9ccd64146106f057806368caa980146106d35780637d2f2c4f1461057e5780637ec5796b1461056157806384f24c4b146105395780638cf383cc146105115780639c74a579146104e5578063b1d32387146104c8578063b69ef8a8146104ab578063c9ffc2e01461015f578063e9cbd822146101375763fcad023714610116575f80fd5b34610133575f366003190112610133576020600954604051908152f35b5f80fd5b34610133575f36600319011261013357600c546040516001600160a01b039091168152602090f35b34610133573660031901610220811261013357610140136101335760405161018681610c8b565b60043560ff8116810361013357815260243560ff8116810361013357602082015261ffff60443581811681036101335760408301526064358181168103610133576060830152608435818116810361013357608083015260a43581811681036101335760a083015260c43560ff811681036101335760c083015260e43560ff811681036101335760e08301526101043560ff811681036101335761010083015261012435908116810361013357610120820152610144359061016435906001600160a01b038216820361013357610184356001600160a01b0381169003610133576101c4356001600160a01b0381169003610133576101e4356001600160a01b038116810361013357610204356001600160a01b038116810361013357600d549060ff8260a01c16610466578360ff6001955116905f5460208201519263ffff0000604084015160101b169065ffff00000000606085015160201b1667ffff000000000000608086015160301b169069ffff000000000000000060a087015160401b169260ff60501b60c088015160501b169460ff60581b60e089015160581b169660ff60601b6101008a015160601b169861012061ffff60681b91015160681b169961ff0061ffff60681b199460ff60601b199360ff60581b199160ff60501b1916906affffffffffffffffffffff191617169160081b1617161716171717171717175f558584556bffffffffffffffffffffffff60a01b848060a01b038616816002541617600255848060a01b0361018435168160035416176003556101a435600455600b5493858060a01b031690600c541617600c556affffffffffffffffffffff60a81b91828560a01b92868060a01b031691161717600d556101008360a81b036101c43560081b1691161717600b5560405191825260018060a01b0316602082015260018060a01b03610184351660408201527f40752eb537c1e73908ef7d7a306167daf1e381c919c31d5cdf1b9261f281cb7360603092a2005b60405162461bcd60e51b815260206004820152601d60248201527f43726561747572653a20616c726561647920696e697469616c697a65640000006044820152606490fd5b34610133575f366003190112610133576020600554604051908152f35b34610133575f366003190112610133576020600454604051908152f35b34610133575f36600319011261013357600b5460405160089190911c6001600160a01b03168152602090f35b34610133575f366003190112610133576002546040516001600160a01b039091168152602090f35b34610133575f36600319011261013357600d546040516001600160a01b039091168152602090f35b34610133575f366003190112610133576020600854604051908152f35b34610133575f366003190112610133575f61012060405161059e81610c8b565b8281528260208201528260408201528260608201528260808201528260a08201528260c08201528260e08201528261010082015201526101406040516105e381610c8b565b61ffff6101205f549260ff8416815260ff8460081c166020820152828460101c166040820152828460201c166060820152828460301c166080820152828460401c1660a082015260ff8460501c1660c082015260ff8460581c1660e082015260ff8460601c16610100820152828460681c168282015260ff6040519416845260ff60208201511660208501528260408201511660408501528260608201511660608501528260808201511660808501528260a08201511660a085015260ff60c08201511660c085015260ff60e08201511660e085015260ff61010082015116610100850152015116610120820152f35b34610133575f366003190112610133576020600a54604051908152f35b34610133575f3660031901126101335760405160205f5460ff8116602084015260ff8160081c16604084015261ffff808260101c166060850152808260201c166080850152808260301c1660a0850152808260401c1660c085015260ff8260501c1660e085015260ff8260581c1661010085015260ff8260601c166101208501526101409160681c168184015282526101608083019280841067ffffffffffffffff8511176107e8578360405260208452805192836101808301525f5b8481106107d35750505f6101a0848301015261011f1992601f8019910116810103010190f35b80829184016101a083820151910152016107ad565b634e487b7160e01b5f52604160045260245ffd5b34610133575f3660031901126101335760246020600b5461083660ff60018060a01b0392610830848260081c163314610cca565b16610d16565b600c5416604051928380926370a0823160e01b82523060048301525afa908115610939575f91610907575b50600554905f8282039212818312811690828413901516176108f35781600755600854828101905f84831291129080158216911516176108f357600855600954600181018091116108f357600955600555600a5481126108ea575b6040519081527ff03075a9435aef20df63bed7d491dee62569fe894ce31200b22ae7b234366b6360203092a2005b80600a556108bc565b634e487b7160e01b5f52601160045260245ffd5b90506020813d602011610931575b8161092260209383610ca8565b81010312610133575181610861565b3d9150610915565b6040513d5f823e3d90fd5b34610133575f3660031901126101335760a0600754600854600954600a5490600554926040519485526020850152604084015260608301526080820152f35b34610133575f36600319011261013357600b546001600160a01b03600882901c8116916109b1338414610cca565b6109bd60ff8216610d16565b60ff1916600b55600c546040516370a0823160e01b815230600482015292911690602083602481855afa928315610939575f93610a42575b50829081610a31575b505f6005556040519081527f823c00587d2a84995a9a2485e62f0fa35d14fc579d718f508f3676cf0cfb6d6060203092a2005b610a3a926110ff565b8181816109fe565b9092506020813d602011610a6e575b81610a5e60209383610ca8565b81010312610133575191836109f5565b3d9150610a51565b34610133575f36600319011261013357602060ff600b54166040519015158152f35b34610133575f366003190112610133576020600754604051908152f35b34610133575f36600319011261013357600b54610ae79060ff9061083033600883901c6001600160a01b031614610cca565b610aef610e7d565b005b34610133575f366003190112610133576003546040516001600160a01b039091168152602090f35b3461013357602036600319011261013357600435600b5460018060a01b03610b4e60ff828460081c1693610830853314610cca565b600c5416604051916323b872dd60e01b5f52600452306024528260445260205f60648180855af160015f5114811615610bf4575b826040525f60605215610bdf5782610b9c81600554610e50565b60055560065415610bd6575b6040519081527fc13d71bab13b396b20b724287f7dcae94e3601e9d58e60d41856b4a96fa6415160203092a2005b80600655610ba8565b635274afe760e01b8252600482015260249150fd5b6001811516610c0a57813b15153d151616610b82565b823d5f823e3d90fd5b34610133575f366003190112610133576020600654604051908152f35b34610133575f366003190112610133576020600154604051908152f35b3461013357602036600319011261013357600b54610c809060ff9061083033600883901c6001600160a01b031614610cca565b610aef600435610d53565b610140810190811067ffffffffffffffff8211176107e857604052565b90601f8019910116810190811067ffffffffffffffff8211176107e857604052565b15610cd157565b60405162461bcd60e51b815260206004820152601e60248201527f43726561747572653a2063616c6c6572206e6f742065636f73797374656d00006044820152606490fd5b15610d1d57565b60405162461bcd60e51b815260206004820152600e60248201526d10dc99585d1d5c994e881919585960921b6044820152606490fd5b600c546040516370a0823160e01b808252306004830152602093909290916001600160a01b039182169083908681602481865afa908115610939575f91610e23575b50809111610e1b575b508215610e14578492610db99183600b5460081c16906110ff565b600c54169160246040518094819382523060048301525afa918215610939575f92610de6575b5050600555565b90809250813d8311610e0d575b610dfd8183610ca8565b8101031261013357515f80610ddf565b503d610df3565b5050505050565b92505f610d9e565b90508681813d8311610e49575b610e3a8183610ca8565b8101031261013357515f610d95565b503d610e30565b919082018092116108f357565b818102929181159184041417156108f357565b919082039182116108f357565b6005545f549061271061ffff9281610e9a858360101c1685610e5d565b04938415610e1457610eb09160681c1683610e5d565b049080610ebd8385610e50565b116110ee575b505080156110eb5760018060a01b0380600c54169080600d54169260409182519063095ea7b360e01b805f526004908782526024968588526020988995865f60448180875af160015f51148116156110de575b818a5215611022575b5050505060c4905f83600d541660ff82541694600c54168851998a968795632d72000360e01b87528601523090850152604484015286606484015260a060848401528160a48401525af18015611018575f90610fc0575b7f561cec2b400d5771cc9444b53f9a58237109038af047dbaf284406b5632c4f7e9350610fac575b8151934385528401523092a2565b610fb881600554610e70565b600555610f9e565b50918381813d8311611011575b610fd78183610ca8565b810103126101335751918215158303610133577f561cec2b400d5771cc9444b53f9a58237109038af047dbaf284406b5632c4f7e92610f76565b503d610fcd565b82513d5f823e3d90fd5b90919293949550835f528185525f8952895f60448180875af160015f51148116156110bf575b818952156110ab57508651925f528352848752875f60448180855af160015f5114811615611095575b8287521561108457808089959493610f1f565b8692635274afe760e01b8352820152fd5b6001811516610c0a57813b15153d151616611071565b635274afe760e01b81528481018390528890fd5b60018115166110d557833b15153d151616611048565b503d5f823e3d90fd5b833b15153d151616610f16565b50565b6110f89250610e70565b5f80610ec3565b60405163a9059cbb60e01b5f9081526001600160a01b039384166004526024949094529260209060448180855af160015f511481161561115e575b836040521561114857505050565b635274afe760e01b835216600482015260249150fd5b600181151661117457813b15153d15161661113a565b833d5f823e3d90fdfea264697066735822122035dc62eaa89de73c7e7b06d5f0d4e757e18d91cc88c32d02452445e43590f67264736f6c63430008180033a26469706673582212209685cd1dfd433249dc9131c4bd54040bcc0f596ac137320b3a46b2aafd443bdb64736f6c63430008180033","linkReferences":{}},"methodIdentifiers":{"computeAddress(uint256)":"8a6d2cc8","deploy((uint8,uint8,uint16,uint16,uint16,uint16,uint8,uint8,uint8,uint16),uint256,address,address,uint256)":"5abb48f3","ecosystem()":"9c74a579","genePool()":"71a48532","nonce()":"affed0e0","setEcosystem(address)":"e895c514","setGenePool(address)":"234b1ed5","stablecoin()":"e9cbd822","xcmPrecompile()":"1021764e"},"id":30}