{"abi":[{"type":"constructor","inputs":[{"name":"_stablecoin","type":"address","internalType":"address"},{"name":"_xcmPrecompile","type":"address","internalType":"address"}],"stateMutability":"nonpayable"},{"type":"function","name":"computeAddress","inputs":[{"name":"_nonce","type":"uint256","internalType":"uint256"}],"outputs":[{"name":"","type":"address","internalType":"address"}],"stateMutability":"view"},{"type":"function","name":"deploy","inputs":[{"name":"dna","type":"tuple","internalType":"struct ICreature.DNA","components":[{"name":"targetChainId","type":"uint8","internalType":"uint8"},{"name":"poolType","type":"uint8","internalType":"uint8"},{"name":"allocationRatio","type":"uint16","internalType":"uint16"},{"name":"rebalanceThreshold","type":"uint16","internalType":"uint16"},{"name":"maxSlippage","type":"uint16","internalType":"uint16"},{"name":"yieldFloor","type":"uint16","internalType":"uint16"},{"name":"riskCeiling","type":"uint8","internalType":"uint8"},{"name":"entryTiming","type":"uint8","internalType":"uint8"},{"name":"exitTiming","type":"uint8","internalType":"uint8"},{"name":"hedgeRatio","type":"uint16","internalType":"uint16"}]},{"name":"gen","type":"uint256","internalType":"uint256"},{"name":"p1","type":"address","internalType":"address"},{"name":"p2","type":"address","internalType":"address"},{"name":"epoch","type":"uint256","internalType":"uint256"}],"outputs":[{"name":"creature","type":"address","internalType":"address"}],"stateMutability":"nonpayable"},{"type":"function","name":"ecosystem","inputs":[],"outputs":[{"name":"","type":"address","internalType":"address"}],"stateMutability":"view"},{"type":"function","name":"genePool","inputs":[],"outputs":[{"name":"","type":"address","internalType":"address"}],"stateMutability":"view"},{"type":"function","name":"nonce","inputs":[],"outputs":[{"name":"","type":"uint256","internalType":"uint256"}],"stateMutability":"view"},{"type":"function","name":"setEcosystem","inputs":[{"name":"_ecosystem","type":"address","internalType":"address"}],"outputs":[],"stateMutability":"nonpayable"},{"type":"function","name":"setGenePool","inputs":[{"name":"_genePool","type":"address","internalType":"address"}],"outputs":[],"stateMutability":"nonpayable"},{"type":"function","name":"stablecoin","inputs":[],"outputs":[{"name":"","type":"address","internalType":"address"}],"stateMutability":"view"},{"type":"function","name":"xcmPrecompile","inputs":[],"outputs":[{"name":"","type":"address","internalType":"address"}],"stateMutability":"view"},{"type":"event","name":"CreatureDeployed","inputs":[{"name":"creature","type":"address","indexed":true,"internalType":"address"},{"name":"generation","type":"uint256","indexed":false,"internalType":"uint256"},{"name":"parent1","type":"address","indexed":false,"internalType":"address"},{"name":"parent2","type":"address","indexed":false,"internalType":"address"},{"name":"nonce","type":"uint256","indexed":false,"internalType":"uint256"}],"anonymous":false}],"bytecode":{"object":"0x60803461008d57601f611a7c38819003918201601f19168301916001600160401b0383118484101761009257808492604094855283398101031261008d57610052602061004b836100a8565b92016100a8565b600280546001600160a01b039384166001600160a01b031991821617909155600380549290931691161790556040516119bf90816100bd8239f35b600080fd5b634e487b7160e01b600052604160045260246000fd5b51906001600160a01b038216820361008d5756fe608080604052600436101561001357600080fd5b600090813560e01c9081631021764e1461073e57508063234b1ed5146106a35780635abb48f31461029157806371a48532146102685780638a6d2cc81461018e5780639c74a57914610167578063affed0e014610149578063e895c514146100af5763e9cbd8221461008457600080fd5b346100ac57806003193601126100ac576002546040516001600160a01b039091168152602090f35b80fd5b50346100ac5760203660031901126100ac576100c9610763565b8154906001600160a01b03908183166100f55716906bffffffffffffffffffffffff60a01b1617815580f35b60405162461bcd60e51b815260206004820152602660248201527f4372656174757265466163746f72793a2065636f73797374656d20616c726561604482015265191e481cd95d60d21b6064820152608490fd5b50346100ac57806003193601126100ac576020600454604051908152f35b50346100ac57806003193601126100ac57546040516001600160a01b039091168152602090f35b50346100ac57602090816003193601126100ac5750604051818101906101da816101cc44426004358791606093918352602083015260408201520190565b03601f19810183528261077e565b5190206111e96040516101ef8483018261077e565b818152838101916107a18339519020604051908382019260ff60f81b84523060601b60218401526035830152605582015260558152608081019181831067ffffffffffffffff841117610252576040839052905190206001600160a01b03168152f35b634e487b7160e01b600052604160045260246000fd5b50346100ac57806003193601126100ac576001546040516001600160a01b039091168152602090f35b50346100ac573660031901906101c082126100ac576101408092126100ac5760405191820182811067ffffffffffffffff8211176106025760405260043560ff8116810361069f57825260243560ff8116810361069f57602083015260443561ffff8116810361069f57604083015260643561ffff8116810361069f57606083015260843561ffff8116810361069f57608083015260a43561ffff8116810361069f5760a083015260c43560ff8116810361069f5760c083015260e43560ff8116810361069f5760e08301526101043560ff8116810361069f576101008301526101243561ffff8116810361069f57610120830152610164356001600160a01b03811690036100ac57610184356001600160a01b03811690036100ac5780546001600160a01b03163314801561068b575b1561064657600454604080516020810183815242928201929092524460608201526103f081608081016101cc565b5190209060001981146105d657600101600455604051806111e981011067ffffffffffffffff6111e983011117610632576111e96107a18239806111e98101039083f59182156106255781546002546003546001600160a01b03908116929181169181169086163b156106215761ffff6101206040519563064ffe1760e51b875260ff815116600488015260ff60208201511660248801528260408201511660448801528260608201511660648801528260808201511660848801528260a08201511660a488015260ff60c08201511660c488015260ff60e08201511660e488015260ff610100820151166101048801520151166101248501526101443561014485015260018060a01b03610164351661016485015260018060a01b0361018435166101848501526101a4356101a48501526101c48401526101e48301526102048201528181610224818360018060a01b0388165af18015610616576105ea575b509060045460001981019081116105d657602092506040519061014435825260018060a01b0361016435168483015260018060a01b036101843516604083015260608201527fc10c81eb3eaae5d62671cfc710e7559996e2f54a70ccd614b0fb74d489571417608060018060a01b03841692a26040516001600160a01b039091168152f35b634e487b7160e01b83526011600452602483fd5b67ffffffffffffffff81116106025760405238610551565b634e487b7160e01b82526041600452602482fd5b6040513d84823e3d90fd5b8480fd5b50604051903d90823e3d90fd5b634e487b7160e01b83526041600452602483fd5b60405162461bcd60e51b815260206004820152601d60248201527f4372656174757265466163746f72793a20756e617574686f72697a65640000006044820152606490fd5b506001546001600160a01b031633146103c2565b5080fd5b50346100ac5760203660031901126100ac576106bd610763565b600154906001600160a01b03908183166106eb5716906bffffffffffffffffffffffff60a01b161760015580f35b60405162461bcd60e51b815260206004820152602560248201527f4372656174757265466163746f72793a2067656e65506f6f6c20616c726561646044820152641e481cd95d60da1b6064820152608490fd5b90503461069f578160031936011261069f576003546001600160a01b03168152602090f35b600435906001600160a01b038216820361077957565b600080fd5b90601f8019910116810190811067ffffffffffffffff8211176102525760405256fe60808060405234610016576111cd908161001c8239f35b600080fdfe6080604052600436101561001257600080fd5b60003560e01c806312c55e9214610c7d5780631721952214610c5f57806318369a2a14610c415780632b0142a714610b425780632c8a4da214610b1957806337a7b7d814610adc5780633e9717a814610abe5780634136aa3514610a9b57806341c0e1b5146109a557806342de4e9c146109655780634641257d146108165780634c9ccd641461070457806368caa980146106e65780637d2f2c4f1461058e5780637ec5796b1461057057806384f24c4b146105475780638cf383cc1461051e5780639c74a579146104f1578063b1d32387146104d3578063b69ef8a8146104b5578063c9ffc2e014610165578063e9cbd8221461013c5763fcad02371461011957600080fd5b34610137576000366003190112610137576020600954604051908152f35b600080fd5b3461013757600036600319011261013757600c546040516001600160a01b039091168152602090f35b34610137573660031901610220811261013757610140136101375760405161018c81610cbb565b60043560ff8116810361013757815260243560ff8116810361013757602082015261ffff60443581811681036101375760408301526064358181168103610137576060830152608435818116810361013757608083015260a43581811681036101375760a083015260c43560ff811681036101375760c083015260e43560ff811681036101375760e08301526101043560ff81168103610137576101008301526101243590811681036101375761012082015261016435906001600160a01b038216820361013757610184356001600160a01b0381169003610137576101c4356001600160a01b0381169003610137576101e4356001600160a01b038116810361013757610204356001600160a01b038116810361013757600d549060ff8260a01c16610470578360ff60019551169060005460208201519263ffff0000604084015160101b169065ffff00000000606085015160201b1667ffff000000000000608086015160301b169069ffff000000000000000060a087015160401b169260ff60501b60c088015160501b169460ff60581b60e089015160581b169660ff60601b6101008a015160601b169861012061ffff60681b91015160681b169961ff0061ffff60681b199460ff60601b199360ff60581b199160ff60501b1916906affffffffffffffffffffff191617169160081b1617161716171717171717176000556101443584556bffffffffffffffffffffffff60a01b848060a01b038616816002541617600255848060a01b0361018435168160035416176003556101a435600455600b5493858060a01b031690600c541617600c556affffffffffffffffffffff60a81b91828560a01b92868060a01b031691161717600d556101008360a81b036101c43560081b1691161717600b556040519061014435825260018060a01b0316602082015260018060a01b03610184351660408201527f40752eb537c1e73908ef7d7a306167daf1e381c919c31d5cdf1b9261f281cb7360603092a2005b60405162461bcd60e51b815260206004820152601d60248201527f43726561747572653a20616c726561647920696e697469616c697a65640000006044820152606490fd5b34610137576000366003190112610137576020600554604051908152f35b34610137576000366003190112610137576020600454604051908152f35b3461013757600036600319011261013757600b5460405160089190911c6001600160a01b03168152602090f35b34610137576000366003190112610137576002546040516001600160a01b039091168152602090f35b3461013757600036600319011261013757600d546040516001600160a01b039091168152602090f35b34610137576000366003190112610137576020600854604051908152f35b346101375760003660031901126101375760006101206040516105b081610cbb565b8281528260208201528260408201528260608201528260808201528260a08201528260c08201528260e08201528261010082015201526101406040516105f581610cbb565b61ffff6101206000549260ff8416815260ff8460081c166020820152828460101c166040820152828460201c166060820152828460301c166080820152828460401c1660a082015260ff8460501c1660c082015260ff8460581c1660e082015260ff8460601c16610100820152828460681c168282015260ff6040519416845260ff60208201511660208501528260408201511660408501528260608201511660608501528260808201511660808501528260a08201511660a085015260ff60c08201511660c085015260ff60e08201511660e085015260ff61010082015116610100850152015116610120820152f35b34610137576000366003190112610137576020600a54604051908152f35b3461013757600036600319011261013757604051602060005460ff8116602084015260ff8160081c16604084015261ffff808260101c166060850152808260201c166080850152808260301c1660a0850152808260401c1660c085015260ff8260501c1660e085015260ff8260581c1661010085015260ff8260601c166101208501526101409160681c168184015282526101608083019280841067ffffffffffffffff8511176108005783604052602084528051928361018083015260005b8481106107eb57505060006101a0848301015261011f1992601f8019910116810103010190f35b80829184016101a083820151910152016107c4565b634e487b7160e01b600052604160045260246000fd5b346101375760003660031901126101375760246020600b5461085160ff60018060a01b039261084b848260081c163314610cfa565b16610d46565b600c5416604051928380926370a0823160e01b82523060048301525afa90811561095957600091610927575b5060055490600082820392128183128116908284139015161761091157816007556008548281019060008483129112908015821691151617610911576008556009546001810180911161091157600955600555600a548112610908575b6040519081527ff03075a9435aef20df63bed7d491dee62569fe894ce31200b22ae7b234366b6360203092a2005b80600a556108da565b634e487b7160e01b600052601160045260246000fd5b90506020813d602011610951575b8161094260209383610cd8565b8101031261013757518161087d565b3d9150610935565b6040513d6000823e3d90fd5b346101375760003660031901126101375760a0600754600854600954600a5490600554926040519485526020850152604084015260608301526080820152f35b3461013757600036600319011261013757600b546001600160a01b03600882901c8116916109d4338414610cfa565b6109e060ff8216610d46565b60ff1916600b55600c546040516370a0823160e01b815230600482015292911690602083602481855afa92831561095957600093610a67575b50829081610a56575b5060006005556040519081527f823c00587d2a84995a9a2485e62f0fa35d14fc579d718f508f3676cf0cfb6d6060203092a2005b610a5f92611116565b818181610a22565b9092506020813d602011610a93575b81610a8360209383610cd8565b8101031261013757519183610a19565b3d9150610a76565b3461013757600036600319011261013757602060ff600b54166040519015158152f35b34610137576000366003190112610137576020600754604051908152f35b3461013757600036600319011261013757600b54610b0f9060ff9061084b33600883901c6001600160a01b031614610cfa565b610b17610ea2565b005b34610137576000366003190112610137576003546040516001600160a01b039091168152602090f35b3461013757602036600319011261013757600435600b5460018060a01b03610b7760ff828460081c169361084b853314610cfa565b600c5416604051916323b872dd60e01b60005260045230602452826044526020600060648180855af1600160005114811615610c21575b82604052600060605215610c0c5782610bc981600554610e82565b60055560065415610c03575b6040519081527fc13d71bab13b396b20b724287f7dcae94e3601e9d58e60d41856b4a96fa6415160203092a2005b80600655610bd5565b635274afe760e01b8252600482015260249150fd5b6001811516610c3757813b15153d151616610bae565b823d6000823e3d90fd5b34610137576000366003190112610137576020600654604051908152f35b34610137576000366003190112610137576020600154604051908152f35b3461013757602036600319011261013757600b54610cb09060ff9061084b33600883901c6001600160a01b031614610cfa565b610b17600435610d83565b610140810190811067ffffffffffffffff82111761080057604052565b90601f8019910116810190811067ffffffffffffffff82111761080057604052565b15610d0157565b60405162461bcd60e51b815260206004820152601e60248201527f43726561747572653a2063616c6c6572206e6f742065636f73797374656d00006044820152606490fd5b15610d4d57565b60405162461bcd60e51b815260206004820152600e60248201526d10dc99585d1d5c994e881919585960921b6044820152606490fd5b600c546040516370a0823160e01b808252306004830152602093909290916001600160a01b039182169083908681602481865afa90811561095957600091610e55575b50809111610e4d575b508215610e46578492610dea9183600b5460081c1690611116565b600c54169160246040518094819382523060048301525afa91821561095957600092610e18575b5050600555565b90809250813d8311610e3f575b610e2f8183610cd8565b8101031261013757513880610e11565b503d610e25565b5050505050565b925038610dcf565b90508681813d8311610e7b575b610e6c8183610cd8565b81010312610137575138610dc6565b503d610e62565b9190820180921161091157565b8181029291811591840414171561091157565b60055460009081549061271061ffff9281610ec2858360101c1685610e8f565b0493841561110e57610ed89160681c1683610e8f565b0481610ee48285610e82565b116110e9575b505080156110e55760018060a01b039081600c54169282600d54169360409384519063095ea7b360e01b8085526004908882526024948786526020998a95868960448180875af160018a51148116156110d8575b818c5215611013575b5050505060c4908583600d541660ff82541694600c54168a519788968795632d72000360e01b87528601523090850152604484015288606484015260a060848401528160a48401525af1801561100957610fcf575b5050907f561cec2b400d5771cc9444b53f9a58237109038af047dbaf284406b5632c4f7e918151934385528401523092a2565b8481813d8311611002575b610fe48183610cd8565b81010312610ffe575180151503610ffb5780610f9c565b80fd5b5080fd5b503d610fda565b84513d84823e3d90fd5b909192939495508388528185528787528a8860448180875af160018951148116156110b9575b818b52156110a5575088519287528352868552888660448180855af16001875114811615611086575b828952156110755780808a959493610f47565b8492635274afe760e01b8352820152fd5b600181151661109c57813b15153d151616611062565b823d88823e3d90fd5b635274afe760e01b81528481018390528690fd5b60018115166110cf57833b15153d151616611039565b503d88823e3d90fd5b833b15153d151616610f3e565b5050565b8103915081116110fa573880610eea565b634e487b7160e01b82526011600452602482fd5b505050505050565b60405163a9059cbb60e01b60009081526001600160a01b039384166004526024949094529260209060448180855af1600160005114811615611177575b836040521561116157505050565b635274afe760e01b835216600482015260249150fd5b600181151661118d57813b15153d151616611153565b833d6000823e3d90fdfea2646970667358221220306d6fb5383eb0d17f4782a7a56e8d06f6c84566acd9770aae61f6c18643a96464736f6c63430008180033a2646970667358221220cf70236c21af5b5f8f952cc27db920609fe837bf9d0c264138d78839d2cccf9f64736f6c63430008180033","linkReferences":{}},"methodIdentifiers":{"computeAddress(uint256)":"8a6d2cc8","deploy((uint8,uint8,uint16,uint16,uint16,uint16,uint8,uint8,uint8,uint16),uint256,address,address,uint256)":"5abb48f3","ecosystem()":"9c74a579","genePool()":"71a48532","nonce()":"affed0e0","setEcosystem(address)":"e895c514","setGenePool(address)":"234b1ed5","stablecoin()":"e9cbd822","xcmPrecompile()":"1021764e"},"id":30}