{"abi":[{"type":"constructor","inputs":[{"name":"_ecosystem","type":"address","internalType":"address"},{"name":"_factory","type":"address","internalType":"address"},{"name":"_evolutionEngine","type":"address","internalType":"address"},{"name":"_survivalThreshold","type":"uint256","internalType":"uint256"},{"name":"_deathThreshold","type":"uint256","internalType":"uint256"},{"name":"_mutationRate","type":"uint256","internalType":"uint256"},{"name":"_maxPopulation","type":"uint256","internalType":"uint256"},{"name":"_seeder","type":"address","internalType":"address"}],"stateMutability":"nonpayable"},{"type":"function","name":"deathThreshold","inputs":[],"outputs":[{"name":"","type":"uint256","internalType":"uint256"}],"stateMutability":"view"},{"type":"function","name":"ecosystem","inputs":[],"outputs":[{"name":"","type":"address","internalType":"address"}],"stateMutability":"view"},{"type":"function","name":"evolutionEngine","inputs":[],"outputs":[{"name":"","type":"address","internalType":"contract IEvolutionEngine"}],"stateMutability":"view"},{"type":"function","name":"factory","inputs":[],"outputs":[{"name":"","type":"address","internalType":"contract CreatureFactory"}],"stateMutability":"view"},{"type":"function","name":"getPendingKills","inputs":[],"outputs":[{"name":"","type":"address[]","internalType":"address[]"}],"stateMutability":"view"},{"type":"function","name":"injectSeed","inputs":[{"name":"dna","type":"tuple","internalType":"struct ICreature.DNA","components":[{"name":"targetChainId","type":"uint8","internalType":"uint8"},{"name":"poolType","type":"uint8","internalType":"uint8"},{"name":"allocationRatio","type":"uint16","internalType":"uint16"},{"name":"rebalanceThreshold","type":"uint16","internalType":"uint16"},{"name":"maxSlippage","type":"uint16","internalType":"uint16"},{"name":"yieldFloor","type":"uint16","internalType":"uint16"},{"name":"riskCeiling","type":"uint8","internalType":"uint8"},{"name":"entryTiming","type":"uint8","internalType":"uint8"},{"name":"exitTiming","type":"uint8","internalType":"uint8"},{"name":"hedgeRatio","type":"uint16","internalType":"uint16"}]},{"name":"currentEpoch","type":"uint256","internalType":"uint256"}],"outputs":[{"name":"creature","type":"address","internalType":"address"}],"stateMutability":"nonpayable"},{"type":"function","name":"maxPopulation","inputs":[],"outputs":[{"name":"","type":"uint256","internalType":"uint256"}],"stateMutability":"view"},{"type":"function","name":"mutationRate","inputs":[],"outputs":[{"name":"","type":"uint256","internalType":"uint256"}],"stateMutability":"view"},{"type":"function","name":"runEvolution","inputs":[{"name":"creatures","type":"address[]","internalType":"address[]"},{"name":"currentEpoch","type":"uint256","internalType":"uint256"}],"outputs":[{"name":"newPopulation","type":"address[]","internalType":"address[]"}],"stateMutability":"nonpayable"},{"type":"function","name":"seeder","inputs":[],"outputs":[{"name":"","type":"address","internalType":"address"}],"stateMutability":"view"},{"type":"function","name":"survivalThreshold","inputs":[],"outputs":[{"name":"","type":"uint256","internalType":"uint256"}],"stateMutability":"view"},{"type":"event","name":"CreatureBred","inputs":[{"name":"offspring","type":"address","indexed":true,"internalType":"address"},{"name":"parent1","type":"address","indexed":true,"internalType":"address"},{"name":"parent2","type":"address","indexed":true,"internalType":"address"},{"name":"generation","type":"uint256","indexed":false,"internalType":"uint256"}],"anonymous":false},{"type":"event","name":"CreatureKilled","inputs":[{"name":"creature","type":"address","indexed":true,"internalType":"address"},{"name":"fitnessScore","type":"uint256","indexed":false,"internalType":"uint256"}],"anonymous":false},{"type":"event","name":"EvolutionRun","inputs":[{"name":"epoch","type":"uint256","indexed":false,"internalType":"uint256"},{"name":"totalCreatures","type":"uint256","indexed":false,"internalType":"uint256"},{"name":"killed","type":"uint256","indexed":false,"internalType":"uint256"},{"name":"bred","type":"uint256","indexed":false,"internalType":"uint256"}],"anonymous":false},{"type":"event","name":"SeedInjected","inputs":[{"name":"creature","type":"address","indexed":true,"internalType":"address"}],"anonymous":false}],"bytecode":{"object":"0x608034620001ad57601f6200168f38819003918201601f19168301916001600160401b03831184841017620001b15780849261010094604052833981010312620001ad576200004e81620001c5565b906200005d60208201620001c5565b6200006b60408301620001c5565b916060810151608082015160a0830151916200008f60e060c08601519501620001c5565b94828201808311620001995761271080911162000155578411620001045760018060a01b03968780928160018060a01b03199b168b5f5416175f551689600154161760015516876002541617600255600355600455600555600655169060075416176007556040516114b49081620001db8239f35b60405162461bcd60e51b815260206004820152602360248201527f47656e65506f6f6c3a206d75746174696f6e526174652065786365656473203160448201526230302560e81b6064820152608490fd5b606460405162461bcd60e51b815260206004820152602060248201527f47656e65506f6f6c3a207468726573686f6c64732065786365656420313030256044820152fd5b634e487b7160e01b5f52601160045260245ffd5b5f80fd5b634e487b7160e01b5f52604160045260245ffd5b51906001600160a01b0382168203620001ad5756fe6080604090808252600480361015610015575f80fd5b5f3560e01c918263028932901461050b57508163097569fc146104ed57816317729a82146104cf5781634f51c6ea146104b3578163684931ed1461048b5781636f37ab5c146101c057508063841326fc146101a257806393a58ccb146101135780639c74a579146100ec578063c45a0155146100c45763ecbb0e6e14610099575f80fd5b346100c0575f3660031901126100c05760025490516001600160a01b039091168152602090f35b5f80fd5b50346100c0575f3660031901126100c05760015490516001600160a01b039091168152602090f35b50346100c0575f3660031901126100c0575f5490516001600160a01b039091168152602090f35b50346100c0575f3660031901126100c0578051600880548083525f918252602080840194927ff3f7a9fe364faab93b216da50a3214154f22a0a2b415b23a84c8169e8b636ee392915b8282106101825761017e8686610174828b0383610658565b51918291826105c7565b0390f35b83546001600160a01b03168752958601956001938401939091019061015c565b50346100c0575f3660031901126100c0576020906005549051908152f35b82346100c057366003190161016081126100c057610140136100c0578051906101e88261060b565b823560ff811681036100c057825260249283359360ff851685036100c0576020948585015260443561ffff9081811681036100c0578486015260643581811681036100c057606086015260843581811681036100c057608086015260a43581811681036100c05760a086015260c43560ff811681036100c05760c086015260e43560ff811681036100c05760e08601526101043560ff811681036100c0576101008601526101243590811681036100c0576101208501526007546001600160a01b03946101449186163303610449576102df6101c488925f896001541689519687958694635abb48f360e01b86528b860190611320565b82818501528261016485015282610184850152356101a48401525af190811561043f575f9161040a575b50845f5416908451958787019163b4ab303b60e01b8352169586848201528381526060810181811067ffffffffffffffff8211176103f8578652515f9283929083905af13d156103f3573d61035d8161139d565b9061036a86519283610658565b81525f873d92013e5b156103a55750505190807f8c262ccc988568bba2b06e93cf293b75d1f20eba3c2eec24257274d945bce63b5f80a28152f35b60259085608494519362461bcd60e51b85528401528201527f47656e65506f6f6c3a206661696c656420746f20726567697374657220637265604482015264617475726560d81b6064820152fd5b610373565b84604187634e487b7160e01b5f52525ffd5b90508581813d8311610438575b6104218183610658565b810103126100c057610432906106de565b86610309565b503d610417565b84513d5f823e3d90fd5b845162461bcd60e51b8152808501889052601b818501527f47656e65506f6f6c3a2063616c6c6572206e6f742073656564657200000000006044820152606490fd5b82346100c0575f3660031901126100c05760075490516001600160a01b039091168152602090f35b82346100c0575f3660031901126100c057602091549051908152f35b82346100c0575f3660031901126100c0576020906006549051908152f35b82346100c0575f3660031901126100c0576020906003549051908152f35b8390346100c057816003193601126100c05782359067ffffffffffffffff908183116100c057366023840112156100c057828501359182116100c0573660248360051b850101116100c0575f546001600160a01b031633036105865761017e8461057b8585602480359201610766565b9051918291826105c7565b62461bcd60e51b8152602085820152601e60248201527f47656e65506f6f6c3a2063616c6c6572206e6f742065636f73797374656d00006044820152606490fd5b60209060206040818301928281528551809452019301915f5b8281106105ee575050505090565b83516001600160a01b0316855293810193928101926001016105e0565b610140810190811067ffffffffffffffff82111761062857604052565b634e487b7160e01b5f52604160045260245ffd5b60a0810190811067ffffffffffffffff82111761062857604052565b90601f8019910116810190811067ffffffffffffffff82111761062857604052565b67ffffffffffffffff81116106285760051b60200190565b91908110156106a25760051b0190565b634e487b7160e01b5f52603260045260245ffd5b356001600160a01b03811681036100c05790565b80518210156106a25760209160051b010190565b51906001600160a01b03821682036100c057565b8181029291811591840414171561070557565b634e487b7160e01b5f52601160045260245ffd5b9190820391821161070557565b906107308261067a565b61073d6040519182610658565b828152809261074e601f199161067a565b0190602036910137565b5f1981146107055760010190565b92919080156112bd576107788161067a565b906107866040519283610658565b8082526107928161067a565b601f19015f5b8181106112885750505f5b81811061119e575060018060a01b036002541660405180936324c42f2560e11b8252602482016020600484015281518091526020604484019201905f5b81811061114f575050509181805f9403915afa918215610ed6575f92611084575b506127109081610813600354836106f2565b04916002831061107b575b818311611072575b610832600454836106f2565b04918183101561105f575b61084683610726565b905f5b848110610fe7575060011c9361085f8484610719565b90600654828082115f14610fdf5761087691610719565b808711610fd7575b5061088886610726565b915f5b878110610ab55750868101809111610705576108a690610726565b985f915f5b8681106109f7575050505f905b8682106109c35750505080519067ffffffffffffffff8211610628576801000000000000000082116106285760085482600855808310610983575b5060200160085f525f5b82811061094657505050917fd62d18d8359e08a2c6b9f34986ea65232382b95760e585f63fd3062ffd32c49d9391608093604051938452602084015260408301526060820152a1565b81516001600160a01b03167ff3f7a9fe364faab93b216da50a3214154f22a0a2b415b23a84c8169e8b636ee38201556020909101906001016108fd565b827ff3f7a9fe364faab93b216da50a3214154f22a0a2b415b23a84c8169e8b636ee391820191015b8181106109b857506108f3565b5f81556001016109ab565b6001906109ef908b6109e9826001600160a01b036109e1888a6106ca565b5116926106ca565b52610758565b9101906108b8565b8b875f805b8b8110610a53575b5015610a15575b50506001016108ab565b94610a4991610a3a82610a34610a2f876001989b8b610692565b6106b6565b926106ca565b90848060a01b03169052610758565b9390508b87610a0b565b909250905f19810111610705576001600160a01b03610a7e610a78835f198d01610719565b866106ca565b5151166001600160a01b03610a97610a2f868d8a610692565b1614610aa9576001018d9189916109fc565b50508b8760015f610a04565b808060011b046002148115171561070557610ad38160011b846106ca565b515190600181811b018160011b1161070557610af4600182811b01856106ca565b5151604051630b90ca9160e11b81529092906020816004816001600160a01b0386165afa908115610ed6575f91610fa5575b50604051630b90ca9160e11b81526020816004816001600160a01b0389165afa908115610ed6575f91610f73575b5080821115610f6c57505b60018101811161070557604051631327335960e21b8152935f856004816001600160a01b0387165afa948515610ed6575f95610f50575b50604051631327335960e21b81525f816004816001600160a01b0386165afa908115610ed6575f91610f36575b50604051954460208801524260408801526bffffffffffffffffffffffff19808660601b1660608901528360601b1660748801526088600185018189015287528660c081011067ffffffffffffffff60c0890111176106285760c087016040525f610c6f885160208a012093610c5d60018060a01b03600254169463c39b583f60e01b60c08d0152606060c48d01526101248c019061143c565b8a810360c3190160e48c01529061143c565b610104890184905260c089019089900360bf190181845afa968715610ed6575f97610f05575b506005546040516351e78b7d60e11b815260606004820152975f938993928492839290610cc690606485019061143c565b91602484015260801c604483015203915afa948515610ed6575f95610ee1575b50848051610140968791810103126100c057610de46101c48f97602093610db360405192610d138461060b565b610d1e878401611461565b8452610d2c60408401611461565b87850152610d3c6060840161146f565b6040850152610d4d6080840161146f565b606085015260a0610d5f81850161146f565b6080860152610d7060c0850161146f565b9085015260e092610d82848201611461565b60c086015261010093610d96858301611461565b9086015261012093610da9858301611461565b908601520161146f565b90820152600154604051635abb48f360e01b8152998a9485935f936001600160a01b03169291906004860190611320565b600189016101448501526001600160a01b038a811661016486015288166101848501526101a48401525af1948515610ed6575f95610e75575b50937feb61da15b15a1cb184a520bdc69c31814b267c363966694722e769546d27b1526020600196610e4f878c6106ca565b60a089901b8990039485169081905260405195890186529084169590931693a40161088b565b94506020853d602011610ece575b81610e9060209383610658565b810103126100c0577feb61da15b15a1cb184a520bdc69c31814b267c363966694722e769546d27b1526020610ec66001976106de565b965050610e1d565b3d9150610e83565b6040513d5f823e3d90fd5b610efe9195503d805f833e610ef68183610658565b8101906113da565b935f610ce6565b5f92919750610f2e9060c0803d80878386013e610f2481838601610658565b83010191016113da565b969091610c95565b610f4a91503d805f833e610ef68183610658565b5f610bc3565b610f659195503d805f833e610ef68183610658565b935f610b96565b9050610b5f565b90506020813d602011610f9d575b81610f8e60209383610658565b810103126100c057515f610b54565b3d9150610f81565b90506020813d602011610fcf575b81610fc060209383610658565b810103126100c057515f610b26565b3d9150610fb3565b95505f61087e565b50505f610876565b835f1981011161070557600190611001815f198701610719565b7fb11be711614c674cc0f990b27ba4fbf7f385413ad7982fd5af32117ea03a4e5f60208061104f8b61103986898060a01b03926106ca565b5151169485611048888c6106ca565b528c6106ca565b510151604051908152a201610849565b91505f198101818111610705579161083d565b91508091610826565b6002925061081e565b9091503d805f833e6110968183610658565b8101906020818303126100c057805167ffffffffffffffff918282116100c0570182601f820112156100c0578051916110ce8361067a565b936110dc6040519586610658565b83855260208086019460061b840101928184116100c057602001935b83851061110b575050505050905f610801565b6040858303126100c0576040519060408201908282108583111761062857604092602092845261113a886106de565b815282880151838201528152019401936110f8565b825180516001600160a01b031685526020818101518187015260408083015190870152606080830151908701526080918201519186019190915288955060a090940193909201916001016107e0565b6001600160a01b0390816111b6610a2f83868b610692565b169160405180936310b793a760e21b825281600460a09384935afa908115610ed65785945f8b5f925f945f9661123a575b5050610a2f876001996111f993610692565b94604051956112078761063c565b168552602085015260408401526060830152608082015261122882866106ca565b5261123381856106ca565b50016107a3565b955097505050505083813d8311611281575b6112568183610658565b810103126100c057825160208401516040850151606090950151869590929091908b610a2f876111e7565b503d61124c565b6020906040516112978161063c565b5f81525f838201525f60408201525f60608201525f608082015282828701015201610798565b90506112cb8193929361067a565b916112d96040519384610658565b818352602091602084019060051b8201913683116100c057905b828210611301575050505090565b81356001600160a01b03811681036100c05781529083019083016112f3565b60ff815116825260ff6020820151166020830152604081015161ffff80911660408401528060608301511660608401528060808301511660808401528060a08301511660a084015260ff60c08301511660c084015260ff60e08301511660e084015261010060ff8184015116908401526101208092015116910152565b67ffffffffffffffff811161062857601f01601f191660200190565b5f5b8381106113ca5750505f910152565b81810151838201526020016113bb565b6020818303126100c05780519067ffffffffffffffff82116100c0570181601f820112156100c057805161140d8161139d565b9261141b6040519485610658565b818452602082840101116100c05761143991602080850191016113b9565b90565b90602091611455815180928185528580860191016113b9565b601f01601f1916010190565b519060ff821682036100c057565b519061ffff821682036100c05756fea26469706673582212204c1522735f310b0f82415be7d500747550888c65d0208ec9971627f8c9d54de564736f6c63430008180033","linkReferences":{}},"methodIdentifiers":{"deathThreshold()":"4f51c6ea","ecosystem()":"9c74a579","evolutionEngine()":"ecbb0e6e","factory()":"c45a0155","getPendingKills()":"93a58ccb","injectSeed((uint8,uint8,uint16,uint16,uint16,uint16,uint8,uint8,uint8,uint16),uint256)":"6f37ab5c","maxPopulation()":"17729a82","mutationRate()":"841326fc","runEvolution(address[],uint256)":"02893290","seeder()":"684931ed","survivalThreshold()":"097569fc"},"id":32}