{"abi":[{"type":"constructor","inputs":[{"name":"_ecosystem","type":"address","internalType":"address"},{"name":"_factory","type":"address","internalType":"address"},{"name":"_evolutionEngine","type":"address","internalType":"address"},{"name":"_survivalThreshold","type":"uint256","internalType":"uint256"},{"name":"_deathThreshold","type":"uint256","internalType":"uint256"},{"name":"_mutationRate","type":"uint256","internalType":"uint256"},{"name":"_maxPopulation","type":"uint256","internalType":"uint256"},{"name":"_seeder","type":"address","internalType":"address"}],"stateMutability":"nonpayable"},{"type":"function","name":"deathThreshold","inputs":[],"outputs":[{"name":"","type":"uint256","internalType":"uint256"}],"stateMutability":"view"},{"type":"function","name":"ecosystem","inputs":[],"outputs":[{"name":"","type":"address","internalType":"address"}],"stateMutability":"view"},{"type":"function","name":"evolutionEngine","inputs":[],"outputs":[{"name":"","type":"address","internalType":"contract IEvolutionEngine"}],"stateMutability":"view"},{"type":"function","name":"factory","inputs":[],"outputs":[{"name":"","type":"address","internalType":"contract CreatureFactory"}],"stateMutability":"view"},{"type":"function","name":"getPendingKills","inputs":[],"outputs":[{"name":"","type":"address[]","internalType":"address[]"}],"stateMutability":"view"},{"type":"function","name":"injectSeed","inputs":[{"name":"dna","type":"tuple","internalType":"struct ICreature.DNA","components":[{"name":"targetChainId","type":"uint8","internalType":"uint8"},{"name":"poolType","type":"uint8","internalType":"uint8"},{"name":"allocationRatio","type":"uint16","internalType":"uint16"},{"name":"rebalanceThreshold","type":"uint16","internalType":"uint16"},{"name":"maxSlippage","type":"uint16","internalType":"uint16"},{"name":"yieldFloor","type":"uint16","internalType":"uint16"},{"name":"riskCeiling","type":"uint8","internalType":"uint8"},{"name":"entryTiming","type":"uint8","internalType":"uint8"},{"name":"exitTiming","type":"uint8","internalType":"uint8"},{"name":"hedgeRatio","type":"uint16","internalType":"uint16"}]},{"name":"currentEpoch","type":"uint256","internalType":"uint256"}],"outputs":[{"name":"creature","type":"address","internalType":"address"}],"stateMutability":"nonpayable"},{"type":"function","name":"maxPopulation","inputs":[],"outputs":[{"name":"","type":"uint256","internalType":"uint256"}],"stateMutability":"view"},{"type":"function","name":"mutationRate","inputs":[],"outputs":[{"name":"","type":"uint256","internalType":"uint256"}],"stateMutability":"view"},{"type":"function","name":"runEvolution","inputs":[{"name":"creatures","type":"address[]","internalType":"address[]"},{"name":"currentEpoch","type":"uint256","internalType":"uint256"}],"outputs":[{"name":"newPopulation","type":"address[]","internalType":"address[]"}],"stateMutability":"nonpayable"},{"type":"function","name":"seeder","inputs":[],"outputs":[{"name":"","type":"address","internalType":"address"}],"stateMutability":"view"},{"type":"function","name":"survivalThreshold","inputs":[],"outputs":[{"name":"","type":"uint256","internalType":"uint256"}],"stateMutability":"view"},{"type":"event","name":"CreatureBred","inputs":[{"name":"offspring","type":"address","indexed":true,"internalType":"address"},{"name":"parent1","type":"address","indexed":true,"internalType":"address"},{"name":"parent2","type":"address","indexed":true,"internalType":"address"},{"name":"generation","type":"uint256","indexed":false,"internalType":"uint256"}],"anonymous":false},{"type":"event","name":"CreatureKilled","inputs":[{"name":"creature","type":"address","indexed":true,"internalType":"address"},{"name":"fitnessScore","type":"uint256","indexed":false,"internalType":"uint256"}],"anonymous":false},{"type":"event","name":"EvolutionRun","inputs":[{"name":"epoch","type":"uint256","indexed":false,"internalType":"uint256"},{"name":"totalCreatures","type":"uint256","indexed":false,"internalType":"uint256"},{"name":"killed","type":"uint256","indexed":false,"internalType":"uint256"},{"name":"bred","type":"uint256","indexed":false,"internalType":"uint256"}],"anonymous":false},{"type":"event","name":"SeedInjected","inputs":[{"name":"creature","type":"address","indexed":true,"internalType":"address"}],"anonymous":false}],"bytecode":{"object":"0x608034620001ad57601f620015ac38819003918201601f19168301916001600160401b03831184841017620001b15780849261010094604052833981010312620001ad576200004e81620001c5565b906200005d60208201620001c5565b6200006b60408301620001c5565b916060810151608082015160a0830151916200008f60e060c08601519501620001c5565b94828201808311620001995761271080911162000155578411620001045760018060a01b03968780928160018060a01b03199b168b5f5416175f551689600154161760015516876002541617600255600355600455600555600655169060075416176007556040516113d19081620001db8239f35b60405162461bcd60e51b815260206004820152602360248201527f47656e65506f6f6c3a206d75746174696f6e526174652065786365656473203160448201526230302560e81b6064820152608490fd5b606460405162461bcd60e51b815260206004820152602060248201527f47656e65506f6f6c3a207468726573686f6c64732065786365656420313030256044820152fd5b634e487b7160e01b5f52601160045260245ffd5b5f80fd5b634e487b7160e01b5f52604160045260245ffd5b51906001600160a01b0382168203620001ad5756fe6080604090808252600480361015610015575f80fd5b5f3560e01c918263028932901461043a57508163097569fc1461041c57816317729a82146103fe5781634f51c6ea146103e2578163684931ed146103ba5781636f37ab5c146101c057508063841326fc146101a257806393a58ccb146101135780639c74a579146100ec578063c45a0155146100c45763ecbb0e6e14610099575f80fd5b346100c0575f3660031901126100c05760025490516001600160a01b039091168152602090f35b5f80fd5b50346100c0575f3660031901126100c05760015490516001600160a01b039091168152602090f35b50346100c0575f3660031901126100c0575f5490516001600160a01b039091168152602090f35b50346100c0575f3660031901126100c0578051600880548083525f918252602080840194927ff3f7a9fe364faab93b216da50a3214154f22a0a2b415b23a84c8169e8b636ee392915b8282106101825761017e8686610174828b0383610587565b51918291826104f6565b0390f35b83546001600160a01b03168752958601956001938401939091019061015c565b50346100c0575f3660031901126100c0576020906005549051908152f35b82346100c057366003190161016081126100c057610140136100c0578051916101e88361053a565b803560ff811681036100c05783526024359260ff841684036100c0576020938482015260443561ffff9081811681036100c0578483015260643581811681036100c057606083015260843581811681036100c057608083015260a43581811681036100c05760a083015260c43560ff811681036100c05760c083015260e43560ff811681036100c05760e08301526101043560ff811681036100c0576101008301526101243590811681036100c0576101208201526007546001600160a01b039290610144908416330361037757916101c486925f6102e09587600154169089519788968795635abb48f360e01b875286019061124f565b82818501528261016485015282610184850152356101a48401525af190811561036d575f91610338575b5016905190807f8c262ccc988568bba2b06e93cf293b75d1f20eba3c2eec24257274d945bce63b5f80a28152f35b90508381813d8311610366575b61034f8183610587565b810103126100c0576103609061060d565b8461030a565b503d610345565b83513d5f823e3d90fd5b845162461bcd60e51b8152808301879052601b60248201527f47656e65506f6f6c3a2063616c6c6572206e6f742073656564657200000000006044820152606490fd5b82346100c0575f3660031901126100c05760075490516001600160a01b039091168152602090f35b82346100c0575f3660031901126100c057602091549051908152f35b82346100c0575f3660031901126100c0576020906006549051908152f35b82346100c0575f3660031901126100c0576020906003549051908152f35b8390346100c057816003193601126100c05782359067ffffffffffffffff908183116100c057366023840112156100c057828501359182116100c0573660248360051b850101116100c0575f546001600160a01b031633036104b55761017e846104aa8585602480359201610695565b9051918291826104f6565b62461bcd60e51b8152602085820152601e60248201527f47656e65506f6f6c3a2063616c6c6572206e6f742065636f73797374656d00006044820152606490fd5b60209060206040818301928281528551809452019301915f5b82811061051d575050505090565b83516001600160a01b03168552938101939281019260010161050f565b610140810190811067ffffffffffffffff82111761055757604052565b634e487b7160e01b5f52604160045260245ffd5b60a0810190811067ffffffffffffffff82111761055757604052565b90601f8019910116810190811067ffffffffffffffff82111761055757604052565b67ffffffffffffffff81116105575760051b60200190565b91908110156105d15760051b0190565b634e487b7160e01b5f52603260045260245ffd5b356001600160a01b03811681036100c05790565b80518210156105d15760209160051b010190565b51906001600160a01b03821682036100c057565b8181029291811591840414171561063457565b634e487b7160e01b5f52601160045260245ffd5b9190820391821161063457565b9061065f826105a9565b61066c6040519182610587565b828152809261067d601f19916105a9565b0190602036910137565b5f1981146106345760010190565b92919080156111ec576106a7816105a9565b906106b56040519283610587565b8082526106c1816105a9565b601f19015f5b8181106111b75750505f5b8181106110cd575060018060a01b036002541660405180936324c42f2560e11b8252602482016020600484015281518091526020604484019201905f5b81811061107e575050509181805f9403915afa918215610e05575f92610fb3575b50612710908161074260035483610621565b049160028310610faa575b818311610fa1575b61076160045483610621565b049181831015610f8e575b61077583610655565b905f5b848110610f16575060011c9361078e8484610648565b90600654828082115f14610f0e576107a591610648565b808711610f06575b506107b786610655565b915f5b8781106109e45750868101809111610634576107d590610655565b985f915f5b868110610926575050505f905b8682106108f25750505080519067ffffffffffffffff82116105575768010000000000000000821161055757600854826008558083106108b2575b5060200160085f525f5b82811061087557505050917fd62d18d8359e08a2c6b9f34986ea65232382b95760e585f63fd3062ffd32c49d9391608093604051938452602084015260408301526060820152a1565b81516001600160a01b03167ff3f7a9fe364faab93b216da50a3214154f22a0a2b415b23a84c8169e8b636ee382015560209091019060010161082c565b827ff3f7a9fe364faab93b216da50a3214154f22a0a2b415b23a84c8169e8b636ee391820191015b8181106108e75750610822565b5f81556001016108da565b60019061091e908b610918826001600160a01b03610910888a6105f9565b5116926105f9565b52610687565b9101906107e7565b8b875f805b8b8110610982575b5015610944575b50506001016107da565b94610978916109698261096361095e876001989b8b6105c1565b6105e5565b926105f9565b90848060a01b03169052610687565b9390508b8761093a565b909250905f19810111610634576001600160a01b036109ad6109a7835f198d01610648565b866105f9565b5151166001600160a01b036109c661095e868d8a6105c1565b16146109d8576001018d91899161092b565b50508b8760015f610933565b808060011b046002148115171561063457610a028160011b846105f9565b515190600181811b018160011b1161063457610a23600182811b01856105f9565b5151604051630b90ca9160e11b81529092906020816004816001600160a01b0386165afa908115610e05575f91610ed4575b50604051630b90ca9160e11b81526020816004816001600160a01b0389165afa908115610e05575f91610ea2575b5080821115610e9b57505b60018101811161063457604051631327335960e21b8152935f856004816001600160a01b0387165afa948515610e05575f95610e7f575b50604051631327335960e21b81525f816004816001600160a01b0386165afa908115610e05575f91610e65575b50604051954460208801524260408801526bffffffffffffffffffffffff19808660601b1660608901528360601b1660748801526088600185018189015287528660c081011067ffffffffffffffff60c0890111176105575760c087016040525f610b9e885160208a012093610b8c60018060a01b03600254169463c39b583f60e01b60c08d0152606060c48d01526101248c0190611359565b8a810360c3190160e48c015290611359565b610104890184905260c089019089900360bf190181845afa968715610e05575f97610e34575b506005546040516351e78b7d60e11b815260606004820152975f938993928492839290610bf5906064850190611359565b91602484015260801c604483015203915afa948515610e05575f95610e10575b50848051610140968791810103126100c057610d136101c48f97602093610ce260405192610c428461053a565b610c4d87840161137e565b8452610c5b6040840161137e565b87850152610c6b6060840161138c565b6040850152610c7c6080840161138c565b606085015260a0610c8e81850161138c565b6080860152610c9f60c0850161138c565b9085015260e092610cb184820161137e565b60c086015261010093610cc585830161137e565b9086015261012093610cd885830161137e565b908601520161138c565b90820152600154604051635abb48f360e01b8152998a9485935f936001600160a01b0316929190600486019061124f565b600189016101448501526001600160a01b038a811661016486015288166101848501526101a48401525af1948515610e05575f95610da4575b50937feb61da15b15a1cb184a520bdc69c31814b267c363966694722e769546d27b1526020600196610d7e878c6105f9565b60a089901b8990039485169081905260405195890186529084169590931693a4016107ba565b94506020853d602011610dfd575b81610dbf60209383610587565b810103126100c0577feb61da15b15a1cb184a520bdc69c31814b267c363966694722e769546d27b1526020610df560019761060d565b965050610d4c565b3d9150610db2565b6040513d5f823e3d90fd5b610e2d9195503d805f833e610e258183610587565b8101906112ed565b935f610c15565b5f92919750610e5d9060c0803d80878386013e610e5381838601610587565b83010191016112ed565b969091610bc4565b610e7991503d805f833e610e258183610587565b5f610af2565b610e949195503d805f833e610e258183610587565b935f610ac5565b9050610a8e565b90506020813d602011610ecc575b81610ebd60209383610587565b810103126100c057515f610a83565b3d9150610eb0565b90506020813d602011610efe575b81610eef60209383610587565b810103126100c057515f610a55565b3d9150610ee2565b95505f6107ad565b50505f6107a5565b835f1981011161063457600190610f30815f198701610648565b7fb11be711614c674cc0f990b27ba4fbf7f385413ad7982fd5af32117ea03a4e5f602080610f7e8b610f6886898060a01b03926105f9565b5151169485610f77888c6105f9565b528c6105f9565b510151604051908152a201610778565b91505f198101818111610634579161076c565b91508091610755565b6002925061074d565b9091503d805f833e610fc58183610587565b8101906020818303126100c057805167ffffffffffffffff918282116100c0570182601f820112156100c057805191610ffd836105a9565b9361100b6040519586610587565b83855260208086019460061b840101928184116100c057602001935b83851061103a575050505050905f610730565b6040858303126100c057604051906040820190828210858311176105575760409260209284526110698861060d565b81528288015183820152815201940193611027565b825180516001600160a01b031685526020818101518187015260408083015190870152606080830151908701526080918201519186019190915288955060a0909401939092019160010161070f565b6001600160a01b0390816110e561095e83868b6105c1565b169160405180936310b793a760e21b825281600460a09384935afa908115610e055785945f8b5f925f945f96611169575b505061095e87600199611128936105c1565b94604051956111368761056b565b168552602085015260408401526060830152608082015261115782866105f9565b5261116281856105f9565b50016106d2565b955097505050505083813d83116111b0575b6111858183610587565b810103126100c057825160208401516040850151606090950151869590929091908b61095e87611116565b503d61117b565b6020906040516111c68161056b565b5f81525f838201525f60408201525f60608201525f6080820152828287010152016106c7565b90506111fa819392936105a9565b916112086040519384610587565b818352602091602084019060051b8201913683116100c057905b828210611230575050505090565b81356001600160a01b03811681036100c0578152908301908301611222565b60ff815116825260ff6020820151166020830152604081015161ffff80911660408401528060608301511660608401528060808301511660808401528060a08301511660a084015260ff60c08301511660c084015260ff60e08301511660e084015261010060ff8184015116908401526101208092015116910152565b5f5b8381106112dd5750505f910152565b81810151838201526020016112ce565b6020818303126100c057805167ffffffffffffffff918282116100c057019082601f830112156100c05781519081116105575760405192611338601f8301601f191660200185610587565b818452602082840101116100c05761135691602080850191016112cc565b90565b90602091611372815180928185528580860191016112cc565b601f01601f1916010190565b519060ff821682036100c057565b519061ffff821682036100c05756fea264697066735822122030af3ffb97536c962178d5de0d067fd75d694fbb17e9e49bc5beddc4839057fa64736f6c63430008180033","linkReferences":{}},"methodIdentifiers":{"deathThreshold()":"4f51c6ea","ecosystem()":"9c74a579","evolutionEngine()":"ecbb0e6e","factory()":"c45a0155","getPendingKills()":"93a58ccb","injectSeed((uint8,uint8,uint16,uint16,uint16,uint16,uint8,uint8,uint8,uint16),uint256)":"6f37ab5c","maxPopulation()":"17729a82","mutationRate()":"841326fc","runEvolution(address[],uint256)":"02893290","seeder()":"684931ed","survivalThreshold()":"097569fc"},"id":32}