{"abi":[{"type":"constructor","inputs":[{"name":"_ecosystem","type":"address","internalType":"address"},{"name":"_factory","type":"address","internalType":"address"},{"name":"_evolutionEngine","type":"address","internalType":"address"},{"name":"_survivalThreshold","type":"uint256","internalType":"uint256"},{"name":"_deathThreshold","type":"uint256","internalType":"uint256"},{"name":"_mutationRate","type":"uint256","internalType":"uint256"},{"name":"_maxPopulation","type":"uint256","internalType":"uint256"},{"name":"_seeder","type":"address","internalType":"address"}],"stateMutability":"nonpayable"},{"type":"function","name":"deathThreshold","inputs":[],"outputs":[{"name":"","type":"uint256","internalType":"uint256"}],"stateMutability":"view"},{"type":"function","name":"ecosystem","inputs":[],"outputs":[{"name":"","type":"address","internalType":"address"}],"stateMutability":"view"},{"type":"function","name":"evolutionEngine","inputs":[],"outputs":[{"name":"","type":"address","internalType":"contract IEvolutionEngine"}],"stateMutability":"view"},{"type":"function","name":"factory","inputs":[],"outputs":[{"name":"","type":"address","internalType":"contract CreatureFactory"}],"stateMutability":"view"},{"type":"function","name":"getFitness","inputs":[{"name":"creature","type":"address","internalType":"address"}],"outputs":[{"name":"","type":"uint256","internalType":"uint256"}],"stateMutability":"view"},{"type":"function","name":"getLastScoredCreatures","inputs":[],"outputs":[{"name":"","type":"address[]","internalType":"address[]"}],"stateMutability":"view"},{"type":"function","name":"getPendingKills","inputs":[],"outputs":[{"name":"","type":"address[]","internalType":"address[]"}],"stateMutability":"view"},{"type":"function","name":"injectSeed","inputs":[{"name":"dna","type":"tuple","internalType":"struct ICreature.DNA","components":[{"name":"targetChainId","type":"uint8","internalType":"uint8"},{"name":"poolType","type":"uint8","internalType":"uint8"},{"name":"allocationRatio","type":"uint16","internalType":"uint16"},{"name":"rebalanceThreshold","type":"uint16","internalType":"uint16"},{"name":"maxSlippage","type":"uint16","internalType":"uint16"},{"name":"yieldFloor","type":"uint16","internalType":"uint16"},{"name":"riskCeiling","type":"uint8","internalType":"uint8"},{"name":"entryTiming","type":"uint8","internalType":"uint8"},{"name":"exitTiming","type":"uint8","internalType":"uint8"},{"name":"hedgeRatio","type":"uint16","internalType":"uint16"}]},{"name":"currentEpoch","type":"uint256","internalType":"uint256"}],"outputs":[{"name":"creature","type":"address","internalType":"address"}],"stateMutability":"nonpayable"},{"type":"function","name":"lastFitnessScores","inputs":[{"name":"","type":"address","internalType":"address"}],"outputs":[{"name":"","type":"uint256","internalType":"uint256"}],"stateMutability":"view"},{"type":"function","name":"maxPopulation","inputs":[],"outputs":[{"name":"","type":"uint256","internalType":"uint256"}],"stateMutability":"view"},{"type":"function","name":"mutationRate","inputs":[],"outputs":[{"name":"","type":"uint256","internalType":"uint256"}],"stateMutability":"view"},{"type":"function","name":"runEvolution","inputs":[{"name":"creatures","type":"address[]","internalType":"address[]"},{"name":"currentEpoch","type":"uint256","internalType":"uint256"}],"outputs":[{"name":"newPopulation","type":"address[]","internalType":"address[]"}],"stateMutability":"nonpayable"},{"type":"function","name":"seeder","inputs":[],"outputs":[{"name":"","type":"address","internalType":"address"}],"stateMutability":"view"},{"type":"function","name":"survivalThreshold","inputs":[],"outputs":[{"name":"","type":"uint256","internalType":"uint256"}],"stateMutability":"view"},{"type":"event","name":"CreatureBred","inputs":[{"name":"offspring","type":"address","indexed":true,"internalType":"address"},{"name":"parent1","type":"address","indexed":true,"internalType":"address"},{"name":"parent2","type":"address","indexed":true,"internalType":"address"},{"name":"generation","type":"uint256","indexed":false,"internalType":"uint256"}],"anonymous":false},{"type":"event","name":"CreatureKilled","inputs":[{"name":"creature","type":"address","indexed":true,"internalType":"address"},{"name":"fitnessScore","type":"uint256","indexed":false,"internalType":"uint256"}],"anonymous":false},{"type":"event","name":"EvolutionRun","inputs":[{"name":"epoch","type":"uint256","indexed":false,"internalType":"uint256"},{"name":"totalCreatures","type":"uint256","indexed":false,"internalType":"uint256"},{"name":"killed","type":"uint256","indexed":false,"internalType":"uint256"},{"name":"bred","type":"uint256","indexed":false,"internalType":"uint256"}],"anonymous":false},{"type":"event","name":"SeedInjected","inputs":[{"name":"creature","type":"address","indexed":true,"internalType":"address"}],"anonymous":false}],"bytecode":{"object":"0x608034620001ad57601f620018e938819003918201601f19168301916001600160401b03831184841017620001b15780849261010094604052833981010312620001ad576200004e81620001c5565b906200005d60208201620001c5565b6200006b60408301620001c5565b916060810151608082015160a0830151916200008f60e060c08601519501620001c5565b94828201808311620001995761271080911162000155578411620001045760018060a01b03968780928160018060a01b03199b168b5f5416175f5516896001541617600155168760025416176002556003556004556005556006551690600754161760075560405161170e9081620001db8239f35b60405162461bcd60e51b815260206004820152602360248201527f47656e65506f6f6c3a206d75746174696f6e526174652065786365656473203160448201526230302560e81b6064820152608490fd5b606460405162461bcd60e51b815260206004820152602060248201527f47656e65506f6f6c3a207468726573686f6c64732065786365656420313030256044820152fd5b634e487b7160e01b5f52601160045260245ffd5b5f80fd5b634e487b7160e01b5f52604160045260245ffd5b51906001600160a01b0382168203620001ad5756fe6080604090808252600480361015610015575f80fd5b5f3560e01c91826302893290146105e457508163097569fc146105c657816317729a82146105a85781634f51c6ea1461058c578163684931ed146105645781636f37ab5c1461029957508063841326fc1461027b57806393a58ccb146101fa5780639c74a579146101d3578063bbcf53511461019c578063c02095ab1461019c578063c45a015514610174578063c7fbdf29146100e55763ecbb0e6e146100ba575f80fd5b346100e1575f3660031901126100e15760025490516001600160a01b039091168152602090f35b5f80fd5b50346100e1575f3660031901126100e1578051600980548083525f918252602080840194927f6e1540171b6c0c960b71a7020d9f60077f6af931a8bbf590da0223dacf75c7af92915b828210610154576101508686610146828b0383610731565b51918291826106a0565b0390f35b83546001600160a01b03168752958601956001938401939091019061012e565b50346100e1575f3660031901126100e15760015490516001600160a01b039091168152602090f35b50346100e15760203660031901126100e1576020906001600160a01b036101c1610753565b165f5260088252805f20549051908152f35b50346100e1575f3660031901126100e1575f5490516001600160a01b039091168152602090f35b50346100e1575f3660031901126100e1578051600a80548083525f918252602080840194927fc65a7bb8d6351c1cf70c95a316cc6a92839c986682d98bc35f958f4883f9d2a892915b82821061025b576101508686610146828b0383610731565b83546001600160a01b031687529586019560019384019390910190610243565b50346100e1575f3660031901126100e1576020906005549051908152f35b82346100e157366003190161016081126100e157610140136100e1578051906102c1826106e4565b823560ff811681036100e157825260249283359360ff851685036100e1576020948585015260443561ffff9081811681036100e1578486015260643581811681036100e157606086015260843581811681036100e157608086015260a43581811681036100e15760a086015260c43560ff811681036100e15760c086015260e43560ff811681036100e15760e08601526101043560ff811681036100e1576101008601526101243590811681036100e1576101208501526007546001600160a01b03946101449186163303610522576103b86101c488925f896001541689519687958694635abb48f360e01b86528b86019061157a565b82818501528261016485015282610184850152356101a48401525af1908115610518575f916104e3575b50845f5416908451958787019163b4ab303b60e01b8352169586848201528381526060810181811067ffffffffffffffff8211176104d1578652515f9283929083905af13d156104cc573d610436816115f7565b9061044386519283610731565b81525f873d92013e5b1561047e5750505190807f8c262ccc988568bba2b06e93cf293b75d1f20eba3c2eec24257274d945bce63b5f80a28152f35b60259085608494519362461bcd60e51b85528401528201527f47656e65506f6f6c3a206661696c656420746f20726567697374657220637265604482015264617475726560d81b6064820152fd5b61044c565b84604187634e487b7160e01b5f52525ffd5b90508581813d8311610511575b6104fa8183610731565b810103126100e15761050b906107cd565b866103e2565b503d6104f0565b84513d5f823e3d90fd5b845162461bcd60e51b8152808501889052601b818501527f47656e65506f6f6c3a2063616c6c6572206e6f742073656564657200000000006044820152606490fd5b82346100e1575f3660031901126100e15760075490516001600160a01b039091168152602090f35b82346100e1575f3660031901126100e157602091549051908152f35b82346100e1575f3660031901126100e1576020906006549051908152f35b82346100e1575f3660031901126100e1576020906003549051908152f35b8390346100e157816003193601126100e15782359067ffffffffffffffff908183116100e157366023840112156100e157828501359182116100e1573660248360051b850101116100e1575f546001600160a01b0316330361065f5761015084610654858560248035920161088a565b9051918291826106a0565b62461bcd60e51b8152602085820152601e60248201527f47656e65506f6f6c3a2063616c6c6572206e6f742065636f73797374656d00006044820152606490fd5b60209060206040818301928281528551809452019301915f5b8281106106c7575050505090565b83516001600160a01b0316855293810193928101926001016106b9565b610140810190811067ffffffffffffffff82111761070157604052565b634e487b7160e01b5f52604160045260245ffd5b60a0810190811067ffffffffffffffff82111761070157604052565b90601f8019910116810190811067ffffffffffffffff82111761070157604052565b600435906001600160a01b03821682036100e157565b67ffffffffffffffff81116107015760051b60200190565b91908110156107915760051b0190565b634e487b7160e01b5f52603260045260245ffd5b356001600160a01b03811681036100e15790565b80518210156107915760209160051b010190565b51906001600160a01b03821682036100e157565b6009548110156107915760095f527f6e1540171b6c0c960b71a7020d9f60077f6af931a8bbf590da0223dacf75c7af01905f90565b8181029291811591840414171561082957565b634e487b7160e01b5f52601160045260245ffd5b9190820391821161082957565b9061085482610769565b6108616040519182610731565b8281528092610872601f1991610769565b0190602036910137565b5f1981146108295760010190565b92919281156115195761089c82610769565b906108aa6040519283610731565b8282526108b683610769565b601f19015f5b8181106114e45750505f5b838110611403575060018060a01b036002541660405180936324c42f2560e11b8252602482016020600484015281518091526020604484019201905f5b8181106113b4575050509181805f9403915afa9182156110da575f926112ca575b505f5b60095481101561095f578061093e6001926107e1565b838060a01b0391549060031b1c165f5260086020525f604081205501610928565b509091926009946009545f60095580611288575b505f5b8451811015610a0557602061098b82876107b9565b5101516001600160a01b036109a083886107b9565b5151165f908152600860205260409020556001600160a01b036109c382876107b9565b51511690875491600160401b831015610701576109e68360018095018b556107e1565b819291549060031b91821b91858060a01b03901b191617905501610976565b5092919450926127109081610a1c60035483610816565b04916002831061127f575b818311611276575b610a3b60045483610816565b049181831015611263575b610a4f8361084a565b905f5b8481106111eb575060011c93610a68848461083d565b90600654828082115f146111e357610a7f9161083d565b8087116111db575b50610a918661084a565b915f5b878110610cb9575086810180911161082957610aaf9061084a565b985f915f5b868110610bfb575050505f905b868210610bc75750505080519067ffffffffffffffff821161070157600160401b821161070157600a5482600a55808310610b87575b50602001600a5f525f5b828110610b4a57505050917fd62d18d8359e08a2c6b9f34986ea65232382b95760e585f63fd3062ffd32c49d9391608093604051938452602084015260408301526060820152a1565b81516001600160a01b03167fc65a7bb8d6351c1cf70c95a316cc6a92839c986682d98bc35f958f4883f9d2a8820155602090910190600101610b01565b827fc65a7bb8d6351c1cf70c95a316cc6a92839c986682d98bc35f958f4883f9d2a891820191015b818110610bbc5750610af7565b5f8155600101610baf565b600190610bf3908b610bed826001600160a01b03610be5888a6107b9565b5116926107b9565b5261087c565b910190610ac1565b8b875f805b8b8110610c57575b5015610c19575b5050600101610ab4565b94610c4d91610c3e82610c38610c33876001989b8b610781565b6107a5565b926107b9565b90848060a01b0316905261087c565b9390508b87610c0f565b909250905f19810111610829576001600160a01b03610c82610c7c835f198d0161083d565b866107b9565b5151166001600160a01b03610c9b610c33868d8a610781565b1614610cad576001018d918991610c00565b50508b8760015f610c08565b808060011b046002148115171561082957610cd78160011b846107b9565b515190600181811b018160011b1161082957610cf8600182811b01856107b9565b5151604051630b90ca9160e11b81529092906020816004816001600160a01b0386165afa9081156110da575f916111a9575b50604051630b90ca9160e11b81526020816004816001600160a01b0389165afa9081156110da575f91611177575b508082111561117057505b60018101811161082957604051631327335960e21b8152935f856004816001600160a01b0387165afa9485156110da575f95611154575b50604051631327335960e21b81525f816004816001600160a01b0386165afa9081156110da575f9161113a575b50604051954460208801524260408801526bffffffffffffffffffffffff19808660601b1660608901528360601b1660748801526088600185018189015287528660c081011067ffffffffffffffff60c0890111176107015760c087016040525f610e73885160208a012093610e6160018060a01b03600254169463c39b583f60e01b60c08d0152606060c48d01526101248c0190611696565b8a810360c3190160e48c015290611696565b610104890184905260c089019089900360bf190181845afa9687156110da575f97611109575b506005546040516351e78b7d60e11b815260606004820152975f938993928492839290610eca906064850190611696565b91602484015260801c604483015203915afa9485156110da575f956110e5575b50848051610140968791810103126100e157610fe86101c48f97602093610fb760405192610f17846106e4565b610f228784016116bb565b8452610f30604084016116bb565b87850152610f40606084016116c9565b6040850152610f51608084016116c9565b606085015260a0610f638185016116c9565b6080860152610f7460c085016116c9565b9085015260e092610f868482016116bb565b60c086015261010093610f9a8583016116bb565b9086015261012093610fad8583016116bb565b90860152016116c9565b90820152600154604051635abb48f360e01b8152998a9485935f936001600160a01b0316929190600486019061157a565b600189016101448501526001600160a01b038a811661016486015288166101848501526101a48401525af19485156110da575f95611079575b50937feb61da15b15a1cb184a520bdc69c31814b267c363966694722e769546d27b1526020600196611053878c6107b9565b60a089901b8990039485169081905260405195890186529084169590931693a401610a94565b94506020853d6020116110d2575b8161109460209383610731565b810103126100e1577feb61da15b15a1cb184a520bdc69c31814b267c363966694722e769546d27b15260206110ca6001976107cd565b965050611021565b3d9150611087565b6040513d5f823e3d90fd5b6111029195503d805f833e6110fa8183610731565b810190611634565b935f610eea565b5f929197506111329060c0803d80878386013e61112881838601610731565b8301019101611634565b969091610e99565b61114e91503d805f833e6110fa8183610731565b5f610dc7565b6111699195503d805f833e6110fa8183610731565b935f610d9a565b9050610d63565b90506020813d6020116111a1575b8161119260209383610731565b810103126100e157515f610d58565b3d9150611185565b90506020813d6020116111d3575b816111c460209383610731565b810103126100e157515f610d2a565b3d91506111b7565b95505f610a87565b50505f610a7f565b835f1981011161082957600190611205815f19870161083d565b7fb11be711614c674cc0f990b27ba4fbf7f385413ad7982fd5af32117ea03a4e5f6020806112538b61123d86898060a01b03926107b9565b515116948561124c888c6107b9565b528c6107b9565b510151604051908152a201610a52565b91505f1981018181116108295791610a46565b91508091610a2f565b60029250610a27565b60095f527f6e1540171b6c0c960b71a7020d9f60077f6af931a8bbf590da0223dacf75c7af908101905b8181106112bf5750610973565b5f81556001016112b2565b9091503d805f833e6112dc8183610731565b60208282810103126100e157815167ffffffffffffffff81116100e157820190808301601f830112156100e15781519061131582610769565b936113236040519586610731565b828552602085019382820160208560061b830101116100e1579360208501945b60208560061b820101861061135f57505050505050905f610925565b60408685850103126100e1576040519182604081011067ffffffffffffffff6040850111176107015760206040918483839601845261139d8a6107cd565b8152828a0151838201528152019601959150611343565b825180516001600160a01b031685526020818101518187015260408083015190870152606080830151908701526080918201519186019190915288955060a09094019390920191600101610904565b6001600160a01b03908161141b610c33838887610781565b169160405180936310b793a760e21b825281600460a09384935afa9081156110da575f805f925f9461149c575b506001965061145b610c33878c8b610781565b946040519561146987610715565b168552602085015260408401526060830152608082015261148a82866107b9565b5261149581856107b9565b50016108c7565b935050505083813d83116114dd575b6114b58183610731565b810103126100e15782600193516020820151916060604082015191015191929091925f611448565b503d6114ab565b6020906040516114f381610715565b5f81525f838201525f60408201525f60608201525f6080820152828287010152016108bc565b91925061152581610769565b916115336040519384610731565b818352602091602084019060051b8201913683116100e157905b82821061155b575050505090565b81356001600160a01b03811681036100e157815290830190830161154d565b60ff815116825260ff6020820151166020830152604081015161ffff80911660408401528060608301511660608401528060808301511660808401528060a08301511660a084015260ff60c08301511660c084015260ff60e08301511660e084015261010060ff8184015116908401526101208092015116910152565b67ffffffffffffffff811161070157601f01601f191660200190565b5f5b8381106116245750505f910152565b8181015183820152602001611615565b6020818303126100e15780519067ffffffffffffffff82116100e1570181601f820112156100e1578051611667816115f7565b926116756040519485610731565b818452602082840101116100e1576116939160208085019101611613565b90565b906020916116af81518092818552858086019101611613565b601f01601f1916010190565b519060ff821682036100e157565b519061ffff821682036100e15756fea2646970667358221220f0c2694372859e4aca0c6804e3e2f5ed839105bd6190f3b65c9e4a30599bbe3364736f6c63430008180033","linkReferences":{}},"methodIdentifiers":{"deathThreshold()":"4f51c6ea","ecosystem()":"9c74a579","evolutionEngine()":"ecbb0e6e","factory()":"c45a0155","getFitness(address)":"bbcf5351","getLastScoredCreatures()":"c7fbdf29","getPendingKills()":"93a58ccb","injectSeed((uint8,uint8,uint16,uint16,uint16,uint16,uint8,uint8,uint8,uint16),uint256)":"6f37ab5c","lastFitnessScores(address)":"c02095ab","maxPopulation()":"17729a82","mutationRate()":"841326fc","runEvolution(address[],uint256)":"02893290","seeder()":"684931ed","survivalThreshold()":"097569fc"},"id":35}