{"abi":[{"type":"constructor","inputs":[{"name":"_ecosystem","type":"address","internalType":"address"},{"name":"_factory","type":"address","internalType":"address"},{"name":"_evolutionEngine","type":"address","internalType":"address"},{"name":"_survivalThreshold","type":"uint256","internalType":"uint256"},{"name":"_deathThreshold","type":"uint256","internalType":"uint256"},{"name":"_mutationRate","type":"uint256","internalType":"uint256"},{"name":"_maxPopulation","type":"uint256","internalType":"uint256"},{"name":"_seeder","type":"address","internalType":"address"}],"stateMutability":"nonpayable"},{"type":"function","name":"deathThreshold","inputs":[],"outputs":[{"name":"","type":"uint256","internalType":"uint256"}],"stateMutability":"view"},{"type":"function","name":"ecosystem","inputs":[],"outputs":[{"name":"","type":"address","internalType":"address"}],"stateMutability":"view"},{"type":"function","name":"evolutionEngine","inputs":[],"outputs":[{"name":"","type":"address","internalType":"contract IEvolutionEngine"}],"stateMutability":"view"},{"type":"function","name":"factory","inputs":[],"outputs":[{"name":"","type":"address","internalType":"contract CreatureFactory"}],"stateMutability":"view"},{"type":"function","name":"getFitness","inputs":[{"name":"creature","type":"address","internalType":"address"}],"outputs":[{"name":"","type":"uint256","internalType":"uint256"}],"stateMutability":"view"},{"type":"function","name":"getLastScoredCreatures","inputs":[],"outputs":[{"name":"","type":"address[]","internalType":"address[]"}],"stateMutability":"view"},{"type":"function","name":"getPendingKills","inputs":[],"outputs":[{"name":"","type":"address[]","internalType":"address[]"}],"stateMutability":"view"},{"type":"function","name":"injectSeed","inputs":[{"name":"dna","type":"tuple","internalType":"struct ICreature.DNA","components":[{"name":"targetChainId","type":"uint8","internalType":"uint8"},{"name":"poolType","type":"uint8","internalType":"uint8"},{"name":"allocationRatio","type":"uint16","internalType":"uint16"},{"name":"rebalanceThreshold","type":"uint16","internalType":"uint16"},{"name":"maxSlippage","type":"uint16","internalType":"uint16"},{"name":"yieldFloor","type":"uint16","internalType":"uint16"},{"name":"riskCeiling","type":"uint8","internalType":"uint8"},{"name":"entryTiming","type":"uint8","internalType":"uint8"},{"name":"exitTiming","type":"uint8","internalType":"uint8"},{"name":"hedgeRatio","type":"uint16","internalType":"uint16"}]},{"name":"currentEpoch","type":"uint256","internalType":"uint256"}],"outputs":[{"name":"creature","type":"address","internalType":"address"}],"stateMutability":"nonpayable"},{"type":"function","name":"lastFitnessScores","inputs":[{"name":"","type":"address","internalType":"address"}],"outputs":[{"name":"","type":"uint256","internalType":"uint256"}],"stateMutability":"view"},{"type":"function","name":"maxPopulation","inputs":[],"outputs":[{"name":"","type":"uint256","internalType":"uint256"}],"stateMutability":"view"},{"type":"function","name":"mutationRate","inputs":[],"outputs":[{"name":"","type":"uint256","internalType":"uint256"}],"stateMutability":"view"},{"type":"function","name":"runEvolution","inputs":[{"name":"creatures","type":"address[]","internalType":"address[]"},{"name":"currentEpoch","type":"uint256","internalType":"uint256"}],"outputs":[{"name":"newPopulation","type":"address[]","internalType":"address[]"}],"stateMutability":"nonpayable"},{"type":"function","name":"seeder","inputs":[],"outputs":[{"name":"","type":"address","internalType":"address"}],"stateMutability":"view"},{"type":"function","name":"survivalThreshold","inputs":[],"outputs":[{"name":"","type":"uint256","internalType":"uint256"}],"stateMutability":"view"},{"type":"event","name":"CreatureBred","inputs":[{"name":"offspring","type":"address","indexed":true,"internalType":"address"},{"name":"parent1","type":"address","indexed":true,"internalType":"address"},{"name":"parent2","type":"address","indexed":true,"internalType":"address"},{"name":"generation","type":"uint256","indexed":false,"internalType":"uint256"}],"anonymous":false},{"type":"event","name":"CreatureKilled","inputs":[{"name":"creature","type":"address","indexed":true,"internalType":"address"},{"name":"fitnessScore","type":"uint256","indexed":false,"internalType":"uint256"}],"anonymous":false},{"type":"event","name":"EvolutionRun","inputs":[{"name":"epoch","type":"uint256","indexed":false,"internalType":"uint256"},{"name":"totalCreatures","type":"uint256","indexed":false,"internalType":"uint256"},{"name":"killed","type":"uint256","indexed":false,"internalType":"uint256"},{"name":"bred","type":"uint256","indexed":false,"internalType":"uint256"}],"anonymous":false},{"type":"event","name":"SeedInjected","inputs":[{"name":"creature","type":"address","indexed":true,"internalType":"address"}],"anonymous":false}],"bytecode":{"object":"0x608034620001b157601f6200195938819003918201601f19168301916001600160401b03831184841017620001b65780849261010094604052833981010312620001b1576200004e81620001cc565b906200005d60208201620001cc565b6200006b60408301620001cc565b916060810151608082015160a0830151916200008f60e060c08601519501620001cc565b948282018083116200019b5761271080911162000157578411620001065760018060a01b03968780928160018060a01b03199b168b60005416176000551689600154161760015516876002541617600255600355600455600555600655169060075416176007556040516117779081620001e28239f35b60405162461bcd60e51b815260206004820152602360248201527f47656e65506f6f6c3a206d75746174696f6e526174652065786365656473203160448201526230302560e81b6064820152608490fd5b606460405162461bcd60e51b815260206004820152602060248201527f47656e65506f6f6c3a207468726573686f6c64732065786365656420313030256044820152fd5b634e487b7160e01b600052601160045260246000fd5b600080fd5b634e487b7160e01b600052604160045260246000fd5b51906001600160a01b0382168203620001b15756fe608060408181526004918236101561001657600080fd5b600092833560e01c918263028932901461060a57508163097569fc146105eb57816317729a82146105cc5781634f51c6ea146105ae578163684931ed146105855781636f37ab5c146102a557508063841326fc1461028757806393a58ccb146102045780639c74a579146101dd578063bbcf5351146101a6578063c02095ab146101a6578063c45a01551461017e578063c7fbdf29146100ea5763ecbb0e6e146100bf57600080fd5b346100e657816003193601126100e65760025490516001600160a01b039091168152602090f35b5080fd5b50903461017b578060031936011261017b578151918291600954808552602080950194600983527f6e1540171b6c0c960b71a7020d9f60077f6af931a8bbf590da0223dacf75c7af92905b82821061015b57610157868661014d828b038361075a565b51918291826106c6565b0390f35b83546001600160a01b031687529586019560019384019390910190610135565b80fd5b50346100e657816003193601126100e65760015490516001600160a01b039091168152602090f35b50346100e65760203660031901126100e65760209181906001600160a01b036101cd61077c565b1681526008845220549051908152f35b50346100e657816003193601126100e657905490516001600160a01b039091168152602090f35b50903461017b578060031936011261017b578151918291600a54808552602080950194600a83527fc65a7bb8d6351c1cf70c95a316cc6a92839c986682d98bc35f958f4883f9d2a892905b82821061026757610157868661014d828b038361075a565b83546001600160a01b03168752958601956001938401939091019061024f565b50346100e657816003193601126100e6576020906005549051908152f35b8383346100e6573660031901610160811261058157610140136100e6578051906102ce8261070b565b833560ff8116810361057d57825260249384359460ff86168603610579576020958685015260443561ffff90818116810361057557848601526064358181168103610575576060860152608435818116810361057557608086015260a43581811681036105755760a086015260c43560ff811681036105755760c086015260e43560ff811681036105755760e08601526101043560ff811681036105755761010086015261012435908116810361051e576101208501526007546001600160a01b03946101449186163303610533576103c56101c4899289896001541689519687958694635abb48f360e01b86528b8601906115e1565b82818501528261016485015282610184850152356101a48401525af19081156105295786916104f0575b5084865416908451958887019163b4ab303b60e01b8352169586848201528381526060810181811067ffffffffffffffff8211176104de57865251879283929083905af13d156104d9573d6104438161165e565b906104508651928361075a565b815286883d92013e5b1561048b5750507f8c262ccc988568bba2b06e93cf293b75d1f20eba3c2eec24257274d945bce63b8291519380a28152f35b60259086608494519362461bcd60e51b85528401528201527f47656e65506f6f6c3a206661696c656420746f20726567697374657220637265604482015264617475726560d81b6064820152fd5b610459565b634e487b7160e01b8952604186528489fd5b90508681813d8311610522575b610507818361075a565b8101031261051e57610518906107fd565b876103ef565b8580fd5b503d6104fd565b84513d88823e3d90fd5b845162461bcd60e51b8152808501899052601b818501527f47656e65506f6f6c3a2063616c6c6572206e6f742073656564657200000000006044820152606490fd5b8680fd5b8480fd5b8380fd5b8280fd5b5050346100e657816003193601126100e65760075490516001600160a01b039091168152602090f35b90503461058157826003193601126105815760209250549051908152f35b5050346100e657816003193601126100e6576020906006549051908152f35b5050346100e657816003193601126100e6576020906003549051908152f35b9150923461017b578260031936011261017b5783359167ffffffffffffffff9182841161017b573660238501121561017b578386013592831161017b573660248460051b8601011161017b57546001600160a01b03163303610685576101578461067a85856024803592016108bf565b9051918291826106c6565b62461bcd60e51b8152602085820152601e60248201527f47656e65506f6f6c3a2063616c6c6572206e6f742065636f73797374656d00006044820152606490fd5b602090602060408183019282815285518094520193019160005b8281106106ee575050505090565b83516001600160a01b0316855293810193928101926001016106e0565b610140810190811067ffffffffffffffff82111761072857604052565b634e487b7160e01b600052604160045260246000fd5b60c0810190811067ffffffffffffffff82111761072857604052565b90601f8019910116810190811067ffffffffffffffff82111761072857604052565b600435906001600160a01b038216820361079257565b600080fd5b67ffffffffffffffff81116107285760051b60200190565b91908110156107bf5760051b0190565b634e487b7160e01b600052603260045260246000fd5b356001600160a01b03811681036107925790565b80518210156107bf5760209160051b010190565b51906001600160a01b038216820361079257565b6009548110156107bf5760096000527f6e1540171b6c0c960b71a7020d9f60077f6af931a8bbf590da0223dacf75c7af0190600090565b8181029291811591840414171561085b57565b634e487b7160e01b600052601160045260246000fd5b9190820391821161085b57565b9061088882610797565b610895604051918261075a565b82815280926108a6601f1991610797565b0190602036910137565b600019811461085b5760010190565b9291928115611580576108d182610797565b6108de604051918261075a565b8281526108ea83610797565b601f190160005b81811061153f57505060005b838110611447575060018060a01b0360025416604051809263706857d760e01b82526024820160206004840152815180915260206044840192019060005b8181106113ee5750505091818060009403915afa908115611119576000916112ff575b509060005b60095481101561099c5780610979600192610811565b838060a01b0391549060031b1c1660005260086020526000604081205501610963565b509091926009946009546000600955806112bb575b5060005b8451811015610a455760206109ca82876107e9565b5101516001600160a01b036109df83886107e9565b5151166000908152600860205260409020556001600160a01b03610a0382876107e9565b51511690875491600160401b83101561072857610a268360018095018b55610811565b819291549060031b91821b91858060a01b03901b1916179055016109b5565b5092919450926127109081610a5c60035483610848565b0491600283106112b2575b8183116112a9575b610a7b60045483610848565b049181831015611295575b610a8f8361087e565b9060005b84811061121b575060011c93610aa98484610871565b906006548280821160001461121257610ac191610871565b80871161120a575b50610ad38661087e565b9160005b878110610d04575086810180911161085b57610af29061087e565b98600091825b868110610c43575050506000905b868210610c0f5750505080519067ffffffffffffffff821161072857600160401b821161072857600a5482600a55808310610bce575b50602001600a60005260005b828110610b9157505050917fd62d18d8359e08a2c6b9f34986ea65232382b95760e585f63fd3062ffd32c49d9391608093604051938452602084015260408301526060820152a1565b81516001600160a01b03167fc65a7bb8d6351c1cf70c95a316cc6a92839c986682d98bc35f958f4883f9d2a8820155602090910190600101610b48565b827fc65a7bb8d6351c1cf70c95a316cc6a92839c986682d98bc35f958f4883f9d2a891820191015b818110610c035750610b3c565b60008155600101610bf6565b600190610c3b908b610c35826001600160a01b03610c2d888a6107e9565b5116926107e9565b526108b0565b910190610b06565b8b876000805b8b8110610ca0575b5015610c62575b5050600101610af8565b94610c9691610c8782610c81610c7c876001989b8b6107af565b6107d5565b926107e9565b90848060a01b031690526108b0565b9390508b87610c58565b9092509060001981011161085b576001600160a01b03610ccd610cc7836000198d01610871565b866107e9565b5151166001600160a01b03610ce6610c7c868d8a6107af565b1614610cf8576001018d918991610c49565b50508b87600138610c51565b808060011b046002148115171561085b57610d228160011b846107e9565b5151600182811b018260011b1161085b57610d42600183811b01856107e9565b5151604051630b90ca9160e11b81526020816004816001600160a01b0387165afa908115611119576000916111d8575b50604051630b90ca9160e11b81526020816004816001600160a01b0387165afa908115611119576000916111a6575b508082111561119e5750905b60018201821161085b57604051631327335960e21b8152906000826004816001600160a01b0388165afa91821561111957600092611183575b50604051631327335960e21b8152916000836004816001600160a01b0386165afa92831561111957600093611168575b5060405160208101904482524260408201526bffffffffffffffffffffffff19808860601b1660608301528460601b166074820152608860018701818301528152610e608161073e565b519020906000610e9b60018060a01b036002541692610ead604051978893849363c39b583f60e01b85526060600486015260648501906116ff565b838103600319016024850152906116ff565b8560448301520381845afa93841561111957600094611148575b506005546040516351e78b7d60e11b815260606004820152946000938693928492839290610ef99060648501906116ff565b91602484015260801c604483015203915afa91821561111957600092611125575b50818051610140938491810103126107925761101b6101c48f94602093610fe960405192610f478461070b565b610f52878401611724565b8452610f6060408401611724565b87850152610f7060608401611732565b6040850152610f8160808401611732565b606085015260a092610f94848201611732565b608086015260c093610fa7858301611732565b9086015260e093610fb9858301611724565b9086015261010093610fcc858301611724565b9086015261012093610fdf858301611724565b9086015201611732565b90820152600154604051635abb48f360e01b815296879485936000936001600160a01b031692919060048601906115e1565b60018a016101448501526001600160a01b038b811661016486015288166101848501526101a48401525af1918215611119576000926110b0575b50907feb61da15b15a1cb184a520bdc69c31814b267c363966694722e769546d27b15260208695949361108a6001988c6107e9565b60a089901b8990039485169081905260405195890186529084169590931693a401610ad7565b90916020823d602011611111575b816110cb6020938361075a565b8101031261017b5750907feb61da15b15a1cb184a520bdc69c31814b267c363966694722e769546d27b15260206111066001979695946107fd565b939495965050611055565b3d91506110be565b6040513d6000823e3d90fd5b61114191923d8091833e611139818361075a565b81019061169d565b9038610f1a565b6111609060009392953d8091833e611139818361075a565b939091610ec7565b61117c91933d8091833e611139818361075a565b9138610e16565b61119791923d8091833e611139818361075a565b9038610de6565b905090610dad565b906020823d6020116111d0575b816111c06020938361075a565b8101031261017b57505138610da1565b3d91506111b3565b906020823d602011611202575b816111f26020938361075a565b8101031261017b57505138610d72565b3d91506111e5565b955038610ac9565b50506000610ac1565b8360001981011161085b57600190611237816000198701610871565b7fb11be711614c674cc0f990b27ba4fbf7f385413ad7982fd5af32117ea03a4e5f6020806112858b61126f86898060a01b03926107e9565b515116948561127e888c6107e9565b528c6107e9565b510151604051908152a201610a93565b9150600019810181811161085b5791610a86565b91508091610a6f565b60029250610a67565b60096000527f6e1540171b6c0c960b71a7020d9f60077f6af931a8bbf590da0223dacf75c7af908101905b8181106112f357506109b1565b600081556001016112e6565b3d8083833e61130e818361075a565b81019160208284031261017b57815167ffffffffffffffff9283821161058157019183601f840112156100e65782519161134783610797565b94611355604051968761075a565b83865260208601948160208660061b830101116105815760208101955b60208660061b830101871061138e57505050505050503861095e565b60408784031261057d57604051806040810110866040830111176113da57602080939282604080940184526113c28b6107fd565b8152828b015183820152815201970196909150611372565b634e487b7160e01b85526041600452602485fd5b825180516001600160a01b031685526020818101518187015260408083015190870152606080830151908701526080808301519087015260a0918201519186019190915287955060c0909401939092019160010161093b565b6001600160a01b03908161145f610c7c8388886107af565b169160405180936310b793a760e21b825281600460a09384935afa908115611119576000948586908a8a89948a976114e8575b50610c7c8960019b936114a4936107af565b96604051976114b28961073e565b16875260208701526040860152606085015260808401528201526114d682856107e9565b526114e181846107e9565b50016108fd565b965050505050509192938282813d8311611538575b611507818361075a565b8101031261017b57508051602082015160408301516060840151608090940151929695949293918a8a610c7c611492565b503d6114fd565b60209060405161154e8161073e565b60008152600083820152600060408201526000606082015260006080820152600060a0820152828286010152016108f1565b91925061158c81610797565b9161159a604051938461075a565b818352602091602084019060051b82019136831161079257905b8282106115c2575050505090565b81356001600160a01b03811681036107925781529083019083016115b4565b60ff815116825260ff6020820151166020830152604081015161ffff80911660408401528060608301511660608401528060808301511660808401528060a08301511660a084015260ff60c08301511660c084015260ff60e08301511660e084015261010060ff8184015116908401526101208092015116910152565b67ffffffffffffffff811161072857601f01601f191660200190565b60005b83811061168d5750506000910152565b818101518382015260200161167d565b6020818303126107925780519067ffffffffffffffff8211610792570181601f820112156107925780516116d08161165e565b926116de604051948561075a565b81845260208284010111610792576116fc916020808501910161167a565b90565b906020916117188151809281855285808601910161167a565b601f01601f1916010190565b519060ff8216820361079257565b519061ffff821682036107925756fea264697066735822122007f37728f32fd41a05b90f57836164354a2b8b56057fbd0621d89f0772bef09a64736f6c63430008180033","linkReferences":{}},"methodIdentifiers":{"deathThreshold()":"4f51c6ea","ecosystem()":"9c74a579","evolutionEngine()":"ecbb0e6e","factory()":"c45a0155","getFitness(address)":"bbcf5351","getLastScoredCreatures()":"c7fbdf29","getPendingKills()":"93a58ccb","injectSeed((uint8,uint8,uint16,uint16,uint16,uint16,uint8,uint8,uint8,uint16),uint256)":"6f37ab5c","lastFitnessScores(address)":"c02095ab","maxPopulation()":"17729a82","mutationRate()":"841326fc","runEvolution(address[],uint256)":"02893290","seeder()":"684931ed","survivalThreshold()":"097569fc"},"id":33}