{"abi":[{"type":"function","name":"callCount","inputs":[],"outputs":[{"name":"","type":"uint256","internalType":"uint256"}],"stateMutability":"view"},{"type":"function","name":"calls","inputs":[{"name":"","type":"uint256","internalType":"uint256"}],"outputs":[{"name":"destChainId","type":"uint256","internalType":"uint256"},{"name":"destAccount","type":"address","internalType":"address"},{"name":"asset","type":"address","internalType":"address"},{"name":"amount","type":"uint256","internalType":"uint256"},{"name":"transactPayload","type":"bytes","internalType":"bytes"}],"stateMutability":"view"},{"type":"function","name":"deployedCapital","inputs":[{"name":"","type":"address","internalType":"address"}],"outputs":[{"name":"","type":"uint256","internalType":"uint256"}],"stateMutability":"view"},{"type":"function","name":"deploymentCount","inputs":[],"outputs":[{"name":"","type":"uint256","internalType":"uint256"}],"stateMutability":"view"},{"type":"function","name":"simulateReturnForCreature","inputs":[{"name":"creature","type":"address","internalType":"address"},{"name":"asset","type":"address","internalType":"address"},{"name":"yieldAmount","type":"uint256","internalType":"uint256"}],"outputs":[],"stateMutability":"nonpayable"},{"type":"function","name":"simulateReturns","inputs":[{"name":"yieldBps","type":"uint256","internalType":"uint256"}],"outputs":[],"stateMutability":"nonpayable"},{"type":"function","name":"totalDeployed","inputs":[],"outputs":[{"name":"","type":"uint256","internalType":"uint256"}],"stateMutability":"view"},{"type":"function","name":"transferAssets","inputs":[{"name":"destChainId","type":"uint256","internalType":"uint256"},{"name":"destAccount","type":"address","internalType":"address"},{"name":"asset","type":"address","internalType":"address"},{"name":"amount","type":"uint256","internalType":"uint256"},{"name":"transactPayload","type":"bytes","internalType":"bytes"}],"outputs":[{"name":"","type":"bool","internalType":"bool"}],"stateMutability":"nonpayable"},{"type":"event","name":"CapitalDeployed","inputs":[{"name":"creature","type":"address","indexed":true,"internalType":"address"},{"name":"asset","type":"address","indexed":false,"internalType":"address"},{"name":"amount","type":"uint256","indexed":false,"internalType":"uint256"}],"anonymous":false},{"type":"event","name":"ReturnsSimulated","inputs":[{"name":"creature","type":"address","indexed":true,"internalType":"address"},{"name":"principal","type":"uint256","indexed":false,"internalType":"uint256"},{"name":"yieldAmount","type":"uint256","indexed":false,"internalType":"uint256"},{"name":"total","type":"uint256","indexed":false,"internalType":"uint256"}],"anonymous":false},{"type":"error","name":"SafeERC20FailedOperation","inputs":[{"name":"token","type":"address","internalType":"address"}]}],"bytecode":{"object":"0x6080806040523461001657610b99908161001b8239f35b5f80fdfe6080806040526004361015610012575f80fd5b5f3560e01c9081630cfb14b0146107ed575080632d720003146103f05780634b28f9a2146103d45780634c36f10d146103b75780635322e51014610231578063ba21a9ce14610202578063c7100cbe146101ca5763d183ce1414610074575f80fd5b346101c6576020806003193601126101c6576004355f548110156101c65761009b90610833565b5080549160018060a01b039160019280600183015416906002830154169060046003840154930160405180965f908354936100d58561087e565b94858552896001821691825f146101a4575050600114610168575b5050610104925097959493929703866108d2565b6040519586948552838501526040840152606083015260a060808301528251908160a08401525f935b82851061014f57505060c092505f838284010152601f80199101168101030190f35b84810182015186860160c001529381019385935061012d565b8892505f52815f20905f915b85831061018c57505061010493508201015f806100f0565b8054838c018501528a94508993909201918101610174565b925093505061010494915060ff191682840152151560051b8201015f806100f0565b5f80fd5b346101c65760203660031901126101c6576001600160a01b036101eb61081d565b165f526002602052602060405f2054604051908152f35b346101c65760603660031901126101c65761022f61021e61081d565b610226610807565b6044359161093a565b005b346101c6576020806003193601126101c657600435906001918254915f5b8381106102cd578480545f82558061026357005b600391816003029160038304036102b9577fb10e2d527612073b26eecdfd717e6a320cf44b4afac2b0732d9fcbe2b7fa0cf6918201915b8281106102a357005b805f8592555f838201555f60028201550161029a565b634e487b7160e01b5f52601160045260245ffd5b6102d6816108f4565b5090604051916102e5836108b6565b80546001600160a01b039081168452878201548116858501908152600292830154604086018181529195919392908881029080159082048a1417156102b95761271090049161033583865161092d565b91855194818351165f52895260405f209182549586039586116102b95761038c84838f9b7f3398cdba80bcc88d647e60df30bca57e4b34d367b59fd2aab7b565ad80244cfd996103ae975551168484511690610ae5565b5116945191604051938493846040919493926060820195825260208201520152565b0390a20161024f565b346101c6575f3660031901126101c6576020600154604051908152f35b346101c6575f3660031901126101c65760205f54604051908152f35b346101c65760a03660031901126101c657610409610807565b604435906001600160a01b03821682036101c65767ffffffffffffffff6084358181116101c657366023820112156101c65780600401358281116101c65736602482840101116101c6576040519360a08501858110858211176106d3576040526004358552602085019060018060a01b03168152604085019060018060a01b03871682525f602060608801946064358652806024604051986104b485601f19601f860116018b6108d2565b828a52018389013786010152608086019384525f54600160401b8110156106d3578060016104e492015f55610833565b9690966106c057518655516001860180546001600160a01b03199081166001600160a01b0393841617909155915160028701805490931691161790555160038401555180519182116106d35761053d600484015461087e565b601f81116107a5575b50602090601f831160011461073957600492915f918361072e575b50508160011b915f199060031b1c1916179101555b6040516323b872dd60e01b5f9081523360045230602452606480356044526020919081806001600160a01b0387165af160015f5114811615610706575b816040525f606052156106e757506040516105cd816108b6565b338152602081019060018060a01b0383168252604081016064358152600154600160401b8110156106d35780600161060892016001556108f4565b9390936106c057915183546001600160a01b03199081166001600160a01b03928316178555925160018501805490941691161790915551600291820155335f908152602091909152604090208054610663906064359061092d565b905561067360643560035461092d565b600355604080516001600160a01b039092168252606435602083015233917f9eb7515745ff2198dec9a63bbf6d4be22f86e75aed94f06dd8f2507f15fae8a69190a2602060405160018152f35b634e487b7160e01b5f525f60045260245ffd5b634e487b7160e01b5f52604160045260245ffd5b635274afe760e01b81526001600160a01b039091166004820152602490fd5b6001811516610725573d156001600160a01b0384163b151516166105b3565b503d5f823e3d90fd5b015190508580610561565b90600484015f5260205f20915f5b601f198516811061078d5750918391600193600495601f19811610610775575b505050811b01910155610576565b01515f1960f88460031b161c19169055858080610767565b91926020600181928685015181550194019201610747565b600484015f5260205f20601f840160051c810191602085106107e3575b601f0160051c01905b8181106107d85750610546565b5f81556001016107cb565b90915081906107c2565b346101c6575f3660031901126101c6576020906003548152f35b602435906001600160a01b03821682036101c657565b600435906001600160a01b03821682036101c657565b5f5481101561086a576005905f8052027f290decd9548b62a8d60345a988386fc84ba6bc95484008f6362f93160ef3e56301905f90565b634e487b7160e01b5f52603260045260245ffd5b90600182811c921680156108ac575b602083101461089857565b634e487b7160e01b5f52602260045260245ffd5b91607f169161088d565b6060810190811067ffffffffffffffff8211176106d357604052565b90601f8019910116810190811067ffffffffffffffff8211176106d357604052565b60015481101561086a5760039060015f52027fb10e2d527612073b26eecdfd717e6a320cf44b4afac2b0732d9fcbe2b7fa0cf601905f90565b919082018092116102b957565b919060018060a01b0380841693845f52600291600260205260405f2054938415610adc57610968868661092d565b93875f5260026020525f6040812055600180545f90825f5b828110610a3b575090505b6109e9575b505050836109e4937f3398cdba80bcc88d647e60df30bca57e4b34d367b59fd2aab7b565ad80244cfd979695936109c79316610ae5565b604051938493846040919493926060820195825260208201520152565b0390a2565b815481811115610a35578015610a21575f1901610a05816108f4565b9190916106c0575f85838287955582858201550155815561098b565b634e487b7160e01b5f52603160045260245ffd5b50610990565b8c88610a46836108f4565b50541603610a57575b018390610980565b838194925003610a74575b5f1981146102b9578380910192610a4f565b610a7d836108f4565b50610a87826108f4565b9190916106c0578087918303610aa0575b505050610a62565b808a839254166bffffffffffffffffffffffff60a01b9081865416178555888501908c8a840154169082541617905501549101555f8581610a98565b50505050505050565b60405163a9059cbb60e01b5f9081526001600160a01b039384166004526024949094529260209060448180855af160015f5114811615610b44575b8360405215610b2e57505050565b635274afe760e01b835216600482015260249150fd5b6001811516610b5a57813b15153d151616610b20565b833d5f823e3d90fdfea26469706673582212205ba8bb77545a15f3135266b10bdc664d03288808de222e908e38b51cab7318e464736f6c63430008180033","linkReferences":{}},"methodIdentifiers":{"callCount()":"4b28f9a2","calls(uint256)":"d183ce14","deployedCapital(address)":"c7100cbe","deploymentCount()":"4c36f10d","simulateReturnForCreature(address,address,uint256)":"ba21a9ce","simulateReturns(uint256)":"5322e510","totalDeployed()":"0cfb14b0","transferAssets(uint256,address,address,uint256,bytes)":"2d720003"},"id":42}