{"abi":[{"type":"function","name":"callCount","inputs":[],"outputs":[{"name":"","type":"uint256","internalType":"uint256"}],"stateMutability":"view"},{"type":"function","name":"calls","inputs":[{"name":"","type":"uint256","internalType":"uint256"}],"outputs":[{"name":"destChainId","type":"uint256","internalType":"uint256"},{"name":"destAccount","type":"address","internalType":"address"},{"name":"asset","type":"address","internalType":"address"},{"name":"amount","type":"uint256","internalType":"uint256"},{"name":"transactPayload","type":"bytes","internalType":"bytes"}],"stateMutability":"view"},{"type":"function","name":"deployedCapital","inputs":[{"name":"","type":"address","internalType":"address"}],"outputs":[{"name":"","type":"uint256","internalType":"uint256"}],"stateMutability":"view"},{"type":"function","name":"deploymentCount","inputs":[],"outputs":[{"name":"","type":"uint256","internalType":"uint256"}],"stateMutability":"view"},{"type":"function","name":"simulateReturnForCreature","inputs":[{"name":"creature","type":"address","internalType":"address"},{"name":"asset","type":"address","internalType":"address"},{"name":"yieldAmount","type":"int256","internalType":"int256"}],"outputs":[],"stateMutability":"nonpayable"},{"type":"function","name":"simulateReturns","inputs":[{"name":"yieldBps","type":"uint256","internalType":"uint256"}],"outputs":[],"stateMutability":"nonpayable"},{"type":"function","name":"totalDeployed","inputs":[],"outputs":[{"name":"","type":"uint256","internalType":"uint256"}],"stateMutability":"view"},{"type":"function","name":"transferAssets","inputs":[{"name":"destChainId","type":"uint256","internalType":"uint256"},{"name":"destAccount","type":"address","internalType":"address"},{"name":"asset","type":"address","internalType":"address"},{"name":"amount","type":"uint256","internalType":"uint256"},{"name":"transactPayload","type":"bytes","internalType":"bytes"}],"outputs":[{"name":"","type":"bool","internalType":"bool"}],"stateMutability":"nonpayable"},{"type":"event","name":"CapitalDeployed","inputs":[{"name":"creature","type":"address","indexed":true,"internalType":"address"},{"name":"asset","type":"address","indexed":false,"internalType":"address"},{"name":"amount","type":"uint256","indexed":false,"internalType":"uint256"}],"anonymous":false},{"type":"event","name":"ReturnsSimulated","inputs":[{"name":"creature","type":"address","indexed":true,"internalType":"address"},{"name":"principal","type":"uint256","indexed":false,"internalType":"uint256"},{"name":"yieldAmount","type":"uint256","indexed":false,"internalType":"uint256"},{"name":"total","type":"uint256","indexed":false,"internalType":"uint256"}],"anonymous":false},{"type":"error","name":"SafeERC20FailedOperation","inputs":[{"name":"token","type":"address","internalType":"address"}]}],"bytecode":{"object":"0x6080806040523461001657610cbd908161001c8239f35b600080fdfe608080604052600436101561001357600080fd5b60003560e01c9081630cfb14b0146108565750806314d8f0d7146108275780632d720003146103d85780634b28f9a2146103ba5780634c36f10d1461039c5780635322e51014610210578063c7100cbe146101d65763d183ce141461007757600080fd5b346101d1576020806003193601126101d1576004356000548110156101d15761009f9061089d565b5080549160018060a01b039160019280600183015416906002830154169060046003840154930160405180966000908354936100da856108eb565b94858552896001821691826000146101af575050600114610170575b505061010a92509795949392970386610941565b6040519586948552838501526040840152606083015260a060808301528251908160a08401526000935b82851061015757505060c092506000838284010152601f80199101168101030190f35b84810182015186860160c0015293810193859350610134565b88925060005281600020906000915b85831061019757505061010a935082010138806100f6565b8054838c018501528a9450899390920191810161017f565b925093505061010a94915060ff191682840152151560051b82010138806100f6565b600080fd5b346101d15760203660031901126101d1576001600160a01b036101f7610871565b1660005260026020526020604060002054604051908152f35b346101d1576020806003193601126101d15760043560019182549160005b8381106102b257848054600082558061024357005b6003918160030291600383040361029c577fb10e2d527612073b26eecdfd717e6a320cf44b4afac2b0732d9fcbe2b7fa0cf6918201915b82811061028357005b806000859255600083820155600060028201550161027a565b634e487b7160e01b600052601160045260246000fd5b6102bb8161097d565b5090604051916102ca83610925565b80546001600160a01b03908116845287820154811686850190815260029283015460408601818152929592938782029180159083048914171561029c57867f3398cdba80bcc88d647e60df30bca57e4b34d367b59fd2aab7b565ad80244cfd94610371610393938e9a6127108e970497610345898c51610970565b9788938c519184885116600052526103636040600020918254610963565b905551168484511690610c06565b5116945191604051938493846040919493926060820195825260208201520152565b0390a20161022e565b346101d15760003660031901126101d1576020600154604051908152f35b346101d15760003660031901126101d1576020600054604051908152f35b346101d15760a03660031901126101d1576103f1610887565b604435906001600160a01b03821682036101d15767ffffffffffffffff608435116101d1573660236084350112156101d15767ffffffffffffffff60843560040135116101d157366024608435600401356084350101116101d1576040519060a0820182811067ffffffffffffffff82111761070757604052600435825260018060a01b0316602082015260018060a01b038216604082015260643560608201526040516104af6020601f19601f6084356004013501160182610941565b60843560048101358083529060240160208301376000602060843560040135830101526080820152600054600160401b811015610707578060016104f6920160005561089d565b9190916106f1578051825560208101516001830180546001600160a01b039283166001600160a01b0319918216179091556040830151600285018054919093169116179055606081015160038301556080015180519067ffffffffffffffff82116107075761056860048401546108eb565b601f81116107e0575b50602090601f8311600114610770576004929160009183610765575b50508160011b916000199060031b1c1916179101555b6040516323b872dd60e01b60009081523360045230602452606480356044526020919081806001600160a01b0387165af160016000511481161561073c575b8160405260006060521561071d57506040516105fd81610925565b338152602081019060018060a01b0383168252604081016064358152600154600160401b81101561070757806001610638920160015561097d565b9390936106f157915183546001600160a01b03199081166001600160a01b039283161785559251600185018054909416911617909155516002918201553360009081526020919091526040902080546106949060643590610970565b90556106a4606435600354610970565b600355604080516001600160a01b039092168252606435602083015233917f9eb7515745ff2198dec9a63bbf6d4be22f86e75aed94f06dd8f2507f15fae8a69190a2602060405160018152f35b634e487b7160e01b600052600060045260246000fd5b634e487b7160e01b600052604160045260246000fd5b635274afe760e01b81526001600160a01b039091166004820152602490fd5b600181151661075b573d156001600160a01b0384163b151516166105e2565b503d6000823e3d90fd5b01519050858061058d565b906004840160005260206000209160005b601f19851681106107c85750918391600193600495601f198116106107af575b505050811b019101556105a3565b015160001960f88460031b161c191690558580806107a1565b91926020600181928685015181550194019201610781565b600484016000526020600020601f840160051c810160208510610820575b601f830160051c82018110610814575050610571565b600081556001016107fe565b50806107fe565b346101d15760603660031901126101d157610854610843610871565b61084b610887565b604435916109ce565b005b346101d15760003660031901126101d1576020906003548152f35b600435906001600160a01b03821682036101d157565b602435906001600160a01b03821682036101d157565b9060009182548110156108d757600590838052027f290decd9548b62a8d60345a988386fc84ba6bc95484008f6362f93160ef3e563019190565b634e487b7160e01b83526032600452602483fd5b90600182811c9216801561091b575b602083101461090557565b634e487b7160e01b600052602260045260246000fd5b91607f16916108fa565b6060810190811067ffffffffffffffff82111761070757604052565b90601f8019910116810190811067ffffffffffffffff82111761070757604052565b9190820391821161029c57565b9190820180921161029c57565b6001548110156109b8576003906001600052027fb10e2d527612073b26eecdfd717e6a320cf44b4afac2b0732d9fcbe2b7fa0cf60190600090565b634e487b7160e01b600052603260045260246000fd5b90929160018060a01b038083169260009084825260029260026020526040832054938415610bfb57838612610bce57610a078686610970565b935b87815260026020528060408120556001908154819083835b828110610b04575090505b610a9f575b50505050968280927f3398cdba80bcc88d647e60df30bca57e4b34d367b59fd2aab7b565ad80244cfd979899610a8795610a8c575b50505050604051938493846040919493926060820195825260208201520152565b0390a2565b610a969316610c06565b38818180610a66565b825481811115610afe578015610aea5760001901610abc8161097d565b610ad6579083868382889555828582015501558155610a2c565b634e487b7160e01b84526004849052602484fd5b634e487b7160e01b83526031600452602483fd5b50610a31565b8c88610b0f8361097d565b50541603610b20575b018490610a21565b838194925003610b52575b6000198114610b3e578480910192610b18565b634e487b7160e01b84526011600452602484fd5b610b5b8361097d565b50610b658261097d565b919091610bba578088918303610b7e575b505050610b2b565b808a839254166bffffffffffffffffffffffff60a01b9081865416178555898501908c8b84015416908254161790550154910155388681610b76565b634e487b7160e01b86526004869052602486fd5b94600160ff1b8114610b3e57830394848610610bec57835b93610a09565b610bf68686610963565b610be6565b505050505050509050565b60405163a9059cbb60e01b60009081526001600160a01b039384166004526024949094529260209060448180855af1600160005114811615610c67575b8360405215610c5157505050565b635274afe760e01b835216600482015260249150fd5b6001811516610c7d57813b15153d151616610c43565b833d6000823e3d90fdfea26469706673582212202b76b3ea5bcf897ad1f399e7d2cc429d289d29f631c26dddd36d5cf00747481364736f6c63430008180033","linkReferences":{}},"methodIdentifiers":{"callCount()":"4b28f9a2","calls(uint256)":"d183ce14","deployedCapital(address)":"c7100cbe","deploymentCount()":"4c36f10d","simulateReturnForCreature(address,address,int256)":"14d8f0d7","simulateReturns(uint256)":"5322e510","totalDeployed()":"0cfb14b0","transferAssets(uint256,address,address,uint256,bytes)":"2d720003"},"id":46}