{"abi":[{"type":"function","name":"callCount","inputs":[],"outputs":[{"name":"","type":"uint256","internalType":"uint256"}],"stateMutability":"view"},{"type":"function","name":"calls","inputs":[{"name":"","type":"uint256","internalType":"uint256"}],"outputs":[{"name":"destChainId","type":"uint256","internalType":"uint256"},{"name":"destAccount","type":"address","internalType":"address"},{"name":"asset","type":"address","internalType":"address"},{"name":"amount","type":"uint256","internalType":"uint256"},{"name":"transactPayload","type":"bytes","internalType":"bytes"}],"stateMutability":"view"},{"type":"function","name":"deployedCapital","inputs":[{"name":"","type":"address","internalType":"address"}],"outputs":[{"name":"","type":"uint256","internalType":"uint256"}],"stateMutability":"view"},{"type":"function","name":"deploymentCount","inputs":[],"outputs":[{"name":"","type":"uint256","internalType":"uint256"}],"stateMutability":"view"},{"type":"function","name":"simulateReturnForCreature","inputs":[{"name":"creature","type":"address","internalType":"address"},{"name":"asset","type":"address","internalType":"address"},{"name":"yieldAmount","type":"int256","internalType":"int256"}],"outputs":[],"stateMutability":"nonpayable"},{"type":"function","name":"simulateReturns","inputs":[{"name":"yieldBps","type":"uint256","internalType":"uint256"}],"outputs":[],"stateMutability":"nonpayable"},{"type":"function","name":"totalDeployed","inputs":[],"outputs":[{"name":"","type":"uint256","internalType":"uint256"}],"stateMutability":"view"},{"type":"function","name":"transferAssets","inputs":[{"name":"destChainId","type":"uint256","internalType":"uint256"},{"name":"destAccount","type":"address","internalType":"address"},{"name":"asset","type":"address","internalType":"address"},{"name":"amount","type":"uint256","internalType":"uint256"},{"name":"transactPayload","type":"bytes","internalType":"bytes"}],"outputs":[{"name":"","type":"bool","internalType":"bool"}],"stateMutability":"nonpayable"},{"type":"event","name":"CapitalDeployed","inputs":[{"name":"creature","type":"address","indexed":true,"internalType":"address"},{"name":"asset","type":"address","indexed":false,"internalType":"address"},{"name":"amount","type":"uint256","indexed":false,"internalType":"uint256"}],"anonymous":false},{"type":"event","name":"ReturnsSimulated","inputs":[{"name":"creature","type":"address","indexed":true,"internalType":"address"},{"name":"principal","type":"uint256","indexed":false,"internalType":"uint256"},{"name":"yieldAmount","type":"uint256","indexed":false,"internalType":"uint256"},{"name":"total","type":"uint256","indexed":false,"internalType":"uint256"}],"anonymous":false},{"type":"error","name":"SafeERC20FailedOperation","inputs":[{"name":"token","type":"address","internalType":"address"}]}],"bytecode":{"object":"0x6080806040523461001657610bf1908161001b8239f35b5f80fdfe6080806040526004361015610012575f80fd5b5f3560e01c9081630cfb14b0146107ea5750806314d8f0d7146107bb5780632d720003146103be5780634b28f9a2146103a25780634c36f10d146103855780635322e51014610202578063c7100cbe146101ca5763d183ce1414610074575f80fd5b346101c6576020806003193601126101c6576004355f548110156101c65761009b90610830565b5080549160018060a01b039160019280600183015416906002830154169060046003840154930160405180965f908354936100d58561087b565b94858552896001821691825f146101a4575050600114610168575b5050610104925097959493929703866108cf565b6040519586948552838501526040840152606083015260a060808301528251908160a08401525f935b82851061014f57505060c092505f838284010152601f80199101168101030190f35b84810182015186860160c001529381019385935061012d565b8892505f52815f20905f915b85831061018c57505061010493508201015f806100f0565b8054838c018501528a94508993909201918101610174565b925093505061010494915060ff191682840152151560051b8201015f806100f0565b5f80fd5b346101c65760203660031901126101c6576001600160a01b036101eb610804565b165f526002602052602060405f2054604051908152f35b346101c6576020806003193601126101c6576004356001918254915f5b83811061029d578480545f82558061023357005b60039181600302916003830403610289577fb10e2d527612073b26eecdfd717e6a320cf44b4afac2b0732d9fcbe2b7fa0cf6918201915b82811061027357005b805f8592555f838201555f60028201550161026a565b634e487b7160e01b5f52601160045260245ffd5b6102a68161090b565b5090604051916102b5836108b3565b80546001600160a01b03908116845287820154811686850190815260029283015460408601818152929592938782029180159083048914171561028957867f3398cdba80bcc88d647e60df30bca57e4b34d367b59fd2aab7b565ad80244cfd9461035a61037c938e9a6127108e970497610330898c516108fe565b9788938c5191848851165f525261034c60405f209182546108f1565b905551168484511690610b3d565b5116945191604051938493846040919493926060820195825260208201520152565b0390a20161021f565b346101c6575f3660031901126101c6576020600154604051908152f35b346101c6575f3660031901126101c65760205f54604051908152f35b346101c65760a03660031901126101c6576103d761081a565b604435906001600160a01b03821682036101c65767ffffffffffffffff6084358181116101c657366023820112156101c65780600401358281116101c65736602482840101116101c6576040519360a08501858110858211176106a1576040526004358552602085019060018060a01b03168152604085019060018060a01b03871682525f6020606088019460643586528060246040519861048285601f19601f860116018b6108cf565b828a52018389013786010152608086019384525f54600160401b8110156106a1578060016104b292015f55610830565b96909661068e57518655516001860180546001600160a01b03199081166001600160a01b0393841617909155915160028701805490931691161790555160038401555180519182116106a15761050b600484015461087b565b601f8111610773575b50602090601f831160011461070757600492915f91836106fc575b50508160011b915f199060031b1c1916179101555b6040516323b872dd60e01b5f9081523360045230602452606480356044526020919081806001600160a01b0387165af160015f51148116156106d4575b816040525f606052156106b5575060405161059b816108b3565b338152602081019060018060a01b0383168252604081016064358152600154600160401b8110156106a1578060016105d6920160015561090b565b93909361068e57915183546001600160a01b03199081166001600160a01b03928316178555925160018501805490941691161790915551600291820155335f90815260209190915260409020805461063190606435906108fe565b90556106416064356003546108fe565b600355604080516001600160a01b039092168252606435602083015233917f9eb7515745ff2198dec9a63bbf6d4be22f86e75aed94f06dd8f2507f15fae8a69190a2602060405160018152f35b634e487b7160e01b5f525f60045260245ffd5b634e487b7160e01b5f52604160045260245ffd5b635274afe760e01b81526001600160a01b039091166004820152602490fd5b60018115166106f3573d156001600160a01b0384163b15151616610581565b503d5f823e3d90fd5b01519050858061052f565b90600484015f5260205f20915f5b601f198516811061075b5750918391600193600495601f19811610610743575b505050811b01910155610544565b01515f1960f88460031b161c19169055858080610735565b91926020600181928685015181550194019201610715565b600484015f5260205f20601f840160051c810191602085106107b1575b601f0160051c01905b8181106107a65750610514565b5f8155600101610799565b9091508190610790565b346101c65760603660031901126101c6576107e86107d7610804565b6107df61081a565b60443591610944565b005b346101c6575f3660031901126101c6576020906003548152f35b600435906001600160a01b03821682036101c657565b602435906001600160a01b03821682036101c657565b5f54811015610867576005905f8052027f290decd9548b62a8d60345a988386fc84ba6bc95484008f6362f93160ef3e56301905f90565b634e487b7160e01b5f52603260045260245ffd5b90600182811c921680156108a9575b602083101461089557565b634e487b7160e01b5f52602260045260245ffd5b91607f169161088a565b6060810190811067ffffffffffffffff8211176106a157604052565b90601f8019910116810190811067ffffffffffffffff8211176106a157604052565b9190820391821161028957565b9190820180921161028957565b6001548110156108675760039060015f52027fb10e2d527612073b26eecdfd717e6a320cf44b4afac2b0732d9fcbe2b7fa0cf601905f90565b6001600160a01b038082165f81815260026020819052604090912054919594919390928415610b34575f8612610b075761097e86866108fe565b935b875f5260026020525f6040812055600180545f90825f5b828110610a66575090505b610a14575b505050918380926109fc947f3398cdba80bcc88d647e60df30bca57e4b34d367b59fd2aab7b565ad80244cfd989796610a01575b50505050604051938493846040919493926060820195825260208201520152565b0390a2565b610a0b9316610b3d565b5f8181806109db565b815481811115610a60578015610a4c575f1901610a308161090b565b91909161068e575f8583828795558285820155015581556109a2565b634e487b7160e01b5f52603160045260245ffd5b506109a7565b8c87610a718361090b565b50541603610a82575b018390610997565b838194925003610a9f575b5f198114610289578380910192610a7a565b610aa88361090b565b50610ab28261090b565b91909161068e578087918303610acb575b505050610a8d565b8089839254166bffffffffffffffffffffffff60a01b9081865416178555888501908b8a840154169082541617905501549101555f8581610ac3565b94600160ff1b8114610289575f0394848610610b25575f5b93610980565b610b2f86866108f1565b610b1f565b50505050505050565b60405163a9059cbb60e01b5f9081526001600160a01b039384166004526024949094529260209060448180855af160015f5114811615610b9c575b8360405215610b8657505050565b635274afe760e01b835216600482015260249150fd5b6001811516610bb257813b15153d151616610b78565b833d5f823e3d90fdfea264697066735822122066d77e7fa4ba1958a0b47ba8a6aece12d921ad565fa59e5d48419f5a5c64f3c264736f6c63430008180033","linkReferences":{}},"methodIdentifiers":{"callCount()":"4b28f9a2","calls(uint256)":"d183ce14","deployedCapital(address)":"c7100cbe","deploymentCount()":"4c36f10d","simulateReturnForCreature(address,address,int256)":"14d8f0d7","simulateReturns(uint256)":"5322e510","totalDeployed()":"0cfb14b0","transferAssets(uint256,address,address,uint256,bytes)":"2d720003"},"id":50}