{"abi":[{"type":"function","name":"callCount","inputs":[],"outputs":[{"name":"","type":"uint256","internalType":"uint256"}],"stateMutability":"view"},{"type":"function","name":"calls","inputs":[{"name":"","type":"uint256","internalType":"uint256"}],"outputs":[{"name":"destChainId","type":"uint256","internalType":"uint256"},{"name":"destAccount","type":"address","internalType":"address"},{"name":"asset","type":"address","internalType":"address"},{"name":"amount","type":"uint256","internalType":"uint256"},{"name":"transactPayload","type":"bytes","internalType":"bytes"}],"stateMutability":"view"},{"type":"function","name":"transferAssets","inputs":[{"name":"destChainId","type":"uint256","internalType":"uint256"},{"name":"destAccount","type":"address","internalType":"address"},{"name":"asset","type":"address","internalType":"address"},{"name":"amount","type":"uint256","internalType":"uint256"},{"name":"transactPayload","type":"bytes","internalType":"bytes"}],"outputs":[{"name":"","type":"bool","internalType":"bool"}],"stateMutability":"nonpayable"}],"bytecode":{"object":"0x608080604052346100165761051a908161001b8239f35b5f80fdfe6080604081815260049182361015610015575f80fd5b5f3560e01c9081632d720003146101ae575080634b28f9a2146101915763d183ce1414610040575f80fd5b3461018d5760208060031936011261018d5782355f5481101561018d576100669061042b565b5080549360018060a01b039360019480600185015416906002850154169260038501549401825180975f9083549361009d85610476565b948585528a6001821691825f1461016b57505060011461012e575b50506100cd92509896959493929803876104ae565b8051968795865284860152840152606083015260a060808301528251908160a08401525f935b82851061011557505060c092505f838284010152601f80199101168101030190f35b84810182015186860160c00152938101938593506100f3565b8992505f52815f20905f915b8583106101525750506100cd93508201015f806100b8565b819484848396959654920101520191018992899261013a565b92509350506100cd94915060ff191682840152151560051b8201015f806100b8565b5f80fd5b503461018d575f36600319011261018d576020905f549051908152f35b83833461018d5760a036600319011261018d576024926001600160a01b0392843584811692919083900361018d576044359185831680930361018d576084359067ffffffffffffffff9384831161018d573660238401121561018d57828401359585871161018d57368a888601011161018d57899360a084018481108882111761041957899392915f91855287358652898060209e8f93848a01968752888a0197885260608a01986064358a52519d8e61027187601f19601f85011601826104ae565b5201838d01378a010152608084019788525f5499680100000000000000008b1015610419576102a660019b8c81015f5561042b565b9590956104085790879594939291518555808c8601925116916bffffffffffffffffffffffff60a01b928382541617905560028501925116908254161790555160038201550193519182519384116103f757505081906103068454610476565b601f81116103a7575b508690601f8311600114610348575f9261033d575b50505f19600383901b1c191690841b1790555b51908152f35b015190508680610324565b90869350601f19831691855f52885f20925f5b8a8282106103915750508411610379575b505050811b019055610337565b01515f1960f88460031b161c1916905586808061036c565b8385015186558a9790950194938401930161035b565b909150835f52865f20601f840160051c8101918885106103ed575b84939291601f89920160051c01915b8281106103df57505061030f565b5f81558594508891016103d1565b90915081906103c2565b604190634e487b7160e01b5f52525ffd5b865f89634e487b7160e01b8252525ffd5b85604188634e487b7160e01b5f52525ffd5b5f54811015610462576005905f8052027f290decd9548b62a8d60345a988386fc84ba6bc95484008f6362f93160ef3e56301905f90565b634e487b7160e01b5f52603260045260245ffd5b90600182811c921680156104a4575b602083101461049057565b634e487b7160e01b5f52602260045260245ffd5b91607f1691610485565b90601f8019910116810190811067ffffffffffffffff8211176104d057604052565b634e487b7160e01b5f52604160045260245ffdfea2646970667358221220d1788b93c7dbba315a6602431045022ec3b633664ae00385e89d66859922630964736f6c63430008180033","linkReferences":{}},"methodIdentifiers":{"callCount()":"4b28f9a2","calls(uint256)":"d183ce14","transferAssets(uint256,address,address,uint256,bytes)":"2d720003"},"id":41}